:0419750075FB3F229D
:1017770053B1F443B20B53B3F843B40775DE3F7567
:10178700DF5175FB3FE4F5FCF5D6F5D775D9FFF5C5
:10179700D1F5DCF5D4F5DAF5D275C7AA75C7557555
:1017A7009101F5CCF5C475C7AA75C755F59175C7ED
:1017B700AA75C75575F90775C7AA75C75575FA0686
:0617C70075D8C00219757F
:0A056800C193C192017800017700F1
:07000300A20792138F762281
:030080008F782254
:03197D008F78223E
:031980008F76223D
:03198300A213228A
:0D195400C0D075D018A213E433FFD0D0220C
:10191500C0D0A295920FA2939210A2949211D0D00A
:01192500229F
:1018F30053B3C753B4C775C7AA75C7557591014389
:10190300B31875C7AA75C755E4F591D295D293D28A
:0219130094221C
:1015EF00C0D075D018309533A293301201B3501973
:1015FF0030940B3000047F0580527F03804E300003
:10160F00047F0480477F0280433094047F00803C36
:10161F003000047F0380357F018031A293301201A7
:10162F00B3501230940B3000047F06801F7F04806C
:10163F001B7F00801730940B3000047F01800D7FDB
:0F164F000580093000047F0280027F06D0D02280
:10131B00C0D075D018E5776578700302142DC2AF75
:10132B00E57824FE603C14605014606C147003026A
:10133B0013C21470030213E1240560030214017538
:10134B00FB308576DAE4F5DC43D84075C7AA75C760
:10135B005575910175B71075C7AA75C755F59102EB
:10136B00140175FB0C8576DA75C7AA75C75575918F
:10137B0001E4F5CC75B710801575FB038576DC752C
:10138B00C7AA75C755759101E4F5CC75B71275C72A
:10139B00AA75C755F591805B75FB308576DC75C7F3
:1013AB00AA75C75575910175B71275C7AA75C7553B
:1013BB00E4F591F5DA803C75FB0C75C7AA75C7553A
:1013CB007591018576CC75B71475C7AA75C755E4A9
:1013DB00F591F5DA801D75FB0375C7AA75C75575B1
:1013EB0091018576CC75B71475C7AA75C755E4F509
:1013FB0091F5DC43D84053E8CFAF787E00EF640122
:10140B00601BEF640270028014EF64034E6006EF02
:10141B0064044E700543E810800343E820D2AF8587
:05142B007877D0D0220B
:10057200025C0000015E00124A000200000101015B
:0B058200000001020102010002000164
:050035008E448F4522FE
:05005E008E468F4722D1
:050066008E488F4922C5
:10185600C0D075D00830050575E101800375E10338
:1018660053E8F01FED64017009EF75F003A4244AF4
:101876008007EF75F003A4244BF8E6240342E8E45E
:0D188600F5E3F5E230050343E840D0D02241
:07120200C0D075D008AD0F4C
:10120900C2051DE5606D6003021311ED75F003A4BD
:10121900244AF8E625E02444F8E6F55C08E6F55D9D
:10122900ED75F003A4244CF8E6603EE55CC313FEBB
:10123900E55D13FFED75F003A4244BF8E625E024E2
:1012490044F8E6FA08E6FBC39FEA9E50028001C310
:101259009205AE5CE55D7803CEC313CE13D8F9FFD2
:10126900C3EB9FEA9E504B8046E55CC313FEE55DE8
:1012790013FFED75F003A4244BF8E625E02444F8A8
:10128900E6FA08E6FBD39FEA9E4003D38001C392A6
:1012990005AE5CE55D7803CEC313CE13D8F9FFC361
:1012A900E55D9FFFE55C9EFED3EB9FEA9E4003E46C
:1012B900F56120050DD3E561940374809480500293
:1012C9000561300518AF61C3EF94037480948040C1
:1012D9000CD3EF94067480948050020561ED75F08B
:1012E90003A4244BF8E625E02444F808E6F55FC397
:1012F900E5619406748094804013300510ED04FF75
:0F130900655E60098F5E8007E4F5618D607F008F
:03131800D0D02210
:0A19610043B17053B28F43F63E22EB
:10058D004102340041022E0A41021C8241021F1712
:10059D0041022B2842021803E842022001F44202D4
:1005AD002F001A420229019041023304014100C17A
:1005BD000BC18EC10DC189C10AC10C4202310000AF
:1005CD00420222000042021A000042021D000042B7
:1005DD00022C000044022400000000013600012519
:1005ED00000134BD013D0A013ED7012401012C015A
:1005FD00012D0282151770820A00008114008202FB
:10060D00000081170002270000023A0000013500AA
:10061D004102280082120000012A00820600000219
:10062D00370000012600012900012B0001390001CE
:0C063D003C00C108062E0001020001056F
:01000A0022D3
:1016BF00E4F58930090975C960F5CCF5CD80187549
:1016CF00C969439210E4F59375941075F10875CBC1
:1016DF00FF75CBFE439B04439C02758D70758B2465
:1016EF0043C804438901758AAB758C2FC28DD28C88
:1016FF00D2A975E9FD43EA7843EB3843B74043EF8E
:10170F008043F78043FE0243FF02439B02D2AF2286
:02000E008F7BE6
:10001000A2069207120003AF7B1217CDA206920E22
:10002000857B36D3E57B9480748094804003D380B5
:0400300001C3920A6C
:0100340022A9
:03003B0002165E4C
:10165E00C0E0C0F0C083C082C0D075D018E5EC5495
:10166E0038602275EC0020091C200B19C2AF12192C
:10167E0054EF24FF92001215EF8F26AF2612197D1C
:10168E0012131BD2AFE5EC30E61953ECB0C378134E
:10169E00E294FF18E29400500A08E22401F218E2E4
:1016AE003400F275EC00D0D0D082D083D0F0D0E0F0
:0116BE0032F9
:03000B0002171FBA
:10171F00C0E0C083C082C0D075D000C000C007C277
:10172F008CC28D758AAB758C2F7812E4F2087440D9
:10173F00F2900228E0C39440E494005003E004F0D8
:10174F00900228E0FFC37813E29F18E29400500341
:10175F00E014F07812E4F208F2D28CD007D000D067
:08176F00D0D082D083D0E0321B
:05143000C0D075D008DA
:10143500AEC9EE24B7605024F0602824F0706AAE7F
:10144500E5EEC394017480948050047F02805AAE07
:10145500E5EEC394047480948050047F01804AE4CF
:10146500FF8046AEE5EEC394027480948050047FFD
:10147500028036AEE5EEC394067480948050047FF6
:10148500018026E4FF8022AEE5EEC39404748094C7
:101495008050047F028012AEE5EEC3940C748094F4
:1014A5008050047F018002E4FF852C24EF14600D39
:1014B500146012800075C969752C01800E75C959B3
:0B14C500752C02800675C949752C04C7
:0314D000D0D02257
:04197900439B082262
:0F19360053C4E7EFF4F5C5EEF4F5C643C4082239
:0F18CF00E5402543FFE53F3542C313FEEF13FF0E
:1018DE0053C4E753C4F843C407EFF4F5C5EEF4F56B
:0518EE00C643C40822FE
:0300630002085739
:07085700C0E0C0D075D0180D
:10085E00C2015392FE853F42854043C2AEAFE5EFE3
:10086E00FEADE47C00E42DF540EC3EF53FD2AE202B
:10087E000D03020A6D300E08753A00853E3B800668
:10088E00753A0085343B780EE2FF08E208CFF20895
:10089E00EFF2780CE2FF08E208CFF208EFF27808E8
:1008AE00E2FF08E2780CCFF208EFF27808E53FF2AB
:1008BE0008E540F2D3E52A940F74809480400375C6
:1008CE002A00AFC9EF249760112410701EE5402551
:1008DE00E0F540E53F33F53F8011AE3FE54078024D
:1008EE00C333CE33CED8F9F5408E3F780EE2FE08F4
:1008FE00E2FF08E2FC08E2FDD39FEC9E4013ED9F61
:10090E00FFEC9EFED3EF94C8EE94004020D20180FF
:10091E001C7810E2FE08E2FFC3780FE29FFF18E298
:10092E009EFED3EF94C8EE94004002D201780CE202
:10093E00FE08E2FF08E2FC08E2FDD39FEC9E4013A6
:10094E00ED9FFFEC9EFED3EF94C8EE94004020D2B4
:10095E0001801C780EE2FE08E2FFC3780DE29FFFD5
:10096E0018E29EFED3EF94C8EE94004002D20178B6
:10097E0008E2FE08E2FF780CE2FC08E2FDD39FECF1
:10098E009E4013ED9FFFEC9EFED3EF94C8EE9400B5
:10099E004020D201801C780CE2FE08E2FFC37809E9
:1009AE00E29FFF18E29EFED3EF94C8EE9400400241
:1009BE00D2013001087808E2FE08E2802C780CE2C1
:1009CE00FE08E2FF7809E22FFF18E23EFE780FE202
:1009DE002FFF18E23EFE7811E22FFF18E23EFEEFE7
:1009EE007802CEC313CE13D8F9FF12193612143073
:1009FE00C37816E2954018E2953F405DAE42E5435E
:100A0E00A82D088005CEC313CE13D8F9FFC3E54336
:100A1E009FFFE5429EFEC3E5409FE53F9E403AAEF6
:100A2E0042E543A82D088005CEC313CE13D8F92571
:100A3E0043FFE5423EFED3E5409FE53F9E501A78C8
:100A4E0014E2C39404748094804007300D11D20BCD
:0F0A5E00800D7814E204F280067814E4F2C20BE3
:050A6D00D0D0D0E03202
:10003E00C0D075D010AF26D3EF9401748094804059
:0B004E000415268003752606D0D02282
:03008300020C72FA
:100C7200C0E0C0F0C083C082C0D075D01053C4EFB2
:100C8200200903020DA4AF3612198012003EE52B93
:100C92006403700553C4E7C287AF261200801213A3
:100CA2001B75CC0075CD00D2CAE52B64026003022D
:100CB2000DA490021DE0FCA3E0FD90021AE0FAA34D
:100CC200E0FBFFAE1212040B900222E0FCA3E0FD57
:100CD200CFCDCFCECCCE12040B90022EE07C002FD3
:100CE200FFEC3EFEE4FD90022412055C90022CE033
:100CF200FCA3E0FDAF13AE1212040B900222E0FC43
:100D0200A3E0FDCFCDCFCECCCE12040B90021FE0DC
:100D12002FF536900224E0F8A3E0F9A3E0FAA3E06D
:100D2200FBE47F107E27FDFC12049C900231EEF062
:100D3200A3EFF0900222E07002A3E0701B90022069
:100D4200E0FEA3E0FF7C007D7D1203F91218DE9025
:100D5200022FA3E0F5368012900231E0FEA3E0FFFD
:100D62007C007D0C1203F91218DE90021AE0FEA339
:100D7200E0FFD3900223E09F900222E09E400F7595
:100D82002B0353C4E7D2067FFA12000E801490029E
:100D920031E0FEA3E0FF900223E02FF0900222E078
:100DA2003EF0300D52C374FF9524FFE49400FEC35D
:100DB200E53B9FE53A9E500DE524253BF53BE435A6
:100DC2003AF53A8013753A00753B00C3E52A94FF61
:100DD200748094805002052A853A27853B28300B7F
:100DE20016300E0CC374FF9528F528E49527F527D5
:100DF200AF28AE27120F94D0D0D082D083D0F0D0BB
:020E0200E032DC
:03006B00021986F1
:03198600C2DD328D
:10006E008F7B53E8F043E80175E10775E30575E210
:02007E0020223E
:03005B00020E048E
:0D0E0400C0E0C0F0C083C082C0D075D0082F
:100E1100C204C2EFE5E85407FF24FE6078147003B2
:100E2100020EAD147003020EC3147003020ED92416
:100E3100046003020EEDAFC3EF75F010A4AEF0AD88
:100E4100C27C002DF538EC3EF537D208300A03029A
:100E51000EEDAF26121202EF65266003020EEDE5DC
:100E6100C454086003020EEDC2CA853F4285404367
:100E7100E52B64037012AFCDEFFEADCC7C00E42D09
:100E8100F540EC3EF53F8006753F007540001218B5
:100E9100CFD2878057AFC3EF75F010A4AEF0ADC2CB
:100EA1007C002D7807F2EC3E18F28040AFC3EF755D
:100EB100F010A4ADC27C002DFFEC35F0FE12003520
:100EC100802AAFC3EF75F010A4ADC27C002DFFECFA
:100ED10035F0FE12005E8014AFC3EF75F010A4ADC3
:100EE100C27C002DFFEC35F0FE1200663008447420
:100EF1002E2529F8E614601314601D24FD601E24BC
:100F010005702CA20A92057D018006A20A92057D38
:100F110002AF26121856801753E8F0800653E8F006
:100F210043E80275E10175E30075E20043E840C260
:100F3100088043AF2612006E300A3BAF2612120220
:100F4100EF65267031E5C45408702BC2CA853F4253
:100F5100854043E52B64037012AFCDEFFEADCC7C31
:100F610000E42DF540EC3EF53F8006753F007540ED
:100F7100001218CFD287C3E529940574809480406C
:080F8100057529008002052915
:0B0F8900D0D0D082D083D0F0D0E03276
:0A196B00AD07AC068CCFEDF5CE22DF
:0F1945007FFF7E0F12196BAF2612006ED2AE22FB
:10189300900218E0FEA3E0FF7C007D0A1203F9A387
:1018A300EEF0A3EFF090022EE0FF90021CE0C39F46
:1018B300FEEC9400A3F0A3CEF0A3E0FF90022BE094
:0C18C300C39FFEEC9400A3F0A3CEF02223
:101815001217771218F3121961121945D2067F1E95
:1018250012000E1216BF121893752B027FA27E01AD
:101835001218DE53B17F43B28053B3B053B4B0D264
:1018450087E4FFFE0FBF00010EEF64FE4E70F580CA
:01185500F0A2
:10192600461C4000439513334576E00043889333C5
:05064900420235000033
:1014D300E412021E90192612054C1201818F718E9F
:1014E300708D6F8C6E1211018F718E708D6F8C6E7B
:1014F30090192E12054C1201818F718E708D6F8C95
:101503006EAB71AA70A96FA86EC000C001C002C003
:101513000390192A12054CE4FFFE7D807C3F1201E3
:1015230081D003D002D001D00012008D8F718E7054
:101533008D6F8C6EAB71AA70A96FA86EE4FFFE7DF0
:10154300807C3F1201818F718E708D6F8C6E90192C
:0F1553003212054C1200898F718E708D6F8C6E65
:011562002266
:100A720000060C13191F252B32383E444A50565C8F
:100A820061676D72787D83888D92979CA1A6ABAFCA
:100A9200B4B8BCC0C5C8CCD0D3D7DADBD8D4D1CD9A
:100AA200C9C5C1BDB9B5B0ACA7A29E99948E8984BF
:100AB2007F79746E68635D57514B453F39332D27FB
:100AC200211A140E0801050B11171E242A30363C78
:100AD20042484E545A60666B71777C81878C91963E
:100AE2009BA0A5AAAEB3B7BBC0C4C7CBCFD3D6D940
:100AF200DCD8D5D2CECAC6C2BEBAB6B1ADA8A49F02
:100B02009A95908B85807A756F6A645E58534D47CB
:100B1200413B352E28221C160F0903030A10161C0E
:100B220022292F353B41474D53595F646A70757BCB
:100B320080868B90959A9FA4A9ADB2B6BABFC3C75F
:100B4200CACED2D5D8DCD9D6D2CFCBC7C3BFBBB7DA
:100B5200B2AEA9A5A09B96918C86817C76716B65BD
:100B6200605A544E48423C36302A241D17110B0459
:100B7200DCDFE2E5E7EAECEEF1F2F4F6F7F9FAFB94
:100B8200FCFDFDFEFEFEFEFEFDFDFCFCFBF9F8F7A2
:100B9200F5F4F2F0EEEBE9E6E4E1DEDDE0E3E6E8CF
:100BA200EBEDEFF1F3F5F6F8F9FAFBFCFDFDFEFED5
:100BB200FEFEFEFDFDFCFBFAF9F8F6F5F3F1EFEDB2
:100BC200EAE8E5E3E0DDDEE1E4E7E9ECEEF0F2F4A9
:100BD200F6F7F8FAFBFCFCFDFEFEFEFEFEFEFDFC57
:100BE200FCFBFAF9F7F6F4F2F0EEECEAE7E4E2DF06
:100BF200DCDFE2E5E8EAEDEFF1F3F5F6F8F9FAFB0E
:100C0200FCFDFDFEFEFEFEFEFDFDFCFBFAF9F8F723
:100C1200F5F3F1EFEDEBE9E6E3E0DDDEE1E3E6E952
:100C2200EBEDF0F2F3F5F7F8F9FAFBFCFDFDFEFE51
:100C3200FEFEFEFDFDFCFBFAF9F8F6F4F3F1EFEC33
:100C4200EAE8E5E2DFDCDFE2E4E7EAECEEF0F2F428
:100C5200F6F7F9FAFBFCFDFDFEFEFEFEFEFDFDFCD5
:100C6200FCFBFAF8F7F5F4F2F0EEECE9E7E4E1DE8A
:10064E006100001800060C13191F252B32383E448A
:10065E004A50565C61676D72787D83888D92979C47
:10066E00A1A6ABAFB4B8BCC0C5C8CCD0D3D7DADB6B
:10067E00D8D4D1CDC9C5C1BDB9B5B0ACA7A29E99CC
:10068E00948E89847F79746E68635D57514B453FB4
:10069E0039332D27211A140E0801050B11171E24AC
:1006AE002A30363C42484E545A60666B71777C81D4
:1006BE00878C91969BA0A5AAAEB3B7BBC0C4C7CB7F
:1006CE00CFD3D6D9DCD8D5D2CECAC6C2BEBAB6B171
:1006DE00ADA8A49F9A95908B85807A756F6A645E9B
:1006EE0058534D47413B352E28221C160F09030344
:1006FE000A10161C22292F353B41474D53595F6472
:10070E006A70757B80868B90959A9FA4A9ADB2B6C0
:10071E00BABFC3C7CACED2D5D8DCD9D6D2CFCBC7F3
:10072E00C3BFBBB7B2AEA9A5A09B96918C86817CA8
:10073E0076716B65605A544E48423C36302A241D01
:10074E0017110B0461000118DCDFE2E5E7EAECEEBD
:10075E00F1F2F4F6F7F9FAFBFCFDFDFEFEFEFEFEED
:10076E00FDFDFCFCFBF9F8F7F5F4F2F0EEEBE9E633
:10077E00E4E1DEDDE0E3E6E8EBEDEFF1F3F5F6F8CC
:10078E00F9FAFBFCFDFDFEFEFEFEFEFDFDFCFBFA96
:10079E00F9F8F6F5F3F1EFEDEAE8E5E3E0DDDEE199
:1007AE00E4E7E9ECEEF0F2F4F6F7F8FAFBFCFCFD08
:1007BE00FEFEFEFEFEFEFDFCFCFBFAF9F7F6F4F281
:1007CE00F0EEECEAE7E4E2DFDCDFE2E5E8EAEDEFAB
:1007DE00F1F3F5F6F8F9FAFBFCFDFDFEFEFEFEFE6A
:1007EE00FDFDFCFBFAF9F8F7F5F3F1EFEDEBE9E6B9
:1007FE00E3E0DDDEE1E3E6E9EBEDF0F2F3F5F7F849
:10080E00F9FAFBFCFDFDFEFEFEFEFEFDFDFCFBFA15
:10081E00F9F8F6F4F3F1EFECEAE8E5E2DFDCDFE21B
:10082E00E4E7EAECEEF0F2F4F6F7F9FAFBFCFDFD84
:10083E00FEFEFEFEFEFDFDFCFCFBFAF8F7F5F4F203
:08084E00F0EEECE9E7E4E1DE65
:0217CD00AB0768
:1017CF00E4FAEAC394FF748094805039EA900A7265
:1017DF0093FF7E00EBFD7C001203F9EEFF74182AD5
:1017EF00F582E43400F583EFF0EA900B7293FF7EFD
:1017FF00001203F9EEFF74182AF582E43401F58321
:05180F00EFF00A80BDAE
:0118140022B1
:100F9400C0D075D010AD1774182DF582E43400F567
:100FA40083E0756200F56374182DF582E43401F56D
:100FB40083E0756400F565C374FF9565FFE495648B
:100FC400C313F568EF13F56985686CF56D2563F552
:100FD4006BE5683562F56AE5692565F567E56835A9
:100FE40064F566C2AFEDFF7E00C3942B74809480D9
:100FF400501B75C7AA75C7557591018569CC75C70E
:10100400AA75C755E4F591856BDC0210BCC3EF9457
:1010140055EE64809480501A75C7AA75C7557591AA
:10102400018569CC75C7AA75C755E4F591856BDA56
:101034008023C3EF9480EE64809480501D8569DA28
:1010440075C7AA75C755759101856BCC75C7AA7507
:10105400C755E4F5918567DC8061C3EF94ABEE641A
:1010640080948050088569DA856BDC8011C3EF9425
:10107400D5EE64809480501D8569DC856BDA75C774
:10108400AA75C7557591018567CC75C7AA75C755EB
:10109400E4F5918026C3EF94FFEE64809480501BA6
:1010A4008569DC75C7AA75C755759101856BCC75C3
:1010B400C7AA75C755E4F5918567DAE4F5FB43DF04
:0910C4001043D840D2AFD0D02275
:10008600020291E86480F8E933E83360110460F015
:10009600ED33EC337009E8FCE9FDEAFEEBFF2204E0
:1000A60060DED3EB9FEA9EE99DE8C2E78CF0C2F7DB
:1000B60095F0400CE8CCF8E9CDF9EACEFAEBCFFBA7
:1000C60012025C85D0F05804700320D5B3E80470A2
:1000D600075002B2D502029B92D5EC0460F7E4CC3D
:1000E600C0E0C398F8603B94186008400DD0E0FB70
:1000F600020273E4FBFAC9FC8028E830E406E4C98E
:10010600FBE4CAFCE830E305E4C9CACBFCE85407C3
:100116006010F8C3E913F9EA13FAEB13FBEC13FCCE
:10012600D8F130F52FC3E49CFCEF9BFFEE9AFEED71
:1001360099FDD0E0FBEF4E4D4C701222DB0302021C
:1001460098EC2CFCEF33FFEE33FEED33FDED30E79C
:10015600EB020273EF2BFFEE3AFEED39FDD0E0FB2A
:1001660050130BBB000302029BED13FDEE13FEEFD3
:0801760013FFEC13FC020273FD
:10017E0002029BEC5D046005E859047003020291D3
:10018E0012025C580460F6EC4860F2EC7004FDFE5E
:10019E00FF22C860DB2481C85009C3986002500654
:1001AE000202989850CAF582E9294B4A7005AB8233
:1001BE0002028775F0007C1A7880C3EF9BEE9AEDF1
:1001CE0099400DC3EF9BFFEE9AFEED99FDE842F0CC
:1001DE00DC23ACF0D0E0FFD0E0FED0E0FDAB82201F
:1001EE00E7101BEB60BAEC2CFCEF33FFEE33FEEDA9
:1001FE0033FD020273E803F830E705C0F075F00036
:10020E00EF2FFFEE33FEED33FD40B830E7C280AA8C
:10021E0075F020800E75F010800575F0087D007E5B
:10022E00007F003392D530D50312052EEC334010EB
:10023E00EF33FFEE33FEED33FDEC33FCD5F0ED2264
:0E024E00E5F0247EA2D513CC92E7CDCEFF22A0
:1010CD003E9248DA3ECCCCCD3F2AAAAB4000000080
:1010DD003F8000003F9837F03FB504F33FD744FC05
:1010ED003E3172173EB172173F0515913EDE5BD949
:1010FD00D2188002C218EDD2E7F8CD33EC3304706C
:10110D000BBD800592D502029B02029140FBD314C8
:10111D0060F2F5F07C3FEE7A00C39496C8948B4054
:10112D00230AC89469C8941A401A0AC89468C894C6
:10113D001F40110AC8945AC89425400805F07A003A
:10114D00CDC2E7CDC0F08C728D738E748F75EA238E
:10115D0023C0E024DDF582E43410F58312054C1232
:10116D00008DECC0E0EDC0E0EEC0E0EFC0E0120598
:10117D003CA872A973AA74AB75120089D0E0FBD09C
:10118D00E0FAD0E0F9D0E0B2E7F81201818C728D6F
:10119D00738E748F759010CD74031203ACA872A961
:1011AD0073AA74AB751202A6D0E0600F24E9F58224
:1011BD00E43410F58312054C12008D8C728D738EF4
:1011CD00748F75D0E0C3947FFDE49400FC1202236C
:1011DD007B187A727931783F1202A6A872A973AA88
:1011ED0074AB7512008D30180B7BD97A5B79DE7874
:0511FD003E1202A622D3
:10025C00E9D2E7C933E833F892D5EDD2E7CD33ECE8
:07026C0033FC5002B2D52261
:10027300EC30E7100FBF000C0EBE00080DBD0004EC
:100283000BEB6014A2D5EB13FCED92E7FD2274FF98
:10029300FCFDFEFF22E480F8A2D574FF13FC7D80F1
:0302A300E480EF05
:1002A600EC4D6011E8497017ED33EC3304600DE452
:1002B600FCFFFEFD22E933E8330470F802029112D6
:1002C600025C58046009E4CC2481500628500902D7
:1002D600029B284003020298C0E0EB4A7044B980B2
:1002E60006D0E0FB020287EF4E701CBD8008EBFFD4
:1002F600EAFEE9FD80EBE98DF0A4FEE5F002038F4E
:10030600E9CDF9EAFEEBFFEF89F0A4FCE5F0CE8932
:10031600F0A42EFFE435F0CD89F0A42DFEE435F0EF
:100326008067EF4E7005BD80D780C3EF8BF0A4AC1D
:10033600F0EE8BF0A42CFCE435F0F8EF8AF0A42C58
:10034600E5F038FCE433CB8DF0A42CFCE5F03BF86B
:10035600EE8AF0A42CFCE5F038F8E433CF89F0A45B
:100366002CFCE5F038CF3400CE89F0A42FFFE5F061
:100376003EFEE433C98DF0A42EFEE5F039CD8AF0B9
:10038600A42FFFE5F03EFEE43DFD33D0E0FB500731
:100396000BBB000F02029BEC2CFCEF33FFEE33FE8F
:0603A600ED33FD020273BD
:1003AC00C0E0EFFBEEFAEDF9ECF81202A6D0E0F5A6
:1003BC00F0EFFBEEFAEDF9ECF812053CA3A3A3A3C6
:1003CC00E8C0E0E9C0E0EAC0E0EBC0E0C0F0120237
:1003DC00A612054CA3A3A3A312008DD0F0D0E0FB72
:0D03EC00D0E0FAD0E0F9D0E0F8D5F0D4224E
:0300000002156383
:0C156300787FE4F6D8FD75817B0215AAA4
:1003F900EF8DF0A4A8F0CF8CF0A428CE8DF0A42E18
:02040900FE22D1
:10040B00BC000BBE0029EF8DF084FFADF022E4CCD5
:10041B00F875F008EF2FFFEE33FEEC33FCEE9DEC9E
:10042B00984005FCEE9DFE0FD5F0E9E4CEFD22EDE4
:10043B00F8F5F0EE8420D21CFEADF075F008EF2F2E
:10044B00FFED33FD4007985006D5F0F222C398FD1F
:05045B000FD5F0EA22BC
:1004600075F008758200EF2FFFEE33FECD33CDCC53
:1004700033CCC58233C5829BED9AEC99E5829840D6
:100480000CF582EE9BFEED9AFDEC99FC0FD5F0D6B3
:10049000E4CEFBE4CDFAE4CCF9A88222B800C1B9DD
:1004A0000059BA002DEC8BF084CFCECDFCE5F0CB1B
:1004B000F97818EF2FFFEE33FEED33FDEC33FCEB54
:1004C00033FB10D703994004EB99FB0FD8E5E4F90F
:1004D000FA227818EF2FFFEE33FEED33FDEC33FCFC
:1004E000C933C910D7059BE99A4007EC9BFCE99AF0
:1004F000F90FD8E0E4C9FAE4CCFB2275F010EF2F35
:10050000FFEE33FEED33FDCC33CCC833C810D70734
:100510009BEC9AE899400AED9BFDEC9AFCE899F86F
:0E0520000FD5F0DAE4CDFBE4CCFAE4C8F92202
:0E052E00C3E49FFFE49EFEE49DFDE49CFC22DE
:10053C00E493FC740193FD740293FE740393FF2205
:10054C00E493F8740193F9740293FA740393FB2205
:0C055C00ECF0A3EDF0A3EEF0A3EFF02212
:10156F00021815E493A3F8E493A34003F68001F265
:10157F0008DFF48029E493A3F85407240CC8C3337D
:10158F00C4540F4420C8834004F456800146F6DF4C
:10159F00E4800B0102040810204080900568E47E6F
:1015AF00019360BCA3FF543F30E509541FFEE49341
:1015BF00A360010ECF54C025E060A840B8E493A308
:1015CF00FAE493A3F8E493A3C8C582C8CAC583CA33
:1015DF00F0A3C8C582C8CAC583CADFE9DEE780BEEB
:0108560000A1
:00000001FF
