:0400540075FB3F22D7
:10157D0053B1F443B20B53B3F843B40775DE3F7563
:10158D00DF5175FB3FE4F5FCF5D6F5D775D9FFF5C1
:10159D00D1F5DCF5D4F5DAF5D275C7AA75C7557551
:1015AD009101F5CCF5C475C7AA75C755F59175C7E9
:1015BD00AA75C75575F90775C7AA75C75575FA0682
:0615CD0075D8C0020054B5
:0704A700C18AC189016D004B
:07000300A205920A8F6C2296
:03005800A20A22D7
:10178C00C0D0A2959206A2939207A2949208D0D0B0
:01179C00222A
:1017370053B3C753B4C775C7AA75C7557591014346
:10174700B31875C7AA75C755E4F591D295D293D248
:021757009422DA
:10144900C0D075D008309533A293300901B3501933
:1014590030940B3001047F0580527F03804E3001A8
:10146900047F0480477F0280433094047F00803CDE
:101479003001047F0380357F018031A29330090157
:10148900B3501230940B3001047F06801F7F048013
:101499001B7F00801730940B3001047F01800D7F82
:0F14A9000580093001047F0280027F06D0D02227
:100FE900C0D075D008E56D6F70030210F7C2AFEF7E
:100FF90024FE603C14605014606C14700302108E5F
:101009001470030210AD240560030210CD75FB3086
:10101900856CDAE4F5DC43D84075C7AA75C7557500
:10102900910175B71075C7AA75C755F5910210CD0D
:1010390075FB0C856CDA75C7AA75C755759101E4FE
:10104900F5CC75B710801575FB03856CDC75C7AADF
:1010590075C755759101E4F5CC75B71275C7AA75B1
:10106900C755F591805B75FB30856CDC75C7AA7532
:10107900C75575910175B71275C7AA75C755E4F5B6
:1010890091F5DA803C75FB0C75C7AA75C755759142
:1010990001856CCC75B71475C7AA75C755E4F59168
:1010A900F5DA801D75FB0375C7AA75C755759101DA
:1010B900856CCC75B71475C7AA75C755E4F591F554
:1010C900DC43D84053E8CFEFFD7C006401601BEDA1
:1010D900640270028014ED64034C6006ED64044CF4
:1010E900700543E810800343E820D2AF8F6DD0D05C
:0110F90022D4
:0704AE00025A0000015C008E
:10000E00C0D075D018E55C25E0244EF8A61E08A6D3
:04001E001FD0D022FD
:10002600C0D075D018E55C25E02452F8A61E08A6B7
:040036001FD0D022E5
:10006E00C0D075D018E55C25E02456F8A61E08A66B
:04007E001FD0D0229D
:10168A00C0D075E101EF24FE600F146014240270CB
:10169A001653E8F043E803800E53E8F043E8048069
:1016AA000653E8F043E805E4F5E3F5E243E840D001
:0216BA00D0223C
:05095000C0D075D018B5
:10095500C202C203E4FCFBF56EEF24FE60341460B2
:10096500501460691470030209EE147003020A0C36
:1009750024056003020A35ED24FE600D14600D2484
:10098500026003020A35020A1C020A187902C20330
:100995008017ED24FE600C14600B24026003020A2C
:1009A50035807480527901D203E55C25E0244E80C0
:1009B50077ED24FE60091460082402707380388086
:1009C50056E4F9C203E55C25E02452805BED24FE84
:1009D500600914600824027057801C80367902D2A1
:1009E50003E55C25E02452803FED24FE6009146098
:1009F5000A2402703B801C7F02801E7901C203E538
:100A05005C25E024568021ED24FE600B14600F2444
:100A150002701D7F0380027F0112168A8012E4F99D
:100A2500D203E55C25E02456F8E6F55A08E6F55BC1
:100A3500ED64036003020B78200303020AD3E55A31
:100A4500C313FEE55B13FFE925E025E0244EF8E539
:100A55005C25E028F8E6F58308E6C39FE5839E500C
:100A6500028001C39202E4FCECC3955C4003020BD7
:100A750062E55C2CFBC394027480948040021B1BCE
:100A8500EBD39400748094805005756E028004EB5E
:100A950014F56EEB14F56E30022EE925E025E02401
:100AA5004EF8E56E25E028F8E6FE08E6FFE925E0C4
:100AB50025E0244EF8EB25E028F8E6F58308E6C3A3
:100AC5009FE5839E50028001C392020C809AE55AED
:100AD500C313FEE55B13FFE925E025E0244EF8E5A9
:100AE5005C25E028F8E6F58308E6D39FE5839E407C
:100AF50003D38001C39202E4FCECC3955C505EE530
:100B05005C2CFBC394027480948040021B1BEBD3C6
:100B15009400748094805005756E028004EB14F582
:100B25006EEB14F56E30022FE925E025E0244EF832
:100B3500E56E25E028F8E6FE08E6FFE925E025E074
:100B4500244EF8EB25E028F8E6F58308E6D39FE583
:100B5500839E4003D38001C392020C809CA2029223
:100B650087C3E55C9401748094805004055C800320
:030B7500E4F55C48
:030B7800D0D022B8
:0D17BC0043B17053B28F43F63EE4F55C225A
:0A17E00030313233343536373839F2
:1004B500C10DC18FC10E0132BD013C0A013DD701FD
:1004C500230101280101290282161770820B000001
:1004D50081150082020000811C00022400000239FF
:1004E500000001330041021F0082130000012700B4
:1004F500820600000236000081080001260001384E
:1005050000013B00C10B082A000106020001060597
:030023000216EDD5
:1016ED00C0E0C0D075D008309904C299C20C3098B2
:1016FD000FC298AF350535743E2FF8A69953350FA7
:05170D00D0D0D0E03255
:01000A0022D3
:101759007E00CFCDCFCECCCE12042474E02FF582FB
:0817690074173EF583E493FFC1
:08177100200CFDD20C8F99221F
:101712008B698A6A896BAB69AA6AA96B1203F96041
:1017220013056BE56B7002056A14F91203F9FF12D7
:05173200177180E222A6
:10161B00AB07AA067C037DE81204247F64121759DA
:10162B007C007D64AF03AE021204247F0A121759AB
:10163B00AE02AF037C007D0A12042474E02DF58208
:0B164B0074173CF583E493FF02177155
:1014B800E4F58975C969439210F59375941075F12F
:1014C8000875CBFF75CBFEF5C575C6F0439C025376
:1014D800C4EF43C408758D70758B24439B0443C8BF
:1014E8000443F70453EFFB43EF8053F77F4389012D
:1014F800758AAB758C2FC28DD28CD2A975E9FD4344
:10150800EA5843EB3843B84043B740439B0243F79C
:0D1518008043EF8043EF2643FF02D2AF2255
:021779008F6F70
:10177B00A2049205120003AF6F1215D3A204920FAD
:01178B00223B
:03003B000216BCEE
:1016BC00C0E0C0D075D000C000E5EC30E61953ECAA
:1016CC00B0C37814E294FF18E29400500A08E224A4
:1016DC0001F218E23400F275EC00D000D0D0D0E06A
:0116EC0032CB
:03000B00021525B6
:10152500C0E0C083C082C0D075D000C000C007C273
:101535008CC28D758AAB758C2F7813E4F2087440D4
:10154500F290021FE0C39440E494005003E004F0DD
:1015550090021FE0FFC37814E29F18E29400500345
:10156500E014F07813E4F208F2D28CD007D000D062
:08157500D0D082D083D0E03217
:05120800C0D075D00804
:10120D00AEC9EE24B7605024F0602824F0706AAEA9
:10121D00E5EEC394017480948050047F02805AAE31
:10122D00E5EEC394047480948050047F01804AE4F9
:10123D00FF8046AEE5EEC394027480948050047F27
:10124D00028036AEE5EEC394067480948050047F20
:10125D00018026E4FF8022AEE5EEC39404748094F1
:10126D008050047F028012AEE5EEC3940C7480941E
:10127D008050047F018002E4FF852823EF14600D68
:10128D00146012800075C969752801800E75C959E1
:0B129D00752802800675C949752804F9
:0312A800D0D02281
:04005E00439B082296
:0F17AD0053C4E7EFF4F5C5EEF4F5C643C40822C4
:030063000207236E
:07072300C0E0C0D075D01842
:10072A00C2005392FE300F08753900853D3A8006A3
:10073A0075390085323A7818E2FF08E208CFF208E4
:10074A00EFF2AFE5EFFEADE47C00E42D7819F2ECB0
:10075A003E18F2780FE2FF08E208CFF208EFF278CB
:10076A000DE2FF08E208CFF208EFF27809E2FF088B
:10077A00E2780DCFF208EFF27818E2FE08E2FF788D
:10078A0009EEF208EFF2D3E527940F7480948040C3
:10079A0003752700ADC9ED2497601024107021EF6E
:1007AA0025E07919F3EE3319F380157818E2FE087B
:1007BA00E27802C333CE33CED8F97919F3EE19F3BE
:1007CA00780FE2FE08E2FF08E2FC08E2FDD39FECA4
:1007DA009E4013ED9FFFEC9EFED3EF94C8EE94006B
:1007EA004020D200801C7811E2FE08E2FFC3781094
:1007FA00E29FFF18E29EFED3EF94C8EE94004002F7
:10080A00D200780DE2FE08E2FF08E2FC08E2FDD31E
:10081A009FEC9E4013ED9FFFEC9EFED3EF94C8EE33
:10082A0094004020D200801C780FE2FE08E2FFC349
:10083A00780EE29FFF18E29EFED3EF94C8EE940072
:10084A004002D2007809E2FE08E2FF780DE2FC08D5
:10085A00E2FDD39FEC9E4013ED9FFFEC9EFED3EF8B
:10086A0094C8EE94004020D200801C780DE2FE0865
:10087A00E2FFC3780AE29FFF18E29EFED3EF94C814
:10088A00EE94004002D2003000087809E2FE08E245
:10089A00802C780DE2FE08E2FF780AE22FFF18E2C8
:1008AA003EFE7810E22FFF18E23EFE7812E22FFF9A
:1008BA0018E23EFEEF7802CEC313CE13D8F9FF1228
:1008CA0017AD1212087816E2FE08E2FFD37819E291
:1008DA009F18E29E5065781AE2FC08E2FDAE1CA859
:1008EA0029088005CEC313CE13D8F9FFC3ED9FFFA5
:1008FA00EC9EFEC37819E29F18E29E403E781AE207
:10090A00FC08E2FDAE1CA829088005CEC313CE134D
:10091A00D8F92DFFEC3EFED37819E29F18E29E50DB
:10092A001A7815E2C39404748094804007300E113B
:10093A00D20D800D7815E204F280067815E4F2C231
:01094A000D9F
:05094B00D0D0D0E03225
:030083000213C79E
:1013C700C0E0C0F0C083C082C0D075D00853C4EF5E
:1013D700C374FF9523FFE49400FEC3E53A9FE53904
:1013E7009E500DE523253AF53AE43539F539801352
:1013F700753900753A00C3E52794FF7480948050CF
:10140700020527853924853A25300D18300F0CC37E
:1014170074FF9525F525E49524F524AF25AE241210
:101427000D7B8013120058EE4F24FF9201121449CE
:101437007808EFF2120FE9D0D0D082D083D0F0D065
:02144700E03291
:03006B000200662A
:03006600C2DD32C6
:04003E007808E2FF5D
:100042008F6F53E8F043E80175E10775E30575E248
:0200520020226A
:03005B000210FA96
:0D10FA00C0E0C0F0C083C082C0D075D01827
:10110700C2EFE5E85407FF24FE6025146039146038
:101117004C14605F2404706FAFC3EF75F010A4AE7A
:10112700F0ADC27C002DF537EC3EF536D20B80577B
:10113700AFC3EF75F010A4AEF0ADC27C002D7807F9
:10114700F2EC3E18F28040AFC3EF75F010A4ADC2C9
:101157007C002DFFEC35F0FE12000E802AAFC3EFA6
:1011670075F010A4ADC27C002DFFEC35F0FE120027
:10117700268014AFC3EF75F010A4ADC27C002DFF1D
:10118700EC35F0FE12006EC2AF300B53742A2526E1
:10119700F8E614601614602C24FD602D14602024DA
:1011A7000670387808E2FF7D01800F7808E2FF7D3E
:1011B700021209507808E2FF7D03120950801C12C1
:1011C700003E801753E8F0800653E8F043E80275C5
:1011D700E10175E30075E20043E840C20B800312AA
:1011E700003ED2AFC3E5269407748094804005750E
:0611F7002600800205261F
:0B11FD00D0D0D082D083D0F0D0E03200
:0A17D600AD07AC068CCFEDF5CE2276
:0D17C9007FFF7E0F1217D612003ED2AE2217
:1016560012157D1217371217BC1217C9D2047FFD57
:101666001217791214B853B17F43B28053B3B053F3
:10167600B4B0D287E4FFFE0FBF00010EEF64FE4E4A
:0416860070F580F08B
:10179D00461C4000439513334576E0004388933350
:0505150042021D000080
:1012AB00E412021E90179D1204971201818F138E68
:1012BB00128D118C10120EE88F138E128D118C1053
:1012CB009017A51204971201818F138E128D118C1A
:1012DB0010AB13AA12A911A810C000C001C002C004
:1012EB00039017A1120497E4FFFE7D807C3F12014F
:1012FB0081D003D002D001D00012008D8F138E123B
:10130B008D118C10AB13AA12A911A810E4FFFE7D4E
:10131B00807C3F1201818F138E128D118C109017D0
:0F132B00A91204971200898F138E128D118C1046
:01133A002290
:100B7B0000060C13191F252B32383E444A50565C85
:100B8B0061676D72787D83888D92979CA1A6ABAFC0
:100B9B00B4B8BCC0C5C8CCD0D3D7DADBD8D4D1CD90
:100BAB00C9C5C1BDB9B5B0ACA7A29E99948E8984B5
:100BBB007F79746E68635D57514B453F39332D27F1
:100BCB00211A140E0801050B11171E242A30363C6E
:100BDB0042484E545A60666B71777C81878C919634
:100BEB009BA0A5AAAEB3B7BBC0C4C7CBCFD3D6D936
:100BFB00DCD8D5D2CECAC6C2BEBAB6B1ADA8A49FF8
:100C0B009A95908B85807A756F6A645E58534D47C1
:100C1B00413B352E28221C160F0903030A10161C04
:100C2B0022292F353B41474D53595F646A70757BC1
:100C3B0080868B90959A9FA4A9ADB2B6BABFC3C755
:100C4B00CACED2D5D8DCD9D6D2CFCBC7C3BFBBB7D0
:100C5B00B2AEA9A5A09B96918C86817C76716B65B3
:100C6B00605A544E48423C36302A241D17110B044F
:100C7B00DCDFE2E5E7EAECEEF1F2F4F6F7F9FAFB8A
:100C8B00FCFDFDFEFEFEFEFEFDFDFCFCFBF9F8F798
:100C9B00F5F4F2F0EEEBE9E6E4E1DEDDE0E3E6E8C5
:100CAB00EBEDEFF1F3F5F6F8F9FAFBFCFDFDFEFECB
:100CBB00FEFEFEFDFDFCFBFAF9F8F6F5F3F1EFEDA8
:100CCB00EAE8E5E3E0DDDEE1E4E7E9ECEEF0F2F49F
:100CDB00F6F7F8FAFBFCFCFDFEFEFEFEFEFEFDFC4D
:100CEB00FCFBFAF9F7F6F4F2F0EEECEAE7E4E2DFFC
:100CFB00DCDFE2E5E8EAEDEFF1F3F5F6F8F9FAFB04
:100D0B00FCFDFDFEFEFEFEFEFDFDFCFBFAF9F8F719
:100D1B00F5F3F1EFEDEBE9E6E3E0DDDEE1E3E6E948
:100D2B00EBEDF0F2F3F5F7F8F9FAFBFCFDFDFEFE47
:100D3B00FEFEFEFDFDFCFBFAF9F8F6F4F3F1EFEC29
:100D4B00EAE8E5E2DFDCDFE2E4E7EAECEEF0F2F41E
:100D5B00F6F7F9FAFBFCFDFDFEFEFEFEFEFDFDFCCB
:100D6B00FCFBFAF8F7F5F4F2F0EEECE9E7E4E1DE80
:10051A006100001D00060C13191F252B32383E44BA
:10052A004A50565C61676D72787D83888D92979C7C
:10053A00A1A6ABAFB4B8BCC0C5C8CCD0D3D7DADBA0
:10054A00D8D4D1CDC9C5C1BDB9B5B0ACA7A29E9901
:10055A00948E89847F79746E68635D57514B453FE9
:10056A0039332D27211A140E0801050B11171E24E1
:10057A002A30363C42484E545A60666B71777C8109
:10058A00878C91969BA0A5AAAEB3B7BBC0C4C7CBB4
:10059A00CFD3D6D9DCD8D5D2CECAC6C2BEBAB6B1A6
:1005AA00ADA8A49F9A95908B85807A756F6A645ED0
:1005BA0058534D47413B352E28221C160F09030379
:1005CA000A10161C22292F353B41474D53595F64A7
:1005DA006A70757B80868B90959A9FA4A9ADB2B6F6
:1005EA00BABFC3C7CACED2D5D8DCD9D6D2CFCBC729
:1005FA00C3BFBBB7B2AEA9A5A09B96918C86817CDE
:10060A0076716B65605A544E48423C36302A241D36
:10061A0017110B046100011DDCDFE2E5E7EAECEEED
:10062A00F1F2F4F6F7F9FAFBFCFDFDFEFEFEFEFE22
:10063A00FDFDFCFCFBF9F8F7F5F4F2F0EEEBE9E668
:10064A00E4E1DEDDE0E3E6E8EBEDEFF1F3F5F6F801
:10065A00F9FAFBFCFDFDFEFEFEFEFEFDFDFCFBFACB
:10066A00F9F8F6F5F3F1EFEDEAE8E5E3E0DDDEE1CE
:10067A00E4E7E9ECEEF0F2F4F6F7F8FAFBFCFCFD3D
:10068A00FEFEFEFEFEFEFDFCFCFBFAF9F7F6F4F2B6
:10069A00F0EEECEAE7E4E2DFDCDFE2E5E8EAEDEFE0
:1006AA00F1F3F5F6F8F9FAFBFCFDFDFEFEFEFEFE9F
:1006BA00FDFDFCFBFAF9F8F7F5F3F1EFEDEBE9E6EE
:1006CA00E3E0DDDEE1E3E6E9EBEDF0F2F3F5F7F87E
:1006DA00F9FAFBFCFDFDFEFEFEFEFEFDFDFCFBFA4B
:1006EA00F9F8F6F4F3F1EFECEAE8E5E2DFDCDFE251
:1006FA00E4E7EAECEEF0F2F4F6F7F9FAFBFCFDFDBA
:10070A00FEFEFEFEFEFDFDFCFCFBFAF8F7F5F4F238
:08071A00F0EEECE9E7E4E1DE9A
:0215D300AB0764
:1015D500E4FAEAC394FF748094805039EA900B7B57
:1015E50093FF7E00EBFD7C00120412EEFF741D2AB2
:1015F500F582E43400F583EFF0EA900C7B93FF7EEF
:1016050000120412EEFF741D2AF582E43401F583FD
:05161500EFF00A80BDAA
:01161A0022AD
:100D7B00C0D075D008AD0F741D2DF582E43400F58D
:100D8B0083E0755D00F55E741D2DF582E43401F58D
:100D9B0083E0755F00F560C374FF9560FFE4955FBA
:100DAB00C313F563EF13F564856367F568255EF58B
:100DBB0066E563355DF565E5642560F562E56335EC
:100DCB005FF561C2AFEDFF7E00C3942B74809480FE
:100DDB00501B75C7AA75C7557591018564CC75C72E
:100DEB00AA75C755E4F5918566DC020EA3C3EF9493
:100DFB0055EE64809480501A75C7AA75C7557591C6
:100E0B00018564CC75C7AA75C755E4F5918566DA7B
:100E1B008023C3EF9480EE64809480501D8564DA48
:100E2B0075C7AA75C7557591018566CC75C7AA7527
:100E3B00C755E4F5918562DC8061C3EF94ABEE643A
:100E4B0080948050088564DA8566DC8011C3EF944A
:100E5B00D5EE64809480501D8564DC8566DA75C799
:100E6B00AA75C7557591018562CC75C7AA75C7550B
:100E7B00E4F5918026C3EF94FFEE64809480501BC1
:100E8B008564DC75C7AA75C7557591018566CC75E8
:100E9B00C7AA75C755E4F5918562DAE4F5FB43DF24
:090EAB001043D840D2AFD0D02290
:10008600020291E86480F8E933E83360110460F015
:10009600ED33EC337009E8FCE9FDEAFEEBFF2204E0
:1000A60060DED3EB9FEA9EE99DE8C2E78CF0C2F7DB
:1000B60095F0400CE8CCF8E9CDF9EACEFAEBCFFBA7
:1000C60012025C85D0F05804700320D5B3E80470A2
:1000D600075002B2D502029B92D5EC0460F7E4CC3D
:1000E600C0E0C398F8603B94186008400DD0E0FB70
:1000F600020273E4FBFAC9FC8028E830E406E4C98E
:10010600FBE4CAFCE830E305E4C9CACBFCE85407C3
:100116006010F8C3E913F9EA13FAEB13FBEC13FCCE
:10012600D8F130F52FC3E49CFCEF9BFFEE9AFEED71
:1001360099FDD0E0FBEF4E4D4C701222DB0302021C
:1001460098EC2CFCEF33FFEE33FEED33FDED30E79C
:10015600EB020273EF2BFFEE3AFEED39FDD0E0FB2A
:1001660050130BBB000302029BED13FDEE13FEEFD3
:0801760013FFEC13FC020273FD
:10017E0002029BEC5D046005E859047003020291D3
:10018E0012025C580460F6EC4860F2EC7004FDFE5E
:10019E00FF22C860DB2481C85009C3986002500654
:1001AE000202989850CAF582E9294B4A7005AB8233
:1001BE0002028775F0007C1A7880C3EF9BEE9AEDF1
:1001CE0099400DC3EF9BFFEE9AFEED99FDE842F0CC
:1001DE00DC23ACF0D0E0FFD0E0FED0E0FDAB82201F
:1001EE00E7101BEB60BAEC2CFCEF33FFEE33FEEDA9
:1001FE0033FD020273E803F830E705C0F075F00036
:10020E00EF2FFFEE33FEED33FD40B830E7C280AA8C
:10021E0075F020800E75F010800575F0087D007E5B
:10022E00007F003392D530D503120479EC334010A1
:10023E00EF33FFEE33FEED33FDEC33FCD5F0ED2264
:0E024E00E5F0247EA2D513CC92E7CDCEFF22A0
:100EB4003E9248DA3ECCCCCD3F2AAAAB400000009B
:100EC4003F8000003F9837F03FB504F33FD744FC20
:100ED4003E3172173EB172173F0515913EDE5BD964
:100EE400D2148002C214EDD2E7F8CD33EC3304708F
:100EF4000BBD800592D502029B02029140FBD314E4
:100F040060F2F5F07C3FEE7A00C39496C8948B406F
:100F1400230AC89469C8941A401A0AC89468C894E1
:100F24001F40110AC8945AC89425400805F07A0055
:100F3400CDC2E7CDC0F08C148D158E168F17EA2321
:100F440023C0E024C4F582E4340EF583120497121E
:100F5400008DECC0E0EDC0E0EEC0E0EFC0E01204B4
:100F640087A814A915AA16AB17120089D0E0FBD0E4
:100F7400E0FAD0E0F9D0E0B2E7F81201818C148DE8
:100F8400158E168F17900EB474031203ACA814A90F
:100F940015AA16AB171202A6D0E0600F24D0F58272
:100FA400E4340EF58312049712008D8C148D158E83
:100FB400168F17D0E0C3947FFDE49400FC12022343
:100FC4007B187A727931783F1202A6A814A915AA5F
:100FD40016AB1712008D30140B7BD97A5B79DE784F
:050FE4003E1202A622EE
:10025C00E9D2E7C933E833F892D5EDD2E7CD33ECE8
:07026C0033FC5002B2D52261
:10027300EC30E7100FBF000C0EBE00080DBD0004EC
:100283000BEB6014A2D5EB13FCED92E7FD2274FF98
:10029300FCFDFEFF22E480F8A2D574FF13FC7D80F1
:0302A300E480EF05
:1002A600EC4D6011E8497017ED33EC3304600DE452
:1002B600FCFFFEFD22E933E8330470F802029112D6
:1002C600025C58046009E4CC2481500628500902D7
:1002D600029B284003020298C0E0EB4A7044B980B2
:1002E60006D0E0FB020287EF4E701CBD8008EBFFD4
:1002F600EAFEE9FD80EBE98DF0A4FEE5F002038F4E
:10030600E9CDF9EAFEEBFFEF89F0A4FCE5F0CE8932
:10031600F0A42EFFE435F0CD89F0A42DFEE435F0EF
:100326008067EF4E7005BD80D780C3EF8BF0A4AC1D
:10033600F0EE8BF0A42CFCE435F0F8EF8AF0A42C58
:10034600E5F038FCE433CB8DF0A42CFCE5F03BF86B
:10035600EE8AF0A42CFCE5F038F8E433CF89F0A45B
:100366002CFCE5F038CF3400CE89F0A42FFFE5F061
:100376003EFEE433C98DF0A42EFEE5F039CD8AF0B9
:10038600A42FFFE5F03EFEE43DFD33D0E0FB500731
:100396000BBB000F02029BEC2CFCEF33FFEE33FE8F
:0603A600ED33FD020273BD
:1003AC00C0E0EFFBEEFAEDF9ECF81202A6D0E0F5A6
:1003BC00F0EFFBEEFAEDF9ECF8120487A3A3A3A37C
:1003CC00E8C0E0E9C0E0EAC0E0EBC0E0C0F0120237
:1003DC00A6120497A3A3A3A312008DD0F0D0E0FB28
:0D03EC00D0E0FAD0E0F9D0E0F8D5F0D4224E
:0300000002133BAD
:0C133B00787FE4F6D8FD75816F02138204
:1003F900BB010689828A83E0225002E722BBFE0202
:09040900E32289828A83E4932234
:10041200EF8DF0A4A8F0CF8CF0A428CE8DF0A42EFE
:02042200FE22B8
:10042400BC000BBE0029EF8DF084FFADF022E4CCBC
:10043400F875F008EF2FFFEE33FEEC33FCEE9DEC85
:10044400984005FCEE9DFE0FD5F0E9E4CEFD22EDCB
:10045400F8F5F0EE8420D21CFEADF075F008EF2F15
:10046400FFED33FD4007985006D5F0F222C398FD06
:050474000FD5F0EA22A3
:0E047900C3E49FFFE49EFEE49DFDE49CFC2294
:10048700E493FC740193FD740293FE740393FF22BB
:10049700E493F8740193F9740293FA740393FB22BB
:10134700021656E493A3F8E493A34003F68001F250
:1013570008DFF48029E493A3F85407240CC8C333A7
:10136700C4540F4420C8834004F456800146F6DF76
:10137700E4800B01020408102040809004A7E47E5B
:10138700019360BCA3FF543F30E509541FFEE4936B
:10139700A360010ECF54C025E060A840B8E493A332
:1013A700FAE493A3F8E493A3C8C582C8CAC583CA5D
:1013B700F0A3C8C582C8CAC583CADFE9DEE780BE15
:0107220000D6
:00000001FF
