:0400370075FB3F22F4
:1017280053B1F443B20B53B3F843B40775DE3F75B6
:10173800DF5175FB3FE4F5FCF5D6F5D775D9FFF514
:10174800D1F5DCF5D4F5DAF5D275C7AA75C75575A4
:101758009101F5CCF5C475C7AA75C755F59175C73C
:10176800AA75C75575F90775C7AA75C75575FA06D5
:0617780075D8C002003725
:0A056800C191C19001720001710001
:07000300A20C92118F702284
:031959008F722268
:03195C008F722265
:03195F008F702264
:03196200A21122AD
:0D194200C0D075D018A211E433FFD0D02220
:10006E00C0D0A295920DA293920EA294920FD0D0D0
:01007E00225F
:1018D30053B3C753B4C775C7AA75C75575910143A9
:1018E300B31875C7AA75C755E4F591D295D293D2AB
:0218F30094223D
:10160000C0D075D018309533A293301001B3501963
:1016100030940B3007047F0580527F03804E3007E3
:10162000047F0480477F0280433094047F00803C25
:101630003007047F0380357F018031A29330100191
:10164000B3501230940B3007047F06801F7F048054
:101650001B7F00801730940B3007047F01800D7FC3
:0F1660000580093007047F0280027F06D0D02268
:10121700C0D075D018E57165727003021329C2AF8B
:10122700E57224FE603C14605014606C1470030275
:1012370012BE1470030212DD240560030212FD754D
:10124700FB308570DAE4F5DC43D84075C7AA75C76B
:101257005575910175B71075C7AA75C755F59102F0
:1012670012FD75FB0C8570DA75C7AA75C7557591A0
:1012770001E4F5CC75B710801575FB038570DC7537
:10128700C7AA75C755759101E4F5CC75B71275C72F
:10129700AA75C755F591805B75FB308570DC75C7FE
:1012A700AA75C75575910175B71275C7AA75C75540
:1012B700E4F591F5DA803C75FB0C75C7AA75C7553F
:1012C7007591018570CC75B71475C7AA75C755E4B4
:1012D700F591F5DA801D75FB0375C7AA75C75575B6
:1012E70091018570CC75B71475C7AA75C755E4F514
:1012F70091F5DC43D84053E8CFAF727E00EF64012D
:10130700601BEF640270028014EF64034E6006EF07
:1013170064044E700543E810800343E820D2AF858C
:051327007271D0D0221C
:10057200023B0000122900020000010101000001FB
:08058200020102010002000168
:050032008E238F242243
:05005E008E258F262213
:050066008E278F282207
:10185A00C0D075D008300A0575E101800375E1032F
:10186A0053E8F01FED64017009EF75F003A4242911
:10187A008007EF75F003A4242AF8E6240342E8E47B
:0D188A00F5E3F5E2300A0343E840D0D02238
:07132C00C0D075D008AD0F21
:10133300C20A1DE53E6D6003021437ED75F003A488
:101343002429F8E625E02423F8E6F53B08E6F53CF6
:10135300ED75F003A4242BF8E6603EE53BC313FED2
:10136300E53C13FFED75F003A4242AF8E625E024F9
:1013730023F8E6FA08E6FBC39FEA9E50028001C306
:10138300920AAE3BE53C7803CEC313CE13D8F9FFE4
:10139300C3EB9FEA9E504B8046E53BC313FEE53CFF
:1013A30013FFED75F003A4242AF8E625E02423F8BF
:1013B300E6FA08E6FBD39FEA9E4003D38001C3927B
:1013C3000AAE3BE53C7803CEC313CE13D8F9FFC373
:1013D300E53C9FFFE53B9EFED3EB9FEA9E4003E483
:1013E300F53F200A0DD3E53F9402748094805002A8
:1013F300053F300A18AF3FC3EF94027480948040D6
:101403000CD3EF9404748094805002053FED75F083
:1014130003A4242AF8E625E02423F808E6F53D3062
:101423000A17C3E53F940474809480400C300A0982
:0B1433007F018007E4F53F8D3E7F0045
:03143E00D0D022E9
:0A00500043B17053B28F43F63E2215
:10058A00410238004102320A4102205A410223172D
:10059A0041022F9642021C03E842022401F442025D
:1005AA0033001A42022D019041023714015B00C147
:1005BA0003C186C105C181C102C1044202350000DE
:1005CA00420226000042021E0000420221000042AE
:1005DA0002300000440228000000000152000141DC
:1005EA00000150BD01590A015AD7014001014801D1
:1005FA0001490282151770820A00008114008202E2
:10060A000000811B00024300000256000001510055
:10061A0041022C00821200000146008206000002FC
:10062A005300000142000145000147000155000145
:0C063A005800C100064A00010200010542
:01000A0022D3
:10177E00E4F58975C969439210F59375941075F166
:10178E000875CBFF75CBFE439C02758D70758B244F
:10179E00439B0443C804438901758AAB758C2FC2E1
:1017AE008DD28CD2A975E9FD43EA7843EB3843B765
:1017BE004043EF8043F78043FE0243FF02439B0208
:0317CE00D2AF2275
:02000E008F74ED
:10001000A20B920C120003AF741217D1A20B92061E
:10002000D3E5749480748094804003D38001C3929C
:0100300002CD
:0100310022AC
:03003B0002166F3B
:10166F00C0E0C0F0C083C082C0D075D018E5EC5484
:10167F0038602275EC0020011C200319C2AF12192B
:10168F0042EF24FF92071216008F42AF4212195CED
:10169F00121217D2AFE5EC30E61953ECB0C3781342
:1016AF00E294FF18E29400500A08E22401F218E2D3
:1016BF003400F275EC00D0D0D082D083D0F0D0E0DF
:0116CF0032E8
:03000B000216D00A
:1016D000C0E0C083C082C0D075D000C000C007C2C7
:1016E0008CC28D758AAB758C2F7812E4F208744029
:1016F000F290022CE0C39440E494005003E004F024
:1017000090022CE0FFC37813E29F18E2940050038C
:10171000E014F07812E4F208F2D28CD007D000D0B6
:08172000D0D082D083D0E0326A
:05144100C0D075D008C9
:10144600AEC9EE24B7605024F0602824F0706AAE6E
:10145600E5EEC394017480948050047F02805AAEF6
:10146600E5EEC394047480948050047F01804AE4BE
:10147600FF8046AEE5EEC394027480948050047FEC
:10148600028036AEE5EEC394067480948050047FE5
:10149600018026E4FF8022AEE5EEC39404748094B6
:1014A6008050047F028012AEE5EEC3940C748094E3
:1014B6008050047F018002E4FF854840EF14600DF0
:1014C600146012800075C969754801800E75C95986
:0B14D600754802800675C9497548047E
:0314E100D0D02246
:04007F00439B082275
:0F19240053C4E7EFF4F5C5EEF4F5C643C408224B
:0A18F500E0FEA3E0FF7C001203F9FF
:1018FF0053C4E753C4F843C407EFF4F5C5EEF4F54A
:05190F00C643C40822DC
:030063000208543C
:07085400C0E0C0D075D01810
:10085B00C2085392FE7817E2FF08E208CFF208EFC6
:10086B00F2AFE5EFFEADE47C00E42D7818F2EC3E40
:10087B0018F2200503020A82300608755600855AC5
:10088B00578006755600855057780EE2FF08E20830
:10089B00CFF208EFF2780CE2FF08E208CFF208EF94
:1008AB00F27808E2FF08E2780CCFF208EFF2781743
:1008BB00E2FE08E2FF7808EEF208EFF2D3E5469489
:1008CB000F748094804003754600ADC9ED2497608A
:1008DB001024107021EF25E07918F3EE3319F38013
:1008EB00157817E2FE08E27802C333CE33CED8F97F
:1008FB007918F3EE19F3780EE2FE08E2FF08E2FC3A
:10090B0008E2FDD39FEC9E4013ED9FFFEC9EFED3C0
:10091B00EF94C8EE94004020D208801C7810E2FEC1
:10092B0008E2FFC3780FE29FFF18E29EFED3EF941D
:10093B00C8EE94004002D208780CE2FE08E2FF08F1
:10094B00E2FC08E2FDD39FEC9E4013ED9FFFEC9E73
:10095B00FED3EF94C8EE94004020D208801C780E92
:10096B00E2FE08E2FFC3780DE29FFF18E29EFED382
:10097B00EF94C8EE94004002D2087808E2FE08E239
:10098B00FF780CE2FC08E2FDD39FEC9E4013ED9F39
:10099B00FFEC9EFED3EF94C8EE94004020D208806B
:1009AB001C780CE2FE08E2FFC37809E29FFF18E215
:1009BB009EFED3EF94C8EE94004002D20830080894
:1009CB007808E2FE08E2802C780CE2FE08E2FF7861
:1009DB0009E22FFF18E23EFE780FE22FFF18E23EEE
:1009EB00FE7811E22FFF18E23EFEEF7802CEC31322
:1009FB00CE13D8F9FF1219241214417815E2FE0810
:100A0B00E2FFD37818E29F18E29E50657819E2FC5A
:100A1B0008E2FDAE1CA849088005CEC313CE13D83F
:100A2B00F9FFC3ED9FFFEC9EFEC37818E29F18E21F
:100A3B009E403E7819E2FC08E2FDAE1CA8490880F6
:100A4B0005CEC313CE13D8F92DFFEC3EFED3781889
:100A5B00E29F18E29E501A7814E2C39404748094B7
:100A6B00804007300511D203800D7814E204F28028
:070A7B00067814E4F2C20347
:050A8200D0D0D0E032ED
:03008300020E1C4E
:100E1C00C0E0C0F0C083C082C0D075D01053C4EF06
:100E2C00200103020F49AF5212195FAF42D3EF9466
:100E3C000174809480400415428003754206E54796
:100E4C006403700B900237E0F55B53C4E7C287AFC5
:100E5C0042121959121217900237E0F55BD204E5D1
:100E6C004764026003020F49900221E0FCA3E0FDFD
:100E7C0090021EE0FAA3E0FBFFAE1212040B9002EC
:100E8C0026E0FCA3E0FDCFCDCFCECCCE12040B9050
:100E9C000232E07C002FFFEC3EFEE4FD90022812B3
:100EAC00055C900230E0FCA3E0FDAF13AE1212041F
:100EBC000B900226E0FCA3E0FDCFCDCFCECCCE1222
:100ECC00040B900223E02FF552900228E0F8A3E0E7
:100EDC00F9A3E0FAA3E0FBE47F107E27FDFC1204EB
:100EEC009C900235EEF0A3EFF0900226E07002A386
:100EFC00E070119002247D7D1218F5900233A3E06E
:100F0C00F55280089002357D0C1218F590021EE007
:100F1C00FEA3E0FFD3900227E09F900226E09E40C4
:100F2C000875470353C4E78014900235E0FEA3E034
:100F3C00FF900227E02FF0900226E03EF0300552A1
:100F4C00C374FF9540FFE49400FEC3E5579FE5563C
:100F5C009E500DE5402557F557E43556F556801350
:100F6C00755600755700C3E54694FF748094805005
:100F7C0002054685564385574430031630060CC38C
:100F8C0074FF9544F544E49543F543AF44AE4312E6
:0D0F9C000FA9D0D0D082D083D0F0D0E032A9
:03006B0002196512
:03196500C2DD32AE
:10003E008F7453E8F043E80175E10775E30575E247
:02004E0020226E
:03005B00020C870D
:0D0C8700C0E0C0F0C083C082C0D075D008AE
:100C9400C209C2EFE5E85407FFAE5BEED3940074DB
:100CA4008094804008E5C454087002155BEF24FE6C
:100CB4006070147003020D3D147003020D53147020
:100CC40003020D6924046003020D7DAFC3EF75F0C8
:100CD40010A4AEF0ADC27C002DF554EC3EF553D219
:100CE40000300203020D7DAF4212132CEF70030299
:100CF4000D7DAF5BEF6003020D7DE5C45408707990
:100D0400300476900237E0F55BC2047817E2FE08FF
:100D1400E27803CEC313CE13D8F9FF1218FFD2879B
:100D24008057AFC3EF75F010A4AEF0ADC27C002DB8
:100D34007807F2EC3E18F28040AFC3EF75F010A4D0
:100D4400ADC27C002DFFEC35F0FE120032802AAFDC
:100D5400C3EF75F010A4ADC27C002DFFEC35F0FE9E
:100D640012005E8014AFC3EF75F010A4ADC27C0016
:100D74002DFFEC35F0FE120066300044744A254520
:100D8400F8E614601314601D24FD601E2405702C05
:100D9400A202920A7D018006A202920A7D02AF425B
:100DA40012185A801753E8F0800653E8F043E8021B
:100DB40075E10175E30075E20043E840C200803B41
:100DC400AF4212003E300233AF4212132CEF602BBD
:100DD400E5C454087025AF5BEF702030041D900209
:100DE40037E0F55BC2047817E2FE08E27803CEC36D
:100DF40013CE13D8F9FF1218FFD287C3E545940523
:0D0E0400748094804005754500800205450E
:0B0E1100D0D0D082D083D0F0D0E032EF
:0A194F00AD07AC068CCFEDF5CE22FB
:0F1933007FFF7E0F12194FAF4212003ED2AE223D
:1018970090021CE0FEA3E0FF7C007D0A1203F9A37F
:1018A700EEF0A3EFF0900232E0FF900220E0C39F3A
:1018B700FEEC9400A3F0A3CEF0A3E0FF90022FE08C
:0C18C700C39FFEEC9400A3F0A3CEF0221F
:101819001217281218D3120050121933D20B7F96BF
:1018290012000E12177E1218977547027FA27E01C9
:101839001218FF53B17F43B28053B3B053B4B0D23F
:1018490087E4FFFE0FBF00010EEF64FE4E70F580C6
:01185900F09E
:10191400461C4000439513334576E00043889333D7
:05064600420239000032
:1014E400E412021E90191412054C1201818F6B8EA6
:1014F4006A8D698C681211168F6B8E6A8D698C687F
:1015040090191C12054C1201818F6B8E6A8D698CA7
:1015140068AB6BAA6AA969A868C000C001C002C010
:101524000390191812054CE4FFFE7D807C3F1201E4
:1015340081D003D002D001D00012008D8F6B8E6A4F
:101544008D698C68AB6BAA6AA969A868E4FFFE7D03
:10155400807C3F1201818F6B8E6A8D698C68901933
:0F1564002012054C1200898F6B8E6A8D698C687E
:011573002255
:100A870000060C13191F252B32383E444A50565C7A
:100A970061676D72787D83888D92979CA1A6ABAFB5
:100AA700B4B8BCC0C5C8CCD0D3D7DADBD8D4D1CD85
:100AB700C9C5C1BDB9B5B0ACA7A29E99948E8984AA
:100AC7007F79746E68635D57514B453F39332D27E6
:100AD700211A140E0801050B11171E242A30363C63
:100AE70042484E545A60666B71777C81878C919629
:100AF7009BA0A5AAAEB3B7BBC0C4C7CBCFD3D6D92B
:100B0700DCD8D5D2CECAC6C2BEBAB6B1ADA8A49FEC
:100B17009A95908B85807A756F6A645E58534D47B6
:100B2700413B352E28221C160F0903030A10161CF9
:100B370022292F353B41474D53595F646A70757BB6
:100B470080868B90959A9FA4A9ADB2B6BABFC3C74A
:100B5700CACED2D5D8DCD9D6D2CFCBC7C3BFBBB7C5
:100B6700B2AEA9A5A09B96918C86817C76716B65A8
:100B7700605A544E48423C36302A241D17110B0444
:100B8700DCDFE2E5E7EAECEEF1F2F4F6F7F9FAFB7F
:100B9700FCFDFDFEFEFEFEFEFDFDFCFCFBF9F8F78D
:100BA700F5F4F2F0EEEBE9E6E4E1DEDDE0E3E6E8BA
:100BB700EBEDEFF1F3F5F6F8F9FAFBFCFDFDFEFEC0
:100BC700FEFEFEFDFDFCFBFAF9F8F6F5F3F1EFED9D
:100BD700EAE8E5E3E0DDDEE1E4E7E9ECEEF0F2F494
:100BE700F6F7F8FAFBFCFCFDFEFEFEFEFEFEFDFC42
:100BF700FCFBFAF9F7F6F4F2F0EEECEAE7E4E2DFF1
:100C0700DCDFE2E5E8EAEDEFF1F3F5F6F8F9FAFBF8
:100C1700FCFDFDFEFEFEFEFEFDFDFCFBFAF9F8F70E
:100C2700F5F3F1EFEDEBE9E6E3E0DDDEE1E3E6E93D
:100C3700EBEDF0F2F3F5F7F8F9FAFBFCFDFDFEFE3C
:100C4700FEFEFEFDFDFCFBFAF9F8F6F4F3F1EFEC1E
:100C5700EAE8E5E2DFDCDFE2E4E7EAECEEF0F2F413
:100C6700F6F7F9FAFBFCFDFDFEFEFEFEFEFDFDFCC0
:100C7700FCFBFAF8F7F5F4F2F0EEECE9E7E4E1DE75
:10064B006100001C00060C13191F252B32383E4489
:10065B004A50565C61676D72787D83888D92979C4A
:10066B00A1A6ABAFB4B8BCC0C5C8CCD0D3D7DADB6E
:10067B00D8D4D1CDC9C5C1BDB9B5B0ACA7A29E99CF
:10068B00948E89847F79746E68635D57514B453FB7
:10069B0039332D27211A140E0801050B11171E24AF
:1006AB002A30363C42484E545A60666B71777C81D7
:1006BB00878C91969BA0A5AAAEB3B7BBC0C4C7CB82
:1006CB00CFD3D6D9DCD8D5D2CECAC6C2BEBAB6B174
:1006DB00ADA8A49F9A95908B85807A756F6A645E9E
:1006EB0058534D47413B352E28221C160F09030347
:1006FB000A10161C22292F353B41474D53595F6475
:10070B006A70757B80868B90959A9FA4A9ADB2B6C3
:10071B00BABFC3C7CACED2D5D8DCD9D6D2CFCBC7F6
:10072B00C3BFBBB7B2AEA9A5A09B96918C86817CAB
:10073B0076716B65605A544E48423C36302A241D04
:10074B0017110B046100011CDCDFE2E5E7EAECEEBC
:10075B00F1F2F4F6F7F9FAFBFCFDFDFEFEFEFEFEF0
:10076B00FDFDFCFCFBF9F8F7F5F4F2F0EEEBE9E636
:10077B00E4E1DEDDE0E3E6E8EBEDEFF1F3F5F6F8CF
:10078B00F9FAFBFCFDFDFEFEFEFEFEFDFDFCFBFA99
:10079B00F9F8F6F5F3F1EFEDEAE8E5E3E0DDDEE19C
:1007AB00E4E7E9ECEEF0F2F4F6F7F8FAFBFCFCFD0B
:1007BB00FEFEFEFEFEFEFDFCFCFBFAF9F7F6F4F284
:1007CB00F0EEECEAE7E4E2DFDCDFE2E5E8EAEDEFAE
:1007DB00F1F3F5F6F8F9FAFBFCFDFDFEFEFEFEFE6D
:1007EB00FDFDFCFBFAF9F8F7F5F3F1EFEDEBE9E6BC
:1007FB00E3E0DDDEE1E3E6E9EBEDF0F2F3F5F7F84C
:10080B00F9FAFBFCFDFDFEFEFEFEFEFDFDFCFBFA18
:10081B00F9F8F6F4F3F1EFECEAE8E5E2DFDCDFE21E
:10082B00E4E7EAECEEF0F2F4F6F7F9FAFBFCFDFD87
:10083B00FEFEFEFEFEFDFDFCFCFBFAF8F7F5F4F206
:08084B00F0EEECE9E7E4E1DE68
:0217D100AB0764
:1017D300E4FAEAC394FF748094805039EA900A874C
:1017E30093FF7E00EBFD7C001203F9EEFF741C2ACD
:1017F300F582E43400F583EFF0EA900B8793FF7EE4
:10180300001203F9EEFF741C2AF582E43401F58318
:05181300EFF00A80BDAA
:0118180022AD
:100FA900C0D075D010AD17741C2DF582E43400F54E
:100FB90083E0755C00F55D741C2DF582E43401F560
:100FC90083E0755E00F55FC374FF955FFFE4955E8E
:100FD900C313F562EF13F563856266F567255DF561
:100FE90065E562355CF564E563255FF561E56235C4
:100FF9005EF560C2AFEDFF7E00C3942B74809480D0
:10100900501B75C7AA75C7557591018563CC75C7FE
:10101900AA75C755E4F5918565DC0210D1C3EF9433
:1010290055EE64809480501A75C7AA75C755759195
:10103900018563CC75C7AA75C755E4F5918565DA4D
:101049008023C3EF9480EE64809480501D8563DA19
:1010590075C7AA75C7557591018565CC75C7AA75F8
:10106900C755E4F5918561DC8061C3EF94ABEE640B
:1010790080948050088563DA8565DC8011C3EF941C
:10108900D5EE64809480501D8563DC8565DA75C76B
:10109900AA75C7557591018561CC75C7AA75C755DC
:1010A900E4F5918026C3EF94FFEE64809480501B91
:1010B9008563DC75C7AA75C7557591018565CC75BA
:1010C900C7AA75C755E4F5918561DAE4F5FB43DFF5
:0910D9001043D840D2AFD0D02260
:10008600020291E86480F8E933E83360110460F015
:10009600ED33EC337009E8FCE9FDEAFEEBFF2204E0
:1000A60060DED3EB9FEA9EE99DE8C2E78CF0C2F7DB
:1000B60095F0400CE8CCF8E9CDF9EACEFAEBCFFBA7
:1000C60012025C85D0F05804700320D5B3E80470A2
:1000D600075002B2D502029B92D5EC0460F7E4CC3D
:1000E600C0E0C398F8603B94186008400DD0E0FB70
:1000F600020273E4FBFAC9FC8028E830E406E4C98E
:10010600FBE4CAFCE830E305E4C9CACBFCE85407C3
:100116006010F8C3E913F9EA13FAEB13FBEC13FCCE
:10012600D8F130F52FC3E49CFCEF9BFFEE9AFEED71
:1001360099FDD0E0FBEF4E4D4C701222DB0302021C
:1001460098EC2CFCEF33FFEE33FEED33FDED30E79C
:10015600EB020273EF2BFFEE3AFEED39FDD0E0FB2A
:1001660050130BBB000302029BED13FDEE13FEEFD3
:0801760013FFEC13FC020273FD
:10017E0002029BEC5D046005E859047003020291D3
:10018E0012025C580460F6EC4860F2EC7004FDFE5E
:10019E00FF22C860DB2481C85009C3986002500654
:1001AE000202989850CAF582E9294B4A7005AB8233
:1001BE0002028775F0007C1A7880C3EF9BEE9AEDF1
:1001CE0099400DC3EF9BFFEE9AFEED99FDE842F0CC
:1001DE00DC23ACF0D0E0FFD0E0FED0E0FDAB82201F
:1001EE00E7101BEB60BAEC2CFCEF33FFEE33FEEDA9
:1001FE0033FD020273E803F830E705C0F075F00036
:10020E00EF2FFFEE33FEED33FD40B830E7C280AA8C
:10021E0075F020800E75F010800575F0087D007E5B
:10022E00007F003392D530D50312052EEC334010EB
:10023E00EF33FFEE33FEED33FDEC33FCD5F0ED2264
:0E024E00E5F0247EA2D513CC92E7CDCEFF22A0
:1010E2003E9248DA3ECCCCCD3F2AAAAB400000006B
:1010F2003F8000003F9837F03FB504F33FD744FCF0
:101102003E3172173EB172173F0515913EDE5BD933
:10111200D2168002C216EDD2E7F8CD33EC3304705A
:101122000BBD800592D502029B02029140FBD314B3
:1011320060F2F5F07C3FEE7A00C39496C8948B403F
:10114200230AC89469C8941A401A0AC89468C894B1
:101152001F40110AC8945AC89425400805F07A0025
:10116200CDC2E7CDC0F08C6C8D6D8E6E8F6FEA2391
:1011720023C0E024F2F582E43410F58312054C1208
:10118200008DECC0E0EDC0E0EEC0E0EFC0E0120583
:101192003CA86CA96DAA6EAB6F120089D0E0FBD09F
:1011A200E0FAD0E0F9D0E0B2E7F81201818C6C8D60
:1011B2006D8E6E8F6F9010E274031203ACA86CA94F
:1011C2006DAA6EAB6F1202A6D0E0600F24FEF5820C
:1011D200E43410F58312054C12008D8C6C8D6D8EEB
:1011E2006E8F6FD0E0C3947FFDE49400FC12022363
:1011F2007B187A727931783F1202A6A86CA96DAA7F
:101202006EAB6F12008D30160B7BD97A5B79DE786C
:051212003E1202A622BD
:10025C00E9D2E7C933E833F892D5EDD2E7CD33ECE8
:07026C0033FC5002B2D52261
:10027300EC30E7100FBF000C0EBE00080DBD0004EC
:100283000BEB6014A2D5EB13FCED92E7FD2274FF98
:10029300FCFDFEFF22E480F8A2D574FF13FC7D80F1
:0302A300E480EF05
:1002A600EC4D6011E8497017ED33EC3304600DE452
:1002B600FCFFFEFD22E933E8330470F802029112D6
:1002C600025C58046009E4CC2481500628500902D7
:1002D600029B284003020298C0E0EB4A7044B980B2
:1002E60006D0E0FB020287EF4E701CBD8008EBFFD4
:1002F600EAFEE9FD80EBE98DF0A4FEE5F002038F4E
:10030600E9CDF9EAFEEBFFEF89F0A4FCE5F0CE8932
:10031600F0A42EFFE435F0CD89F0A42DFEE435F0EF
:100326008067EF4E7005BD80D780C3EF8BF0A4AC1D
:10033600F0EE8BF0A42CFCE435F0F8EF8AF0A42C58
:10034600E5F038FCE433CB8DF0A42CFCE5F03BF86B
:10035600EE8AF0A42CFCE5F038F8E433CF89F0A45B
:100366002CFCE5F038CF3400CE89F0A42FFFE5F061
:100376003EFEE433C98DF0A42EFEE5F039CD8AF0B9
:10038600A42FFFE5F03EFEE43DFD33D0E0FB500731
:100396000BBB000F02029BEC2CFCEF33FFEE33FE8F
:0603A600ED33FD020273BD
:1003AC00C0E0EFFBEEFAEDF9ECF81202A6D0E0F5A6
:1003BC00F0EFFBEEFAEDF9ECF812053CA3A3A3A3C6
:1003CC00E8C0E0E9C0E0EAC0E0EBC0E0C0F0120237
:1003DC00A612054CA3A3A3A312008DD0F0D0E0FB72
:0D03EC00D0E0FAD0E0F9D0E0F8D5F0D4224E
:0300000002157472
:0C157400787FE4F6D8FD7581740215BB89
:1003F900EF8DF0A4A8F0CF8CF0A428CE8DF0A42E18
:02040900FE22D1
:10040B00BC000BBE0029EF8DF084FFADF022E4CCD5
:10041B00F875F008EF2FFFEE33FEEC33FCEE9DEC9E
:10042B00984005FCEE9DFE0FD5F0E9E4CEFD22EDE4
:10043B00F8F5F0EE8420D21CFEADF075F008EF2F2E
:10044B00FFED33FD4007985006D5F0F222C398FD1F
:05045B000FD5F0EA22BC
:1004600075F008758200EF2FFFEE33FECD33CDCC53
:1004700033CCC58233C5829BED9AEC99E5829840D6
:100480000CF582EE9BFEED9AFDEC99FC0FD5F0D6B3
:10049000E4CEFBE4CDFAE4CCF9A88222B800C1B9DD
:1004A0000059BA002DEC8BF084CFCECDFCE5F0CB1B
:1004B000F97818EF2FFFEE33FEED33FDEC33FCEB54
:1004C00033FB10D703994004EB99FB0FD8E5E4F90F
:1004D000FA227818EF2FFFEE33FEED33FDEC33FCFC
:1004E000C933C910D7059BE99A4007EC9BFCE99AF0
:1004F000F90FD8E0E4C9FAE4CCFB2275F010EF2F35
:10050000FFEE33FEED33FDCC33CCC833C810D70734
:100510009BEC9AE899400AED9BFDEC9AFCE899F86F
:0E0520000FD5F0DAE4CDFBE4CCFAE4C8F92202
:0E052E00C3E49FFFE49EFEE49DFDE49CFC22DE
:10053C00E493FC740193FD740293FE740393FF2205
:10054C00E493F8740193F9740293FA740393FB2205
:0C055C00ECF0A3EDF0A3EEF0A3EFF02212
:10158000021819E493A3F8E493A34003F68001F250
:1015900008DFF48029E493A3F85407240CC8C3336C
:1015A000C4540F4420C8834004F456800146F6DF3B
:1015B000E4800B0102040810204080900568E47E5E
:1015C000019360BCA3FF543F30E509541FFEE49330
:1015D000A360010ECF54C025E060A840B8E493A3F7
:1015E000FAE493A3F8E493A3C8C582C8CAC583CA22
:1015F000F0A3C8C582C8CAC583CADFE9DEE780BEDA
:0108530000A4
:00000001FF
