:0400370075FB3F22F4
:1016E40053B1F443B20B53B3F843B40775DE3F75FB
:1016F400DF5175FB3FE4F5FCF5D6F5D775D9FFF559
:10170400D1F5DCF5D4F5DAF5D275C7AA75C75575E8
:101714009101F5CCF5C475C7AA75C755F59175C780
:10172400AA75C75575F90775C7AA75C75575FA0619
:0617340075D8C002003769
:0A056800C191C190017300017200FF
:07000300A20C92118F712283
:031915008F7322AB
:031918008F7322A8
:03191B008F7122A7
:03191E00A21122F1
:0D18FE00C0D075D018A211E433FFD0D02265
:10006E00C0D0A295920DA293920EA294920FD0D0D0
:01007E00225F
:10188F0053B3C753B4C775C7AA75C75575910143ED
:10189F00B31875C7AA75C755E4F591D295D293D2EF
:0218AF00942281
:1015BC00C0D075D018309533A293301001B35019A8
:1015CC0030940B3007047F0580527F03804E300728
:1015DC00047F0480477F0280433094047F00803C6A
:1015EC003007047F0380357F018031A293301001D6
:1015FC00B3501230940B3007047F06801F7F048099
:10160C001B7F00801730940B3007047F01800D7F07
:0F161C000580093007047F0280027F06D0D022AC
:1012E800C0D075D018E572657370030213FAC2AFE7
:1012F800E57324FE603C14605014606C14700302A3
:10130800138F1470030213AE240560030213CE7505
:10131800FB308571DAE4F5DC43D84075C7AA75C798
:101328005575910175B71075C7AA75C755F591021E
:1013380013CE75FB0C8571DA75C7AA75C7557591FB
:1013480001E4F5CC75B710801575FB038571DC7564
:10135800C7AA75C755759101E4F5CC75B71275C75D
:10136800AA75C755F591805B75FB308571DC75C72B
:10137800AA75C75575910175B71275C7AA75C7556E
:10138800E4F591F5DA803C75FB0C75C7AA75C7556D
:101398007591018571CC75B71475C7AA75C755E4E1
:1013A800F591F5DA801D75FB0375C7AA75C75575E4
:1013B80091018571CC75B71475C7AA75C755E4F541
:1013C80091F5DC43D84053E8CFAF737E00EF64015A
:1013D800601BEF640270028014EF64034E6006EF36
:1013E80064044E700543E810800343E820D2AF85BB
:0513F8007372D0D02249
:10057200023B0000013D00122900020000010101BE
:0B058200000001020102010002000164
:050032008E238F242243
:05005E008E258F262213
:050066008E278F282207
:10181600C0D075D008300A0575E101800375E10373
:1018260053E8F01FED64017009EF75F003A4242955
:101836008007EF75F003A4242AF8E6240342E8E4BF
:0D184600F5E3F5E2300A0343E840D0D0227C
:0711CD00C0D075D008AD0F82
:1011D400C20A1DE53F6D60030212DEED75F003A443
:1011E4002429F8E625E02423F8E6F53B08E6F53C57
:1011F400ED75F003A4242BF8E6603EE53BC313FE33
:10120400E53C13FFED75F003A4242AF8E625E02459
:1012140023F8E6FA08E6FBC39FEA9E50028001C366
:10122400920AAE3BE53C7803CEC313CE13D8F9FF44
:10123400C3EB9FEA9E504B8046E53BC313FEE53C5F
:1012440013FFED75F003A4242AF8E625E02423F81F
:10125400E6FA08E6FBD39FEA9E4003D38001C392DB
:101264000AAE3BE53C7803CEC313CE13D8F9FFC3D3
:10127400E53C9FFFE53B9EFED3EB9FEA9E4003E4E3
:10128400F540200A0DD3E540940274809480500206
:101294000540300A18AF40C3EF9402748094804034
:1012A4000CD3EF94047480948050020540ED75F0E3
:1012B40003A4242AF8E625E02423F808E6F53EC32F
:1012C400E5409404748094804015300A12ED04FFC4
:1012D400653D600BB2878F3D8007E4F5408D3F7F0D
:0112E4000009
:0312E500D0D02244
:0A00500043B17053B28F43F63E2215
:10058D00410238004102320A4102205A410223172A
:10059D0041022F9642021C03E842022401F442025A
:1005AD0033001A42022D019041023704015C00C153
:1005BD0003C186C105C181C102C1044202350000DB
:1005CD00420226000042021E0000420221000042AB
:1005DD0002300000440228000000000153000142D7
:1005ED00000151BD015A0A015BD7014101014901C9
:1005FD00014A0282151770820A00008114008202DE
:10060D000000811B0002440000025700000152004F
:10061D0041022C00821200000147008206000002F8
:10062D00540000014300014600014800015600013D
:0C063D005900C100064B0001020001053D
:01000A0022D3
:10173A00E4F58975C969439210F59375941075F1AA
:10174A000875CBFF75CBFE439C02758D70758B2493
:10175A00439B0443C804438901758AAB758C2FC225
:10176A008DD28CD2A975E9FD43EA7843EB3843B7A9
:10177A004043EF8043F78043FE0243FF02439B024C
:03178A00D2AF22B9
:02000E008F75EC
:10001000A20B920C120003AF7512178DA20B920661
:10002000D3E5759480748094804003D38001C3929B
:0100300002CD
:0100310022AC
:03003B0002162B7F
:10162B00C0E0C0F0C083C082C0D075D018E5EC54C8
:10163B0038602275EC0020011C200319C2AF121870
:10164B00FEEF24FF92071215BC8F43AF43121918FC
:10165B001212E8D2AFE5EC30E61953ECB0C37813B5
:10166B00E294FF18E29400500A08E22401F218E217
:10167B003400F275EC00D0D0D082D083D0F0D0E023
:01168B00322C
:03000B0002168C4E
:10168C00C0E0C083C082C0D075D000C000C007C20B
:10169C008CC28D758AAB758C2F7812E4F20874406D
:1016AC00F290022CE0C39440E494005003E004F068
:1016BC0090022CE0FFC37813E29F18E294005003D1
:1016CC00E014F07812E4F208F2D28CD007D000D0FB
:0816DC00D0D082D083D0E032AF
:0513FD00C0D075D0080E
:10140200AEC9EE24B7605024F0602824F0706AAEB2
:10141200E5EEC394017480948050047F02805AAE3A
:10142200E5EEC394047480948050047F01804AE402
:10143200FF8046AEE5EEC394027480948050047F30
:10144200028036AEE5EEC394067480948050047F29
:10145200018026E4FF8022AEE5EEC39404748094FA
:101462008050047F028012AEE5EEC3940C74809427
:101472008050047F018002E4FF854941EF14600D32
:10148200146012800075C969754901800E75C959C9
:0B149200754902800675C949754904C0
:03149D00D0D0228A
:04007F00439B082275
:0F18E00053C4E7EFF4F5C5EEF4F5C643C4082290
:0A18B100E0FEA3E0FF7C001203F943
:1018BB0053C4E753C4F843C407EFF4F5C5EEF4F58E
:0518CB00C643C4082221
:0300630002085739
:07085700C0E0C0D075D0180D
:10085E00C2085392FE7817E2FF08E208CFF208EFC3
:10086E00F2AFE5EFFEADE47C00E42D7818F2EC3E3D
:10087E0018F2200503020A85300608755700855BBD
:10088E00588006755700855158780EE2FF08E20829
:10089E00CFF208EFF2780CE2FF08E208CFF208EF91
:1008AE00F27808E2FF08E2780CCFF208EFF2781740
:1008BE00E2FE08E2FF7808EEF208EFF2D3E5479485
:1008CE000F748094804003754700ADC9ED24976086
:1008DE001024107021EF25E07918F3EE3319F38010
:1008EE00157817E2FE08E27802C333CE33CED8F97C
:1008FE007918F3EE19F3780EE2FE08E2FF08E2FC37
:10090E0008E2FDD39FEC9E4013ED9FFFEC9EFED3BD
:10091E00EF94C8EE94004020D208801C7810E2FEBE
:10092E0008E2FFC3780FE29FFF18E29EFED3EF941A
:10093E00C8EE94004002D208780CE2FE08E2FF08EE
:10094E00E2FC08E2FDD39FEC9E4013ED9FFFEC9E70
:10095E00FED3EF94C8EE94004020D208801C780E8F
:10096E00E2FE08E2FFC3780DE29FFF18E29EFED37F
:10097E00EF94C8EE94004002D2087808E2FE08E236
:10098E00FF780CE2FC08E2FDD39FEC9E4013ED9F36
:10099E00FFEC9EFED3EF94C8EE94004020D2088068
:1009AE001C780CE2FE08E2FFC37809E29FFF18E212
:1009BE009EFED3EF94C8EE94004002D20830080891
:1009CE007808E2FE08E2802C780CE2FE08E2FF785E
:1009DE0009E22FFF18E23EFE780FE22FFF18E23EEB
:1009EE00FE7811E22FFF18E23EFEEF7802CEC3131F
:1009FE00CE13D8F9FF1218E01213FD7815E2FE0897
:100A0E00E2FFD37818E29F18E29E50657819E2FC57
:100A1E0008E2FDAE1CA84A088005CEC313CE13D83B
:100A2E00F9FFC3ED9FFFEC9EFEC37818E29F18E21C
:100A3E009E403E7819E2FC08E2FDAE1CA84A0880F2
:100A4E0005CEC313CE13D8F92DFFEC3EFED3781886
:100A5E00E29F18E29E501A7814E2C39404748094B4
:100A6E00804007300511D203800D7814E204F28025
:070A7E00067814E4F2C20344
:050A8500D0D0D0E032EA
:03008300020C8AE2
:100C8A00C0E0C0F0C083C082C0D075D01053C4EF9A
:100C9A00200103020DAFAF5312191BAF43D3EF94D8
:100CAA000174809480400415438003754306E54827
:100CBA006403700353C4E7AF431219151212E89084
:100CCA000237E0F55CD204E54864026003020DAF26
:100CDA00900221E0FCA3E0FD90021EE0FAA3E0FBF3
:100CEA00FFAE1212040B900226E0FCA3E0FDCFCD6A
:100CFA00CFCECCCE12040B900232E07C002FFFEC58
:100D0A003EFEE4FD90022812055C900230E0FCA34E
:100D1A00E0FDAF13AE1212040B900226E0FCA3E032
:100D2A00FDCFCDCFCECCCE12040B900223E02FF50F
:100D3A0053900228E0F8A3E0F9A3E0FAA3E0FBE469
:100D4A007F107E27FDFC12049C900235EEF0A3EF83
:100D5A00F0900226E07002A3E070119002247D7DDB
:100D6A001218B1900233A3E0F55380089002357D42
:100D7A000C1218B190021EE0FEA3E0FFD3900227E6
:100D8A00E09F900226E09E400875480353C4E7801E
:100D9A0014900235E0FEA3E0FF900227E02FF090C6
:100DAA000226E03EF0300552C374FF9541FFE494F9
:100DBA0000FEC3E5589FE5579E500DE5412558F5BD
:100DCA0058E43557F5578013755700755800C3E531
:100DDA004794FF748094805002054785574485588C
:100DEA004530031630060CC374FF9545F545E49566
:100DFA0044F544AF45AE44120F5FD0D0D082D083C1
:050E0A00D0F0D0E03241
:03006B0002192156
:03192100C2DD32F2
:10003E008F7553E8F043E80175E10775E30575E246
:02004E0020226E
:03005B00020E0F83
:0D0E0F00C0E0C0F0C083C082C0D075D00824
:100E1C00C209C2EFE5E85407FF24FE605114606577
:100E2C00146078147003020EBD24046003020ED10A
:100E3C00AFC3EF75F010A4AEF0ADC27C002DF5552C
:100E4C00EC3EF554D20020027CAF431211CDEF657D
:100E5C00437072E5C45408706C7817E2FE08E278AF
:100E6C0003CEC313CE13D8F9FF1218BB8057AFC3F0
:100E7C00EF75F010A4AEF0ADC27C002D7807F2EC4B
:100E8C003E18F28040AFC3EF75F010A4ADC27C00E9
:100E9C002DFFEC35F0FE120032802AAFC3EF75F057
:100EAC0010A4ADC27C002DFFEC35F0FE12005E806C
:100EBC0014AFC3EF75F010A4ADC27C002DFFEC3560
:100ECC00F0FE120066300044744B2546F8E61460C0
:100EDC001314601D24FD601E2405702CA202920ABE
:100EEC007D018006A202920A7D02AF431218168081
:100EFC001753E8F0800653E8F043E80275E10175FA
:100F0C00E30075E20043E840C200802AAF431200C0
:100F1C003E300222AF431211CDEFB54319E5C45454
:100F2C000870137817E2FE08E27803CEC313CE13D1
:100F3C00D8F9FF1218BBC3E5469405748094804021
:080F4C00057546008002054610
:0B0F5400D0D0D082D083D0F0D0E032AB
:0A190B00AD07AC068CCFEDF5CE223F
:0F18EF007FFF7E0F12190BAF4312003ED2AE22C5
:1018530090021CE0FEA3E0FF7C007D0A1203F9A3C3
:10186300EEF0A3EFF0900232E0FF900220E0C39F7E
:10187300FEEC9400A3F0A3CEF0A3E0FF90022FE0D0
:0C188300C39FFEEC9400A3F0A3CEF02263
:1017D5001216E412188F1200501218EFD20B7F96D2
:1017E50012000E12173A1218537548027FA27E0195
:1017F5001218BB53B17F43B28053B3B053B4B0D2C8
:1018050087E4FFFE0FBF00010EEF64FE4E70F5800A
:01181500F0E2
:1018D000461C4000439513334576E000438893331C
:0506490042023900002F
:1014A000E412021E9018D012054C1201818F6C8E2E
:1014B0006B8D6A8C691210CC8F6C8E6B8D6A8C6907
:1014C0009018D812054C1201818F6C8E6B8D6A8C2E
:1014D00069AB6CAA6BA96AA869C000C001C002C050
:1014E000039018D412054CE4FFFE7D807C3F12016E
:1014F00081D003D002D001D00012008D8F6C8E6B92
:101500008D6A8C69AB6CAA6BA96AA869E4FFFE7D41
:10151000807C3F1201818F6C8E6B8D6A8C69901874
:0F152000DC12054C1200898F6C8E6B8D6A8C6902
:01152F002299
:100A8A0000060C13191F252B32383E444A50565C77
:100A9A0061676D72787D83888D92979CA1A6ABAFB2
:100AAA00B4B8BCC0C5C8CCD0D3D7DADBD8D4D1CD82
:100ABA00C9C5C1BDB9B5B0ACA7A29E99948E8984A7
:100ACA007F79746E68635D57514B453F39332D27E3
:100ADA00211A140E0801050B11171E242A30363C60
:100AEA0042484E545A60666B71777C81878C919626
:100AFA009BA0A5AAAEB3B7BBC0C4C7CBCFD3D6D928
:100B0A00DCD8D5D2CECAC6C2BEBAB6B1ADA8A49FE9
:100B1A009A95908B85807A756F6A645E58534D47B3
:100B2A00413B352E28221C160F0903030A10161CF6
:100B3A0022292F353B41474D53595F646A70757BB3
:100B4A0080868B90959A9FA4A9ADB2B6BABFC3C747
:100B5A00CACED2D5D8DCD9D6D2CFCBC7C3BFBBB7C2
:100B6A00B2AEA9A5A09B96918C86817C76716B65A5
:100B7A00605A544E48423C36302A241D17110B0441
:100B8A00DCDFE2E5E7EAECEEF1F2F4F6F7F9FAFB7C
:100B9A00FCFDFDFEFEFEFEFEFDFDFCFCFBF9F8F78A
:100BAA00F5F4F2F0EEEBE9E6E4E1DEDDE0E3E6E8B7
:100BBA00EBEDEFF1F3F5F6F8F9FAFBFCFDFDFEFEBD
:100BCA00FEFEFEFDFDFCFBFAF9F8F6F5F3F1EFED9A
:100BDA00EAE8E5E3E0DDDEE1E4E7E9ECEEF0F2F491
:100BEA00F6F7F8FAFBFCFCFDFEFEFEFEFEFEFDFC3F
:100BFA00FCFBFAF9F7F6F4F2F0EEECEAE7E4E2DFEE
:100C0A00DCDFE2E5E8EAEDEFF1F3F5F6F8F9FAFBF5
:100C1A00FCFDFDFEFEFEFEFEFDFDFCFBFAF9F8F70B
:100C2A00F5F3F1EFEDEBE9E6E3E0DDDEE1E3E6E93A
:100C3A00EBEDF0F2F3F5F7F8F9FAFBFCFDFDFEFE39
:100C4A00FEFEFEFDFDFCFBFAF9F8F6F4F3F1EFEC1B
:100C5A00EAE8E5E2DFDCDFE2E4E7EAECEEF0F2F410
:100C6A00F6F7F9FAFBFCFDFDFEFEFEFEFEFDFDFCBD
:100C7A00FCFBFAF8F7F5F4F2F0EEECE9E7E4E1DE72
:10064E006100001C00060C13191F252B32383E4486
:10065E004A50565C61676D72787D83888D92979C47
:10066E00A1A6ABAFB4B8BCC0C5C8CCD0D3D7DADB6B
:10067E00D8D4D1CDC9C5C1BDB9B5B0ACA7A29E99CC
:10068E00948E89847F79746E68635D57514B453FB4
:10069E0039332D27211A140E0801050B11171E24AC
:1006AE002A30363C42484E545A60666B71777C81D4
:1006BE00878C91969BA0A5AAAEB3B7BBC0C4C7CB7F
:1006CE00CFD3D6D9DCD8D5D2CECAC6C2BEBAB6B171
:1006DE00ADA8A49F9A95908B85807A756F6A645E9B
:1006EE0058534D47413B352E28221C160F09030344
:1006FE000A10161C22292F353B41474D53595F6472
:10070E006A70757B80868B90959A9FA4A9ADB2B6C0
:10071E00BABFC3C7CACED2D5D8DCD9D6D2CFCBC7F3
:10072E00C3BFBBB7B2AEA9A5A09B96918C86817CA8
:10073E0076716B65605A544E48423C36302A241D01
:10074E0017110B046100011CDCDFE2E5E7EAECEEB9
:10075E00F1F2F4F6F7F9FAFBFCFDFDFEFEFEFEFEED
:10076E00FDFDFCFCFBF9F8F7F5F4F2F0EEEBE9E633
:10077E00E4E1DEDDE0E3E6E8EBEDEFF1F3F5F6F8CC
:10078E00F9FAFBFCFDFDFEFEFEFEFEFDFDFCFBFA96
:10079E00F9F8F6F5F3F1EFEDEAE8E5E3E0DDDEE199
:1007AE00E4E7E9ECEEF0F2F4F6F7F8FAFBFCFCFD08
:1007BE00FEFEFEFEFEFEFDFCFCFBFAF9F7F6F4F281
:1007CE00F0EEECEAE7E4E2DFDCDFE2E5E8EAEDEFAB
:1007DE00F1F3F5F6F8F9FAFBFCFDFDFEFEFEFEFE6A
:1007EE00FDFDFCFBFAF9F8F7F5F3F1EFEDEBE9E6B9
:1007FE00E3E0DDDEE1E3E6E9EBEDF0F2F3F5F7F849
:10080E00F9FAFBFCFDFDFEFEFEFEFEFDFDFCFBFA15
:10081E00F9F8F6F4F3F1EFECEAE8E5E2DFDCDFE21B
:10082E00E4E7EAECEEF0F2F4F6F7F9FAFBFCFDFD84
:10083E00FEFEFEFEFEFDFDFCFCFBFAF8F7F5F4F203
:08084E00F0EEECE9E7E4E1DE65
:02178D00AB07A8
:10178F00E4FAEAC394FF748094805039EA900A8A8D
:10179F0093FF7E00EBFD7C001203F9EEFF741C2A11
:1017AF00F582E43400F583EFF0EA900B8A93FF7E25
:1017BF00001203F9EEFF741C2AF582E43401F5835D
:0517CF00EFF00A80BDEF
:0117D40022F2
:100F5F00C0D075D010AD17741C2DF582E43400F598
:100F6F0083E0755D00F55E741C2DF582E43401F5A8
:100F7F0083E0755F00F560C374FF9560FFE4955FD4
:100F8F00C313F563EF13F564856367F568255EF5A5
:100F9F0066E563355DF565E5642560F562E5633506
:100FAF005FF561C2AFEDFF7E00C3942B7480948018
:100FBF00501B75C7AA75C7557591018564CC75C748
:100FCF00AA75C755E4F5918566DC021087C3EF94C7
:100FDF0055EE64809480501A75C7AA75C7557591E0
:100FEF00018564CC75C7AA75C755E4F5918566DA96
:100FFF008023C3EF9480EE64809480501D8564DA63
:10100F0075C7AA75C7557591018566CC75C7AA7541
:10101F00C755E4F5918562DC8061C3EF94ABEE6454
:10102F0080948050088564DA8566DC8011C3EF9464
:10103F00D5EE64809480501D8564DC8566DA75C7B3
:10104F00AA75C7557591018562CC75C7AA75C75525
:10105F00E4F5918026C3EF94FFEE64809480501BDB
:10106F008564DC75C7AA75C7557591018566CC7502
:10107F00C7AA75C755E4F5918562DAE4F5FB43DF3E
:09108F001043D840D2AFD0D022AA
:10008600020291E86480F8E933E83360110460F015
:10009600ED33EC337009E8FCE9FDEAFEEBFF2204E0
:1000A60060DED3EB9FEA9EE99DE8C2E78CF0C2F7DB
:1000B60095F0400CE8CCF8E9CDF9EACEFAEBCFFBA7
:1000C60012025C85D0F05804700320D5B3E80470A2
:1000D600075002B2D502029B92D5EC0460F7E4CC3D
:1000E600C0E0C398F8603B94186008400DD0E0FB70
:1000F600020273E4FBFAC9FC8028E830E406E4C98E
:10010600FBE4CAFCE830E305E4C9CACBFCE85407C3
:100116006010F8C3E913F9EA13FAEB13FBEC13FCCE
:10012600D8F130F52FC3E49CFCEF9BFFEE9AFEED71
:1001360099FDD0E0FBEF4E4D4C701222DB0302021C
:1001460098EC2CFCEF33FFEE33FEED33FDED30E79C
:10015600EB020273EF2BFFEE3AFEED39FDD0E0FB2A
:1001660050130BBB000302029BED13FDEE13FEEFD3
:0801760013FFEC13FC020273FD
:10017E0002029BEC5D046005E859047003020291D3
:10018E0012025C580460F6EC4860F2EC7004FDFE5E
:10019E00FF22C860DB2481C85009C3986002500654
:1001AE000202989850CAF582E9294B4A7005AB8233
:1001BE0002028775F0007C1A7880C3EF9BEE9AEDF1
:1001CE0099400DC3EF9BFFEE9AFEED99FDE842F0CC
:1001DE00DC23ACF0D0E0FFD0E0FED0E0FDAB82201F
:1001EE00E7101BEB60BAEC2CFCEF33FFEE33FEEDA9
:1001FE0033FD020273E803F830E705C0F075F00036
:10020E00EF2FFFEE33FEED33FD40B830E7C280AA8C
:10021E0075F020800E75F010800575F0087D007E5B
:10022E00007F003392D530D50312052EEC334010EB
:10023E00EF33FFEE33FEED33FDEC33FCD5F0ED2264
:0E024E00E5F0247EA2D513CC92E7CDCEFF22A0
:101098003E9248DA3ECCCCCD3F2AAAAB40000000B5
:1010A8003F8000003F9837F03FB504F33FD744FC3A
:1010B8003E3172173EB172173F0515913EDE5BD97E
:1010C800D2168002C216EDD2E7F8CD33EC330470A5
:1010D8000BBD800592D502029B02029140FBD314FE
:1010E80060F2F5F07C3FEE7A00C39496C8948B408A
:1010F800230AC89469C8941A401A0AC89468C894FC
:101108001F40110AC8945AC89425400805F07A006F
:10111800CDC2E7CDC0F08C6D8D6E8E6F8F70EA23D7
:1011280023C0E024A8F582E43410F58312054C129C
:10113800008DECC0E0EDC0E0EEC0E0EFC0E01205CD
:101148003CA86DA96EAA6FAB70120089D0E0FBD0E5
:10115800E0FAD0E0F9D0E0B2E7F81201818C6D8DA9
:101168006E8E6F8F7090109874031203ACA86DA9DF
:101178006EAA6FAB701202A6D0E0600F24B4F5829D
:10118800E43410F58312054C12008D8C6D8D6E8E33
:101198006F8F70D0E0C3947FFDE49400FC120223AB
:1011A8007B187A727931783F1202A6A86DA96EAAC7
:1011B8006FAB7012008D30160B7BD97A5B79DE78B5
:0511C8003E1202A62208
:10025C00E9D2E7C933E833F892D5EDD2E7CD33ECE8
:07026C0033FC5002B2D52261
:10027300EC30E7100FBF000C0EBE00080DBD0004EC
:100283000BEB6014A2D5EB13FCED92E7FD2274FF98
:10029300FCFDFEFF22E480F8A2D574FF13FC7D80F1
:0302A300E480EF05
:1002A600EC4D6011E8497017ED33EC3304600DE452
:1002B600FCFFFEFD22E933E8330470F802029112D6
:1002C600025C58046009E4CC2481500628500902D7
:1002D600029B284003020298C0E0EB4A7044B980B2
:1002E60006D0E0FB020287EF4E701CBD8008EBFFD4
:1002F600EAFEE9FD80EBE98DF0A4FEE5F002038F4E
:10030600E9CDF9EAFEEBFFEF89F0A4FCE5F0CE8932
:10031600F0A42EFFE435F0CD89F0A42DFEE435F0EF
:100326008067EF4E7005BD80D780C3EF8BF0A4AC1D
:10033600F0EE8BF0A42CFCE435F0F8EF8AF0A42C58
:10034600E5F038FCE433CB8DF0A42CFCE5F03BF86B
:10035600EE8AF0A42CFCE5F038F8E433CF89F0A45B
:100366002CFCE5F038CF3400CE89F0A42FFFE5F061
:100376003EFEE433C98DF0A42EFEE5F039CD8AF0B9
:10038600A42FFFE5F03EFEE43DFD33D0E0FB500731
:100396000BBB000F02029BEC2CFCEF33FFEE33FE8F
:0603A600ED33FD020273BD
:1003AC00C0E0EFFBEEFAEDF9ECF81202A6D0E0F5A6
:1003BC00F0EFFBEEFAEDF9ECF812053CA3A3A3A3C6
:1003CC00E8C0E0E9C0E0EAC0E0EBC0E0C0F0120237
:1003DC00A612054CA3A3A3A312008DD0F0D0E0FB72
:0D03EC00D0E0FAD0E0F9D0E0F8D5F0D4224E
:03000000021530B6
:0C153000787FE4F6D8FD75817502157710
:1003F900EF8DF0A4A8F0CF8CF0A428CE8DF0A42E18
:02040900FE22D1
:10040B00BC000BBE0029EF8DF084FFADF022E4CCD5
:10041B00F875F008EF2FFFEE33FEEC33FCEE9DEC9E
:10042B00984005FCEE9DFE0FD5F0E9E4CEFD22EDE4
:10043B00F8F5F0EE8420D21CFEADF075F008EF2F2E
:10044B00FFED33FD4007985006D5F0F222C398FD1F
:05045B000FD5F0EA22BC
:1004600075F008758200EF2FFFEE33FECD33CDCC53
:1004700033CCC58233C5829BED9AEC99E5829840D6
:100480000CF582EE9BFEED9AFDEC99FC0FD5F0D6B3
:10049000E4CEFBE4CDFAE4CCF9A88222B800C1B9DD
:1004A0000059BA002DEC8BF084CFCECDFCE5F0CB1B
:1004B000F97818EF2FFFEE33FEED33FDEC33FCEB54
:1004C00033FB10D703994004EB99FB0FD8E5E4F90F
:1004D000FA227818EF2FFFEE33FEED33FDEC33FCFC
:1004E000C933C910D7059BE99A4007EC9BFCE99AF0
:1004F000F90FD8E0E4C9FAE4CCFB2275F010EF2F35
:10050000FFEE33FEED33FDCC33CCC833C810D70734
:100510009BEC9AE899400AED9BFDEC9AFCE899F86F
:0E0520000FD5F0DAE4CDFBE4CCFAE4C8F92202
:0E052E00C3E49FFFE49EFEE49DFDE49CFC22DE
:10053C00E493FC740193FD740293FE740393FF2205
:10054C00E493F8740193F9740293FA740393FB2205
:0C055C00ECF0A3EDF0A3EEF0A3EFF02212
:10153C000217D5E493A3F8E493A34003F68001F2D9
:10154C0008DFF48029E493A3F85407240CC8C333B0
:10155C00C4540F4420C8834004F456800146F6DF7F
:10156C00E4800B0102040810204080900568E47EA2
:10157C00019360BCA3FF543F30E509541FFEE49374
:10158C00A360010ECF54C025E060A840B8E493A33B
:10159C00FAE493A3F8E493A3C8C582C8CAC583CA66
:1015AC00F0A3C8C582C8CAC583CADFE9DEE780BE1E
:0108560000A1
:00000001FF
