:0415B10075FB3F2265
:1013FD0053B1F443B20B53B3F843B40775DE3F75E5
:10140D00DF5175FB3FE4F5FCF5D6F5D775D9FFF542
:10141D00D1F5DCF5D4F5DAF5D275C7AA75C75575D2
:10142D009101F5CCF5C475C7AA75C755F59175C76A
:10143D00AA75C75575F90775C7AA75C75575FA0603
:06144D0075D8C00215B1C4
:07043900C18AC189016D00B9
:07000300A20F920A8F6C228C
:03005800A20A22D7
:10156600C0D0A2959206A2939207A2949208D0D0D8
:011576002252
:10000E0053B3C753B4C775C7AA75C7557591014386
:10001E00B31875C7AA75C755E4F591D295D293D288
:02002E0094221A
:1012DD00C0D075D018309533A293300901B3501991
:1012ED0030940B300B047F0580527F03804E300B02
:1012FD00047F0480477F0280433094047F00803C4C
:10130D00300B047F0380357F018031A293300901BA
:10131D00B3501230940B300B047F06801F7F048076
:10132D001B7F00801730940B300B047F01800D7FE5
:0F133D00058009300B047F0280027F06D0D0228A
:100E8700C0D075D018E56D6F7003020F95C2AFEF34
:100E970024FE603C14605014606C147003020F2C25
:100EA700147003020F4B24056003020F6B75FB30B0
:100EB700856CDAE4F5DC43D84075C7AA75C7557564
:100EC700910175B71075C7AA75C755F591020F6BD4
:100ED70075FB0C856CDA75C7AA75C755759101E462
:100EE700F5CC75B710801575FB03856CDC75C7AA43
:100EF70075C755759101E4F5CC75B71275C7AA7515
:100F0700C755F591805B75FB30856CDC75C7AA7595
:100F1700C75575910175B71275C7AA75C755E4F519
:100F270091F5DA803C75FB0C75C7AA75C7557591A5
:100F370001856CCC75B71475C7AA75C755E4F591CB
:100F4700F5DA801D75FB0375C7AA75C7557591013D
:100F5700856CCC75B71475C7AA75C755E4F591F5B7
:100F6700DC43D84053E8CFEFFD7C006401601BED04
:100F7700640270028014ED64034C6006ED64044C57
:100F8700700543E810800343E820D2AF8F6DD0D0BF
:010F97002237
:10044000023B00001229000200000101010000012E
:0804500002010201000200019B
:050053008E238F242222
:05005E008E258F262213
:050066008E278F282207
:10152200C0D075D00875E10153E8F01FED64017079
:1015320009EF75F003A424298007EF75F003A424B2
:101542002AF8E6240342E8E4F5E3F5E243E840D072
:02155200D022A5
:070F9800C0D075D008AD0FB9
:100F9F00C20D1DED75F003A42429F8E625E02423E6
:100FAF00F8E6F53B08E6F53CED75F003A4242BF8C5
:100FBF00E6603EE53BC313FEE53C13FFED75F00322
:100FCF00A4242AF8E625E02423F8E6FA08E6FBC372
:100FDF009FEA9E50028001C3920DAE3BE53C780222
:100FEF00CEC313CE13D8F9FFC3EB9FEA9E504B80AD
:100FFF0046E53BC313FEE53C13FFED75F003A42458
:10100F002AF8E625E02423F8E6FA08E6FBD39FEA60
:10101F009E4003D38001C3920DAE3BE53C7802CED8
:10102F00C313CE13D8F9FFC3E53C9FFFE53B9EFEEC
:10103F00D3EB9FEA9E4003E4F53F200D0DD3E53F30
:10104F009402748094805002053F300D18AF3FC357
:10105F00EF940274809480400CD3EF9404748094C6
:10106F00805002053FED75F003A4242AF8E6FF65D2
:10107F003E6003E4F53F8F3EEF25E02423F808E6BA
:10108F00F53DC3E53F9404748094804007300D0410
:06109F007F0180027F00CA
:0310A500D0D02286
:0A00300043B17053B28F43F63E2235
:10045800C103C185C104C181C182014100014EBDF2
:1004680001560A0157D7014001014601014702829E
:10047800161770820B000081150082020000811C93
:10048800000242000002530000014F0041021F0019
:10049800821300000145008206000002500000811E
:1004A8000800014400015200015500C1000648003F
:0504B800010200010536
:01000A0022D3
:10145300E4F58975C969439210F59375941075F194
:101463000875CBFF75CBFE439C02758D70758B247D
:10147300439B0443C804438901758AAB758C2FC20F
:101483008DD28CD2A975E9FD43EA7843EB3843B793
:101493004043EF8043F78043FE0243FF02439B0236
:0314A300D2AF22A3
:02006E008F6F92
:10007000A20E920F120003AF6F1214A6A20E9205E9
:01008000225D
:03003B0002134C61
:10134C00C0E0C0F0C083C082C0D075D018E5EC54AA
:10135C0038601A75EC00C2AF120058EE4F24FF92A1
:10136C000B1212DD7808EFF2120E87D2AFE5EC30DB
:10137C00E61953ECB0C37814E294FF18E2940050D1
:10138C000A08E22401F218E23400F275EC00D0D025
:09139C00D082D083D0F0D0E03201
:03000B000213A538
:1013A500C0E0C083C082C0D075D000C000C007C2F5
:1013B5008CC28D758AAB758C2F7813E4F208744056
:1013C500F290021FE0C39440E494005003E004F05F
:1013D50090021FE0FFC37814E29F18E294005003C7
:1013E500E014F07813E4F208F2D28CD007D000D0E4
:0813F500D0D082D083D0E03299
:0510A800C0D075D00866
:1010AD00AEC9EE24B7605024F0602824F0706AAE0B
:1010BD00E5EEC394017480948050047F02805AAE93
:1010CD00E5EEC394047480948050047F01804AE45B
:1010DD00FF8046AEE5EEC394027480948050047F89
:1010ED00028036AEE5EEC394067480948050047F82
:1010FD00018026E4FF8022AEE5EEC3940474809453
:10110D008050047F028012AEE5EEC3940C7480947F
:10111D008050047F018002E4FF854640EF14600D8E
:10112D00146012800075C969754601800E75C95924
:0B113D00754602800675C9497546041E
:03114800D0D022E2
:0415B500439B08222A
:0F15980053C4E7EFF4F5C5EEF4F5C643C40822DB
:10003E0053C4E753C4F843C404EFF4F5C5EEF4F526
:05004E00C643C40822B6
:030063000206CBC7
:0706CB00C0E0C0D075D0189B
:1006D200C20C5392FE7818E2FF08E208CFF208EF4C
:1006E200F2AFE5EFFEADE47C00E42D7819F2EC3ECA
:1006F20018F22004030208F93005087553008557E3
:10070200548006755300854E54780FE2FF08E208C4
:10071200CFF208EFF2780DE2FF08E208CFF208EF1D
:10072200F27809E2FF08E2780DCFF208EFF27818CA
:10073200E2FE08E2FF7809EEF208EFF2D3E5459413
:100742000F748094804003754500ADC9ED24976015
:100752001024107021EF25E07919F3EE3319F3809C
:10076200157818E2FE08E27802C333CE33CED8F908
:100772007919F3EE19F3780FE2FE08E2FF08E2FCC2
:1007820008E2FDD39FEC9E4013ED9FFFEC9EFED34B
:10079200EF94C8EE94004020D20C801C7811E2FE47
:1007A20008E2FFC37810E29FFF18E29EFED3EF94A7
:1007B200C8EE94004002D20C780DE2FE08E2FF0877
:1007C200E2FC08E2FDD39FEC9E4013ED9FFFEC9EFE
:1007D200FED3EF94C8EE94004020D20C801C780F18
:1007E200E2FE08E2FFC3780EE29FFF18E29EFED30C
:1007F200EF94C8EE94004002D20C7809E2FE08E2BF
:10080200FF780DE2FC08E2FDD39FEC9E4013ED9FC2
:10081200FFEC9EFED3EF94C8EE94004020D20C80F1
:100822001C780DE2FE08E2FFC3780AE29FFF18E29D
:100832009EFED3EF94C8EE94004002D20C300C0816
:100842007809E2FE08E2802C780DE2FE08E2FF78E9
:100852000AE22FFF18E23EFE7810E22FFF18E23E76
:10086200FE7812E22FFF18E23EFEEF7802CEC313AB
:10087200CE13D8F9FF1215981210A87816E2FE08C6
:10088200E2FFD37819E29F18E29E5065781AE2FCE3
:1008920008E2FDAE1CA847088005CEC313CE13D8CC
:1008A200F9FFC3ED9FFFEC9EFEC37819E29F18E2A9
:1008B2009E403E781AE2FC08E2FDAE1CA847088082
:1008C20005CEC313CE13D8F92DFFEC3EFED3781913
:1008D200E29F18E29E501A7815E2C3940474809441
:1008E200804007300411D203800D7815E204F280B3
:0708F200067815E4F2C203D1
:0508F900D0D0D0E03278
:03008300021267FF
:10126700C0E0C0F0C083C082C0D075D01053C4EFB7
:1012770030010353C4E7300452C374FF9540FFE4C1
:101287009400FEC3E5549FE5539E500DE540255459
:10129700F554E43553F5538013755300755400C363
:1012A700E54594FF74809480500205458553428537
:1012B700544330031630050CC374FF9543F543E4DC
:1012C7009542F542AF43AE42120AFED0D0D082D04B
:0612D70083D0F0D0E032EC
:03006B000215B9C2
:0315B900C2DD325E
:101554008F6F53E8F043E80175E10775E30575E221
:02156400202243
:03005B00020D6C27
:0D0D6C00C0E0C0F0C083C082C0D075D008C8
:100D7900C2EFE5E85407FF24FE60251460391460CA
:100D89004C14605F2404706FAFC3EF75F010A4AE0C
:100D9900F0ADC27C002DF551EC3EF550D2008057E4
:100DA900AFC3EF75F010A4AEF0ADC27C002D78078B
:100DB900F2EC3E18F28040AFC3EF75F010A4ADC25B
:100DC9007C002DFFEC35F0FE120053802AAFC3EFF3
:100DD90075F010A4ADC27C002DFFEC35F0FE1200B9
:100DE9005E8014AFC3EF75F010A4ADC27C002DFF77
:100DF900EC35F0FE120066C2873000427448254483
:100E0900F8E614601314601B24FD601C2405702A85
:100E19007808E2FF7D0180067808E2FF7D0212155D
:100E290022801753E8F0800653E8F043E80275E1A1
:100E39000175E30075E20043E840C20080217808AB
:100E4900E2FF121554D287E2FF120F98EF6010E506
:100E5900C45408700A7818E2FE08E2FF12003ED274
:100E690087C3E544940574809480400575440080E7
:030E79000205442B
:0B0E7C00D0D0D082D083D0F0D0E03284
:0A15A700AD07AC068CCFEDF5CE22A7
:101577007FFF7E0F1215A77808E2FF121554D2AE2F
:011587002241
:1014EE001213FD12000E120030121577D20E7FB4B9
:1014FE0012006E12145353B17F43B28053B3B053E4
:10150E00B4B0D287E4FFFE0FBF00010EEF64FE4EB3
:04151E0070F580F0F4
:10158800461C4000439513334576E0004388933367
:0504BD0042021D0000D9
:10114B00E412021E9015881204291201818F678EFA
:10115B00668D658C64120C6B8F678E668D658C64E7
:10116B009015901204291201818F678E668D658C04
:10117B0064AB67AA66A965A864C000C001C002C0C1
:10118B000390158C120429E4FFFE7D807C3F120135
:10119B0081D003D002D001D00012008D8F678E66F4
:1011AB008D658C64AB67AA66A965A864E4FFFE7DB8
:1011BB00807C3F1201818F678E668D658C649015E4
:0F11CB00941204291200898F678E668D658C64DB
:0111DA0022F2
:1008FE0000060C13191F252B32383E444A50565C05
:10090E0061676D72787D83888D92979CA1A6ABAF3F
:10091E00B4B8BCC0C5C8CCD0D3D7DADBD8D4D1CD0F
:10092E00C9C5C1BDB9B5B0ACA7A29E99948E898434
:10093E007F79746E68635D57514B453F39332D2770
:10094E00211A140E0801050B11171E242A30363CED
:10095E0042484E545A60666B71777C81878C9196B3
:10096E009BA0A5AAAEB3B7BBC0C4C7CBCFD3D6D9B5
:10097E00DCD8D5D2CECAC6C2BEBAB6B1ADA8A49F77
:10098E009A95908B85807A756F6A645E58534D4741
:10099E00413B352E28221C160F0903030A10161C84
:1009AE0022292F353B41474D53595F646A70757B41
:1009BE0080868B90959A9FA4A9ADB2B6BABFC3C7D5
:1009CE00CACED2D5D8DCD9D6D2CFCBC7C3BFBBB750
:1009DE00B2AEA9A5A09B96918C86817C76716B6533
:1009EE00605A544E48423C36302A241D17110B04CF
:1009FE00DCDFE2E5E7EAECEEF1F2F4F6F7F9FAFB0A
:100A0E00FCFDFDFEFEFEFEFEFDFDFCFCFBF9F8F717
:100A1E00F5F4F2F0EEEBE9E6E4E1DEDDE0E3E6E844
:100A2E00EBEDEFF1F3F5F6F8F9FAFBFCFDFDFEFE4A
:100A3E00FEFEFEFDFDFCFBFAF9F8F6F5F3F1EFED27
:100A4E00EAE8E5E3E0DDDEE1E4E7E9ECEEF0F2F41E
:100A5E00F6F7F8FAFBFCFCFDFEFEFEFEFEFEFDFCCC
:100A6E00FCFBFAF9F7F6F4F2F0EEECEAE7E4E2DF7B
:100A7E00DCDFE2E5E8EAEDEFF1F3F5F6F8F9FAFB83
:100A8E00FCFDFDFEFEFEFEFEFDFDFCFBFAF9F8F799
:100A9E00F5F3F1EFEDEBE9E6E3E0DDDEE1E3E6E9C8
:100AAE00EBEDF0F2F3F5F7F8F9FAFBFCFDFDFEFEC7
:100ABE00FEFEFEFDFDFCFBFAF9F8F6F4F3F1EFECA9
:100ACE00EAE8E5E2DFDCDFE2E4E7EAECEEF0F2F49E
:100ADE00F6F7F9FAFBFCFDFDFEFEFEFEFEFDFDFC4B
:100AEE00FCFBFAF8F7F5F4F2F0EEECE9E7E4E1DE00
:1004C2006100001D00060C13191F252B32383E4413
:1004D2004A50565C61676D72787D83888D92979CD5
:1004E200A1A6ABAFB4B8BCC0C5C8CCD0D3D7DADBF9
:1004F200D8D4D1CDC9C5C1BDB9B5B0ACA7A29E995A
:10050200948E89847F79746E68635D57514B453F41
:1005120039332D27211A140E0801050B11171E2439
:100522002A30363C42484E545A60666B71777C8161
:10053200878C91969BA0A5AAAEB3B7BBC0C4C7CB0C
:10054200CFD3D6D9DCD8D5D2CECAC6C2BEBAB6B1FE
:10055200ADA8A49F9A95908B85807A756F6A645E28
:1005620058534D47413B352E28221C160F090303D1
:100572000A10161C22292F353B41474D53595F64FF
:100582006A70757B80868B90959A9FA4A9ADB2B64E
:10059200BABFC3C7CACED2D5D8DCD9D6D2CFCBC781
:1005A200C3BFBBB7B2AEA9A5A09B96918C86817C36
:1005B20076716B65605A544E48423C36302A241D8F
:1005C20017110B046100011DDCDFE2E5E7EAECEE46
:1005D200F1F2F4F6F7F9FAFBFCFDFDFEFEFEFEFE7B
:1005E200FDFDFCFCFBF9F8F7F5F4F2F0EEEBE9E6C1
:1005F200E4E1DEDDE0E3E6E8EBEDEFF1F3F5F6F85A
:10060200F9FAFBFCFDFDFEFEFEFEFEFDFDFCFBFA23
:10061200F9F8F6F5F3F1EFEDEAE8E5E3E0DDDEE126
:10062200E4E7E9ECEEF0F2F4F6F7F8FAFBFCFCFD95
:10063200FEFEFEFEFEFEFDFCFCFBFAF9F7F6F4F20E
:10064200F0EEECEAE7E4E2DFDCDFE2E5E8EAEDEF38
:10065200F1F3F5F6F8F9FAFBFCFDFDFEFEFEFEFEF7
:10066200FDFDFCFBFAF9F8F7F5F3F1EFEDEBE9E646
:10067200E3E0DDDEE1E3E6E9EBEDF0F2F3F5F7F8D6
:10068200F9FAFBFCFDFDFEFEFEFEFEFDFDFCFBFAA3
:10069200F9F8F6F4F3F1EFECEAE8E5E2DFDCDFE2A9
:1006A200E4E7EAECEEF0F2F4F6F7F9FAFBFCFDFD12
:1006B200FEFEFEFEFEFDFDFCFCFBFAF8F7F5F4F291
:0806C200F0EEECE9E7E4E1DEF3
:0214A600AB0792
:1014A800E4FAEAC394FF748094805039EA9008FE05
:1014B80093FF7E00EBFD7C001203F9EEFF741D2AFA
:1014C800F582E43400F583EFF0EA9009FE93FF7E9D
:1014D800001203F9EEFF741D2AF582E43401F58346
:0514E800EFF00A80BDD9
:0114ED0022DC
:100AFE00C0D075D010AD17741D2DF582E43400F5FD
:100B0E0083E0755800F559741D2DF582E43401F516
:100B1E0083E0755A00F55BC374FF955BFFE4955A4D
:100B2E00C313F55EEF13F55F855E62F5632559F528
:100B3E0061E55E3558F560E55F255BF55DE55E3593
:100B4E005AF55CC2AFEDFF7E00C3942B7480948087
:100B5E00501B75C7AA75C755759101855FCC75C7B2
:100B6E00AA75C755E4F5918561DC020C26C3EF9496
:100B7E0055EE64809480501A75C7AA75C755759145
:100B8E0001855FCC75C7AA75C755E4F5918561DA05
:100B9E008023C3EF9480EE64809480501D855FDACD
:100BAE0075C7AA75C7557591018561CC75C7AA75AC
:100BBE00C755E4F591855DDC8061C3EF94ABEE64BF
:100BCE008094805008855FDA8561DC8011C3EF94D4
:100BDE00D5EE64809480501D855FDC8561DA75C723
:100BEE00AA75C755759101855DCC75C7AA75C75590
:100BFE00E4F5918026C3EF94FFEE64809480501B41
:100C0E00855FDC75C7AA75C7557591018561CC7571
:100C1E00C7AA75C755E4F591855DDAE4F5FB43DFA8
:090C2E001043D840D2AFD0D0220F
:10008600020291E86480F8E933E83360110460F015
:10009600ED33EC337009E8FCE9FDEAFEEBFF2204E0
:1000A60060DED3EB9FEA9EE99DE8C2E78CF0C2F7DB
:1000B60095F0400CE8CCF8E9CDF9EACEFAEBCFFBA7
:1000C60012025C85D0F05804700320D5B3E80470A2
:1000D600075002B2D502029B92D5EC0460F7E4CC3D
:1000E600C0E0C398F8603B94186008400DD0E0FB70
:1000F600020273E4FBFAC9FC8028E830E406E4C98E
:10010600FBE4CAFCE830E305E4C9CACBFCE85407C3
:100116006010F8C3E913F9EA13FAEB13FBEC13FCCE
:10012600D8F130F52FC3E49CFCEF9BFFEE9AFEED71
:1001360099FDD0E0FBEF4E4D4C701222DB0302021C
:1001460098EC2CFCEF33FFEE33FEED33FDED30E79C
:10015600EB020273EF2BFFEE3AFEED39FDD0E0FB2A
:1001660050130BBB000302029BED13FDEE13FEEFD3
:0801760013FFEC13FC020273FD
:10017E0002029BEC5D046005E859047003020291D3
:10018E0012025C580460F6EC4860F2EC7004FDFE5E
:10019E00FF22C860DB2481C85009C3986002500654
:1001AE000202989850CAF582E9294B4A7005AB8233
:1001BE0002028775F0007C1A7880C3EF9BEE9AEDF1
:1001CE0099400DC3EF9BFFEE9AFEED99FDE842F0CC
:1001DE00DC23ACF0D0E0FFD0E0FED0E0FDAB82201F
:1001EE00E7101BEB60BAEC2CFCEF33FFEE33FEEDA9
:1001FE0033FD020273E803F830E705C0F075F00036
:10020E00EF2FFFEE33FEED33FD40B830E7C280AA8C
:10021E0075F020800E75F010800575F0087D007E5B
:10022E00007F003392D530D50312040BEC3340100F
:10023E00EF33FFEE33FEED33FDEC33FCD5F0ED2264
:0E024E00E5F0247EA2D513CC92E7CDCEFF22A0
:100C37003E9248DA3ECCCCCD3F2AAAAB400000001A
:100C47003F8000003F9837F03FB504F33FD744FC9F
:100C57003E3172173EB172173F0515913EDE5BD9E3
:100C6700D2148002C214EDD2E7F8CD33EC3304700E
:100C77000BBD800592D502029B02029140FBD31463
:100C870060F2F5F07C3FEE7A00C39496C8948B40EF
:100C9700230AC89469C8941A401A0AC89468C89461
:100CA7001F40110AC8945AC89425400805F07A00D5
:100CB700CDC2E7CDC0F08C688D698E6A8F6BEA2351
:100CC70023C0E02447F582E4340CF583120429128B
:100CD700008DECC0E0EDC0E0EEC0E0EFC0E0120434
:100CE70019A868A969AA6AAB6B120089D0E0FBD082
:100CF700E0FAD0E0F9D0E0B2E7F81201818C688D14
:100D0700698E6A8F6B900C3774031203ACA868A9BD
:100D170069AA6AAB6B1202A6D0E0600F2453F58272
:100D2700E4340CF58312042912008D8C688D698ECA
:100D37006A8F6BD0E0C3947FFDE49400FC1202231A
:100D47007B187A727931783F1202A6A868A969AA36
:100D57006AAB6B12008D30140B7BD97A5B79DE7826
:050D67003E1202A6226D
:10025C00E9D2E7C933E833F892D5EDD2E7CD33ECE8
:07026C0033FC5002B2D52261
:10027300EC30E7100FBF000C0EBE00080DBD0004EC
:100283000BEB6014A2D5EB13FCED92E7FD2274FF98
:10029300FCFDFEFF22E480F8A2D574FF13FC7D80F1
:0302A300E480EF05
:1002A600EC4D6011E8497017ED33EC3304600DE452
:1002B600FCFFFEFD22E933E8330470F802029112D6
:1002C600025C58046009E4CC2481500628500902D7
:1002D600029B284003020298C0E0EB4A7044B980B2
:1002E60006D0E0FB020287EF4E701CBD8008EBFFD4
:1002F600EAFEE9FD80EBE98DF0A4FEE5F002038F4E
:10030600E9CDF9EAFEEBFFEF89F0A4FCE5F0CE8932
:10031600F0A42EFFE435F0CD89F0A42DFEE435F0EF
:100326008067EF4E7005BD80D780C3EF8BF0A4AC1D
:10033600F0EE8BF0A42CFCE435F0F8EF8AF0A42C58
:10034600E5F038FCE433CB8DF0A42CFCE5F03BF86B
:10035600EE8AF0A42CFCE5F038F8E433CF89F0A45B
:100366002CFCE5F038CF3400CE89F0A42FFFE5F061
:100376003EFEE433C98DF0A42EFEE5F039CD8AF0B9
:10038600A42FFFE5F03EFEE43DFD33D0E0FB500731
:100396000BBB000F02029BEC2CFCEF33FFEE33FE8F
:0603A600ED33FD020273BD
:1003AC00C0E0EFFBEEFAEDF9ECF81202A6D0E0F5A6
:1003BC00F0EFFBEEFAEDF9ECF8120419A3A3A3A3EA
:1003CC00E8C0E0E9C0E0EAC0E0EBC0E0C0F0120237
:1003DC00A6120429A3A3A3A312008DD0F0D0E0FB96
:0D03EC00D0E0FAD0E0F9D0E0F8D5F0D4224E
:030000000211DB0F
:0C11DB00787FE4F6D8FD75816F021222C7
:1003F900EF8DF0A4A8F0CF8CF0A428CE8DF0A42E18
:02040900FE22D1
:0E040B00C3E49FFFE49EFEE49DFDE49CFC2202
:10041900E493FC740193FD740293FE740393FF2229
:10042900E493F8740193F9740293FA740393FB2229
:1011E7000214EEE493A3F8E493A34003F68001F21C
:1011F70008DFF48029E493A3F85407240CC8C33309
:10120700C4540F4420C8834004F456800146F6DFD7
:10121700E4800B0102040810204080900439E47E2A
:10122700019360BCA3FF543F30E509541FFEE493CC
:10123700A360010ECF54C025E060A840B8E493A393
:10124700FAE493A3F8E493A3C8C582C8CAC583CABE
:10125700F0A3C8C582C8CAC583CADFE9DEE780BE76
:0106CA00002F
:00000001FF
