:0400370075FB3F22F4
:1014BA0053B1F443B20B53B3F843B40775DE3F7527
:1014CA00DF5175FB3FE4F5FCF5D6F5D775D9FFF585
:1014DA00D1F5DCF5D4F5DAF5D275C7AA75C7557515
:1014EA009101F5CCF5C475C7AA75C755F59175C7AD
:1014FA00AA75C75575F90775C7AA75C75575FA0646
:06150A0075D8C002003795
:0704A700C18AC189016D004B
:07000300A205920A8F6C2296
:0316F000A20A2229
:10002600C0D0A2959206A2939207A2949208D0D02D
:0100360022A7
:1016740053B3C753B4C775C7AA75C755759101430A
:10168400B31875C7AA75C755E4F591D295D293D20C
:0216940094229E
:10138600C0D075D008309533A293300901B35019F7
:1013960030940B3001047F0580527F03804E30016C
:1013A600047F0480477F0280433094047F00803CA2
:1013B6003001047F0380357F018031A2933009011B
:1013C600B3501230940B3001047F06801F7F0480D7
:1013D6001B7F00801730940B3001047F01800D7F46
:0F13E6000580093001047F0280027F06D0D022EB
:100F2600C0D075D008E56D6F7003021034C2AFEF04
:100F360024FE603C14605014606C147003020FCBE6
:100F4600147003020FEA2405600302100A75FB30D1
:100F5600856CDAE4F5DC43D84075C7AA75C75575C4
:100F6600910175B71075C7AA75C755F59102100A94
:100F760075FB0C856CDA75C7AA75C755759101E4C2
:100F8600F5CC75B710801575FB03856CDC75C7AAA3
:100F960075C755759101E4F5CC75B71275C7AA7575
:100FA600C755F591805B75FB30856CDC75C7AA75F6
:100FB600C75575910175B71275C7AA75C755E4F57A
:100FC60091F5DA803C75FB0C75C7AA75C755759106
:100FD60001856CCC75B71475C7AA75C755E4F5912C
:100FE600F5DA801D75FB0375C7AA75C7557591019E
:100FF600856CCC75B71475C7AA75C755E4F591F518
:10100600DC43D84053E8CFEFFD7C006401601BED64
:10101600640270028014ED64034C6006ED64044CB7
:10102600700543E810800343E820D2AF8F6DD0D01F
:011036002297
:0404AE0002600000E8
:050054008E5A8F5B22B3
:05005E008E5C8F5D22A5
:050066008E5E8F5F2299
:1015C700C0D075E101EF24FE600F1460142402708F
:1015D7001653E8F043E803800E53E8F043E804802D
:1015E7000653E8F043E805E4F5E3F5E243E840D0C5
:0215F700D02200
:050B4D00C0D075D018B6
:100B5200C202C203E4F565F566F567EF24FE602F75
:100B620014604814605B146074147003020BF72461
:100B7200056003020C18ED24FE600C14600B2402C5
:100B82006003020C18807E80787C02C2038014ED20
:100B920024FE60091460082402707B8068804C7C0B
:100BA20001D203855A60855B61806BED24FE60098A
:100BB2001460082402705F8032804AE4FCC2038021
:100BC20014ED24FE600914600824027049801C8020
:100BD200307C02D203855C60855D618039ED24FE44
:100BE200600914600A2402702D80167F0280187C2E
:100BF20001C203801BED24FE600B14600F240270FF
:100C0200157F0380027F011215C7800AE4FCD2031C
:100C1200855E60855F61ED64036003020CB530039D
:100C220020E560C313FEE56113FFEC25E0245AF8CA
:100C3200E6FA08E6C39FEA9E50028001C392028050
:100C42001FE560C313FEE56113FFEC25E0245AF8AB
:100C5200E6FA08E6D39FEA9E4003D38001C39202DC
:100C620020020DD3E56494027480948050020564DE
:100C7200300218AF64C3EF940274809480400CD3A6
:100C8200EF94047480948050020564E5636C600301
:100C9200E4F5648C63EC25E0245AF808E6F562C3B7
:100CA200E5649404748094804006300203D380018A
:030CB200C3928763
:030CB500D0D0227A
:0A16D20043B17053B28F43F63E227D
:0A16E60030313233343536373839ED
:1004B200C10DC18FC10E0132BD013C0A013DD70100
:1004C200230101280101290282161770820B000004
:1004D20081150082020000811C0002240000023902
:1004E200000001330041021F0082130000012700B7
:1004F2008206000002360000810800012600013851
:1005020000013B00C10B082A00010602000106059A
:0300230002162A98
:10162A00C0E0C0D075D008309904C299C20C309875
:10163A000FC298AF350535743E2FF8A69953350F6A
:05164A00D0D0D0E03219
:01000A0022D3
:101696007E00CFCDCFCECCCE12042474E62FF582B9
:0816A60074163EF583E493FF86
:0816AE00200CFDD20C8F9922E3
:10164F008B698A6A896BAB69AA6AA96B1203F96005
:10165F0013056BE56B7002056A14F91203F9FF129B
:05166F0016AE80E2222E
:10155800AB07AA067C037DE81204247F6412169662
:101568007C007D64AF03AE021204247F0A12169633
:10157800AE02AF037C007D0A12042474E62DF582C6
:0B15880074163CF583E493FF0216AEDE
:1013F500E4F58975C969439210F59375941075F1F3
:101405000875CBFF75CBFEF5C575C6F0439C025339
:10141500C4EF43C408758D70758B24439B0443C882
:101425000443F70453EFFB43EF8053F77F438901F0
:10143500758AAB758C2FC28DD28CD2A975E9FD4307
:10144500EA5843EB3843B84043B740439B0243F760
:0D1455008043EF8043EF2643FF02D2AF2219
:02000E008F68F9
:10001000A2049205120003AF68121510A204920FF9
:0100200022BD
:03003B000215F9B2
:1015F900C0E0C0D075D000C000E5EC30E61953EC6E
:10160900B0C37814E294FF18E29400500A08E22467
:1016190001F218E23400F275EC00D000D0D0D0E02D
:01162900328E
:03000B000214627A
:10146200C0E0C083C082C0D075D000C000C007C237
:101472008CC28D758AAB758C2F7813E4F208744098
:10148200F290021FE0C39440E494005003E004F0A1
:1014920090021FE0FFC37814E29F18E29400500309
:1014A200E014F07813E4F208F2D28CD007D000D026
:0814B200D0D082D083D0E032DB
:05114500C0D075D008C8
:10114A00AEC9EE24B7605024F0602824F0706AAE6D
:10115A00E5EEC394017480948050047F02805AAEF5
:10116A00E5EEC394047480948050047F01804AE4BD
:10117A00FF8046AEE5EEC394027480948050047FEB
:10118A00028036AEE5EEC394067480948050047FE4
:10119A00018026E4FF8022AEE5EEC39404748094B5
:1011AA008050047F028012AEE5EEC3940C748094E2
:1011BA008050047F018002E4FF852823EF14600D2C
:1011CA00146012800075C969752801800E75C959A5
:0B11DA00752802800675C949752804BD
:0311E500D0D02245
:04007E00439B082276
:0F16B60053C4E7EFF4F5C5EEF4F5C643C40822BC
:0300630002072071
:07072000C0E0C0D075D01845
:10072700C2005392FE300F08753900853D3A8006A6
:1007370075390085323A7818E2FF08E208CFF208E7
:10074700EFF2AFE5EFFEADE47C00E42D7819F2ECB3
:100757003E18F2780FE2FF08E208CFF208EFF278CE
:100767000DE2FF08E208CFF208EFF27809E2FF088E
:10077700E2780DCFF208EFF27818E2FE08E2FF7890
:1007870009EEF208EFF2D3E527940F7480948040C6
:1007970003752700ADC9ED2497601024107021EF71
:1007A70025E07919F3EE3319F380157818E2FE087E
:1007B700E27802C333CE33CED8F97919F3EE19F3C1
:1007C700780FE2FE08E2FF08E2FC08E2FDD39FECA7
:1007D7009E4013ED9FFFEC9EFED3EF94C8EE94006E
:1007E7004020D200801C7811E2FE08E2FFC3781097
:1007F700E29FFF18E29EFED3EF94C8EE94004002FA
:10080700D200780DE2FE08E2FF08E2FC08E2FDD321
:100817009FEC9E4013ED9FFFEC9EFED3EF94C8EE36
:1008270094004020D200801C780FE2FE08E2FFC34C
:10083700780EE29FFF18E29EFED3EF94C8EE940075
:100847004002D2007809E2FE08E2FF780DE2FC08D8
:10085700E2FDD39FEC9E4013ED9FFFEC9EFED3EF8E
:1008670094C8EE94004020D200801C780DE2FE0868
:10087700E2FFC3780AE29FFF18E29EFED3EF94C817
:10088700EE94004002D2003000087809E2FE08E248
:10089700802C780DE2FE08E2FF780AE22FFF18E2CB
:1008A7003EFE7810E22FFF18E23EFE7812E22FFF9D
:1008B70018E23EFEEF7802CEC313CE13D8F9FF122B
:1008C70016B61211457816E2FE08E2FFD37819E250
:1008D7009F18E29E5065781AE2FC08E2FDAE1CA85C
:1008E70029088005CEC313CE13D8F9FFC3ED9FFFA8
:1008F700EC9EFEC37819E29F18E29E403E781AE20A
:10090700FC08E2FDAE1CA829088005CEC313CE1350
:10091700D8F92DFFEC3EFED37819E29F18E29E50DE
:100927001A7815E2C39404748094804007300E113E
:10093700D20D800D7815E204F280067815E4F2C234
:010947000DA2
:05094800D0D0D0E03228
:0300830002130461
:10130400C0E0C0F0C083C082C0D075D00853C4EF21
:10131400C374FF9523FFE49400FEC3E53A9FE539C7
:101324009E500DE523253AF53AE43539F539801315
:10133400753900753A00C3E52794FF748094805092
:10134400020527853924853A25300D18300F0CC342
:1013540074FF9525F525E49524F524AF25AE2412D4
:101364000CB880131216F0EE4F24FF92011213866C
:101374007808EFF2120F26D0D0D082D083D0F0D0EC
:02138400E03255
:03006B000216F387
:0316F300C2DD3223
:04003E007808E2FF5D
:100042008F6853E8F043E80175E10775E30575E24F
:0200520020226A
:03005B0002103759
:0D103700C0E0C0F0C083C082C0D075D018EA
:10104400C2EFE5E85407FF24FE60251460391460FC
:101054004C14605F2404706FAFC3EF75F010A4AE3E
:10106400F0ADC27C002DF537EC3EF536D20B80573F
:10107400AFC3EF75F010A4AEF0ADC27C002D7807BD
:10108400F2EC3E18F28040AFC3EF75F010A4ADC28D
:101094007C002DFFEC35F0FE120054802AAFC3EF24
:1010A40075F010A4ADC27C002DFFEC35F0FE1200EB
:1010B4005E8014AFC3EF75F010A4ADC27C002DFFA9
:1010C400EC35F0FE120066C2AF300B53742A2526AD
:1010D400F8E614601614602C24FD602D146020249E
:1010E4000670387808E2FF7D01800F7808E2FF7D02
:1010F40002120B4D7808E2FF7D03120B4D801C1287
:10110400003E801753E8F0800653E8F043E8027588
:10111400E10175E30075E20043E840C20B8003126D
:10112400003ED2AFC3E526940774809480400575D1
:06113400260080020526E2
:0B113A00D0D0D082D083D0F0D0E032C3
:0A16DC00AD07AC068CCFEDF5CE2271
:0D16C5007FFF7E0F1216DC12003ED2AE2217
:101593001214BA1216741216D21216C5D2047FFD93
:1015A30012000E1213F553B17F43B28053B3B053FD
:1015B300B4B0D287E4FFFE0FBF00010EEF64FE4E0E
:0415C30070F580F04F
:10006E00461C4000439513334576E0004388933396
:0505120042021D000083
:1011E800E412021E90006E1204971201818F138E72
:1011F800128D118C10120E258F138E128D118C10DA
:101208009000761204971201818F138E128D118C23
:1012180010AB13AA12A911A810C000C001C002C0C7
:1012280003900072120497E4FFFE7D807C3F120158
:1012380081D003D002D001D00012008D8F138E12FE
:101248008D118C10AB13AA12A911A810E4FFFE7D12
:10125800807C3F1201818F138E128D118C109000AB
:0F1268007A1204971200898F138E128D118C1039
:011277002254
:10094D0000060C13191F252B32383E444A50565CB5
:10095D0061676D72787D83888D92979CA1A6ABAFF0
:10096D00B4B8BCC0C5C8CCD0D3D7DADBD8D4D1CDC0
:10097D00C9C5C1BDB9B5B0ACA7A29E99948E8984E5
:10098D007F79746E68635D57514B453F39332D2721
:10099D00211A140E0801050B11171E242A30363C9E
:1009AD0042484E545A60666B71777C81878C919664
:1009BD009BA0A5AAAEB3B7BBC0C4C7CBCFD3D6D966
:1009CD00DCD8D5D2CECAC6C2BEBAB6B1ADA8A49F28
:1009DD009A95908B85807A756F6A645E58534D47F2
:1009ED00413B352E28221C160F0903030A10161C35
:1009FD0022292F353B41474D53595F646A70757BF2
:100A0D0080868B90959A9FA4A9ADB2B6BABFC3C785
:100A1D00CACED2D5D8DCD9D6D2CFCBC7C3BFBBB700
:100A2D00B2AEA9A5A09B96918C86817C76716B65E3
:100A3D00605A544E48423C36302A241D17110B047F
:100A4D00DCDFE2E5E7EAECEEF1F2F4F6F7F9FAFBBA
:100A5D00FCFDFDFEFEFEFEFEFDFDFCFCFBF9F8F7C8
:100A6D00F5F4F2F0EEEBE9E6E4E1DEDDE0E3E6E8F5
:100A7D00EBEDEFF1F3F5F6F8F9FAFBFCFDFDFEFEFB
:100A8D00FEFEFEFDFDFCFBFAF9F8F6F5F3F1EFEDD8
:100A9D00EAE8E5E3E0DDDEE1E4E7E9ECEEF0F2F4CF
:100AAD00F6F7F8FAFBFCFCFDFEFEFEFEFEFEFDFC7D
:100ABD00FCFBFAF9F7F6F4F2F0EEECEAE7E4E2DF2C
:100ACD00DCDFE2E5E8EAEDEFF1F3F5F6F8F9FAFB34
:100ADD00FCFDFDFEFEFEFEFEFDFDFCFBFAF9F8F74A
:100AED00F5F3F1EFEDEBE9E6E3E0DDDEE1E3E6E979
:100AFD00EBEDF0F2F3F5F7F8F9FAFBFCFDFDFEFE78
:100B0D00FEFEFEFDFDFCFBFAF9F8F6F4F3F1EFEC59
:100B1D00EAE8E5E2DFDCDFE2E4E7EAECEEF0F2F44E
:100B2D00F6F7F9FAFBFCFDFDFEFEFEFEFEFDFDFCFB
:100B3D00FCFBFAF8F7F5F4F2F0EEECE9E7E4E1DEB0
:100517006100001D00060C13191F252B32383E44BD
:100527004A50565C61676D72787D83888D92979C7F
:10053700A1A6ABAFB4B8BCC0C5C8CCD0D3D7DADBA3
:10054700D8D4D1CDC9C5C1BDB9B5B0ACA7A29E9904
:10055700948E89847F79746E68635D57514B453FEC
:1005670039332D27211A140E0801050B11171E24E4
:100577002A30363C42484E545A60666B71777C810C
:10058700878C91969BA0A5AAAEB3B7BBC0C4C7CBB7
:10059700CFD3D6D9DCD8D5D2CECAC6C2BEBAB6B1A9
:1005A700ADA8A49F9A95908B85807A756F6A645ED3
:1005B70058534D47413B352E28221C160F0903037C
:1005C7000A10161C22292F353B41474D53595F64AA
:1005D7006A70757B80868B90959A9FA4A9ADB2B6F9
:1005E700BABFC3C7CACED2D5D8DCD9D6D2CFCBC72C
:1005F700C3BFBBB7B2AEA9A5A09B96918C86817CE1
:1006070076716B65605A544E48423C36302A241D39
:1006170017110B046100011DDCDFE2E5E7EAECEEF0
:10062700F1F2F4F6F7F9FAFBFCFDFDFEFEFEFEFE25
:10063700FDFDFCFCFBF9F8F7F5F4F2F0EEEBE9E66B
:10064700E4E1DEDDE0E3E6E8EBEDEFF1F3F5F6F804
:10065700F9FAFBFCFDFDFEFEFEFEFEFDFDFCFBFACE
:10066700F9F8F6F5F3F1EFEDEAE8E5E3E0DDDEE1D1
:10067700E4E7E9ECEEF0F2F4F6F7F8FAFBFCFCFD40
:10068700FEFEFEFEFEFEFDFCFCFBFAF9F7F6F4F2B9
:10069700F0EEECEAE7E4E2DFDCDFE2E5E8EAEDEFE3
:1006A700F1F3F5F6F8F9FAFBFCFDFDFEFEFEFEFEA2
:1006B700FDFDFCFBFAF9F8F7F5F3F1EFEDEBE9E6F1
:1006C700E3E0DDDEE1E3E6E9EBEDF0F2F3F5F7F881
:1006D700F9FAFBFCFDFDFEFEFEFEFEFDFDFCFBFA4E
:1006E700F9F8F6F4F3F1EFECEAE8E5E2DFDCDFE254
:1006F700E4E7EAECEEF0F2F4F6F7F9FAFBFCFDFDBD
:10070700FEFEFEFEFEFDFDFCFCFBFAF8F7F5F4F23B
:08071700F0EEECE9E7E4E1DE9D
:02151000AB0727
:10151200E4FAEAC394FF748094805039EA90094D4A
:1015220093FF7E00EBFD7C00120412EEFF741D2A75
:10153200F582E43400F583EFF0EA900A4D93FF7EE2
:1015420000120412EEFF741D2AF582E43401F583C1
:05155200EFF00A80BD6E
:011557002271
:100CB800C0D075D008AD0F741D2DF582E43400F551
:100CC80083E0754E00F54F741D2DF582E43401F56F
:100CD80083E0755000F551C374FF9551FFE49550BA
:100CE800C313F554EF13F555855458F559254FF5A9
:100CF80057E554354EF556E5552551F553E5543528
:100D080050F552C2AFEDFF7E00C3942B74809480DF
:100D1800501B75C7AA75C7557591018555CC75C700
:100D2800AA75C755E4F5918557DC020DE0C3EF9429
:100D380055EE64809480501A75C7AA75C755759189
:100D4800018555CC75C7AA75C755E4F5918557DA5D
:100D58008023C3EF9480EE64809480501D8555DA1B
:100D680075C7AA75C7557591018557CC75C7AA75FA
:100D7800C755E4F5918553DC8061C3EF94ABEE640D
:100D880080948050088555DA8557DC8011C3EF942C
:100D9800D5EE64809480501D8555DC8557DA75C77B
:100DA800AA75C7557591018553CC75C7AA75C755DE
:100DB800E4F5918026C3EF94FFEE64809480501B85
:100DC8008555DC75C7AA75C7557591018557CC75CA
:100DD800C7AA75C755E4F5918553DAE4F5FB43DFF7
:090DE8001043D840D2AFD0D02254
:10008600020291E86480F8E933E83360110460F015
:10009600ED33EC337009E8FCE9FDEAFEEBFF2204E0
:1000A60060DED3EB9FEA9EE99DE8C2E78CF0C2F7DB
:1000B60095F0400CE8CCF8E9CDF9EACEFAEBCFFBA7
:1000C60012025C85D0F05804700320D5B3E80470A2
:1000D600075002B2D502029B92D5EC0460F7E4CC3D
:1000E600C0E0C398F8603B94186008400DD0E0FB70
:1000F600020273E4FBFAC9FC8028E830E406E4C98E
:10010600FBE4CAFCE830E305E4C9CACBFCE85407C3
:100116006010F8C3E913F9EA13FAEB13FBEC13FCCE
:10012600D8F130F52FC3E49CFCEF9BFFEE9AFEED71
:1001360099FDD0E0FBEF4E4D4C701222DB0302021C
:1001460098EC2CFCEF33FFEE33FEED33FDED30E79C
:10015600EB020273EF2BFFEE3AFEED39FDD0E0FB2A
:1001660050130BBB000302029BED13FDEE13FEEFD3
:0801760013FFEC13FC020273FD
:10017E0002029BEC5D046005E859047003020291D3
:10018E0012025C580460F6EC4860F2EC7004FDFE5E
:10019E00FF22C860DB2481C85009C3986002500654
:1001AE000202989850CAF582E9294B4A7005AB8233
:1001BE0002028775F0007C1A7880C3EF9BEE9AEDF1
:1001CE0099400DC3EF9BFFEE9AFEED99FDE842F0CC
:1001DE00DC23ACF0D0E0FFD0E0FED0E0FDAB82201F
:1001EE00E7101BEB60BAEC2CFCEF33FFEE33FEEDA9
:1001FE0033FD020273E803F830E705C0F075F00036
:10020E00EF2FFFEE33FEED33FD40B830E7C280AA8C
:10021E0075F020800E75F010800575F0087D007E5B
:10022E00007F003392D530D503120479EC334010A1
:10023E00EF33FFEE33FEED33FDEC33FCD5F0ED2264
:0E024E00E5F0247EA2D513CC92E7CDCEFF22A0
:100DF1003E9248DA3ECCCCCD3F2AAAAB400000005F
:100E01003F8000003F9837F03FB504F33FD744FCE3
:100E11003E3172173EB172173F0515913EDE5BD927
:100E2100D2148002C214EDD2E7F8CD33EC33047052
:100E31000BBD800592D502029B02029140FBD314A7
:100E410060F2F5F07C3FEE7A00C39496C8948B4033
:100E5100230AC89469C8941A401A0AC89468C894A5
:100E61001F40110AC8945AC89425400805F07A0019
:100E7100CDC2E7CDC0F08C148D158E168F17EA23E5
:100E810023C0E02401F582E4340EF58312049712A5
:100E9100008DECC0E0EDC0E0EEC0E0EFC0E0120478
:100EA10087A814A915AA16AB17120089D0E0FBD0A8
:100EB100E0FAD0E0F9D0E0B2E7F81201818C148DAC
:100EC100158E168F17900DF174031203ACA814A997
:100ED10015AA16AB171202A6D0E0600F240DF582F9
:100EE100E4340EF58312049712008D8C148D158E47
:100EF100168F17D0E0C3947FFDE49400FC12022307
:100F01007B187A727931783F1202A6A814A915AA22
:100F110016AB1712008D30140B7BD97A5B79DE7812
:050F21003E1202A622B1
:10025C00E9D2E7C933E833F892D5EDD2E7CD33ECE8
:07026C0033FC5002B2D52261
:10027300EC30E7100FBF000C0EBE00080DBD0004EC
:100283000BEB6014A2D5EB13FCED92E7FD2274FF98
:10029300FCFDFEFF22E480F8A2D574FF13FC7D80F1
:0302A300E480EF05
:1002A600EC4D6011E8497017ED33EC3304600DE452
:1002B600FCFFFEFD22E933E8330470F802029112D6
:1002C600025C58046009E4CC2481500628500902D7
:1002D600029B284003020298C0E0EB4A7044B980B2
:1002E60006D0E0FB020287EF4E701CBD8008EBFFD4
:1002F600EAFEE9FD80EBE98DF0A4FEE5F002038F4E
:10030600E9CDF9EAFEEBFFEF89F0A4FCE5F0CE8932
:10031600F0A42EFFE435F0CD89F0A42DFEE435F0EF
:100326008067EF4E7005BD80D780C3EF8BF0A4AC1D
:10033600F0EE8BF0A42CFCE435F0F8EF8AF0A42C58
:10034600E5F038FCE433CB8DF0A42CFCE5F03BF86B
:10035600EE8AF0A42CFCE5F038F8E433CF89F0A45B
:100366002CFCE5F038CF3400CE89F0A42FFFE5F061
:100376003EFEE433C98DF0A42EFEE5F039CD8AF0B9
:10038600A42FFFE5F03EFEE43DFD33D0E0FB500731
:100396000BBB000F02029BEC2CFCEF33FFEE33FE8F
:0603A600ED33FD020273BD
:1003AC00C0E0EFFBEEFAEDF9ECF81202A6D0E0F5A6
:1003BC00F0EFFBEEFAEDF9ECF8120487A3A3A3A37C
:1003CC00E8C0E0E9C0E0EAC0E0EBC0E0C0F0120237
:1003DC00A6120497A3A3A3A312008DD0F0D0E0FB28
:0D03EC00D0E0FAD0E0F9D0E0F8D5F0D4224E
:0300000002127871
:0C127800787FE4F6D8FD75816D0212BF8E
:1003F900BB010689828A83E0225002E722BBFE0202
:09040900E32289828A83E4932234
:10041200EF8DF0A4A8F0CF8CF0A428CE8DF0A42EFE
:02042200FE22B8
:10042400BC000BBE0029EF8DF084FFADF022E4CCBC
:10043400F875F008EF2FFFEE33FEEC33FCEE9DEC85
:10044400984005FCEE9DFE0FD5F0E9E4CEFD22EDCB
:10045400F8F5F0EE8420D21CFEADF075F008EF2F15
:10046400FFED33FD4007985006D5F0F222C398FD06
:050474000FD5F0EA22A3
:0E047900C3E49FFFE49EFEE49DFDE49CFC2294
:10048700E493FC740193FD740293FE740393FF22BB
:10049700E493F8740193F9740293FA740393FB22BB
:10128400021593E493A3F8E493A34003F68001F2D8
:1012940008DFF48029E493A3F85407240CC8C3336B
:1012A400C4540F4420C8834004F456800146F6DF3A
:1012B400E4800B01020408102040809004A7E47E1F
:1012C400019360BCA3FF543F30E509541FFEE4932F
:1012D400A360010ECF54C025E060A840B8E493A3F6
:1012E400FAE493A3F8E493A3C8C582C8CAC583CA21
:1012F400F0A3C8C582C8CAC583CADFE9DEE780BED9
:01071F0000D9
:00000001FF
