:0400350075FB3F22F6
:10178B0053B1F443B20B53B3F843B40775DE3F7553
:10179B00DF5175FB3FE4F5FCF5D6F5D775D9FFF5B1
:1017AB00D1F5DCF5D4F5DAF5D275C7AA75C7557541
:1017BB009101F5CCF5C475C7AA75C755F59175C7D9
:1017CB00AA75C75575F90775C7AA75C75575FA0672
:0617DB0075D8C0020035C4
:0A056800C192C191017600017500F7
:07000300A20792128F742284
:0B004F00C0D0A21792128F74D0D022F4
:030066008F762270
:03007E008F762258
:03197E008F742241
:03198100A212228D
:0D195000C0D075D018A212E433FFD0D02211
:10003E00C0D0A295920EA293920FA2949210D0D0FD
:01004E00228F
:1018E20053B3C753B4C775C7AA75C755759101439A
:1018F200B31875C7AA75C755E4F591D295D293D29C
:0219020094222D
:10159F00C0D075D018309533A293301101B35019C4
:1015AF0030940B3000047F0580527F03804E300053
:1015BF00047F0480477F0280433094047F00803C87
:1015CF003000047F0380357F018031A293301101F9
:1015DF00B3501230940B3000047F06801F7F0480BD
:1015EF001B7F00801730940B3000047F01800D7F2C
:0F15FF000580093000047F0280027F06D0D022D1
:10123C00C0D0E57565767003021324C2AFE5762441
:10124C00FE603C14605014606C1470030212E014C5
:10125C0070030212FF2405600302131F75FB308517
:10126C0074DAE4F5DC43D84075C7AA75C755759197
:10127C000175B71075C7AA75C755F59102131F757F
:10128C00FB0C8574DA75C7AA75C755759101E4F521
:10129C00CC75B710801575FB038574DC75C7AA7502
:1012AC00C755759101E4F5CC75B71275C7AA75C70A
:1012BC0055F591805B75FB308574DC75C7AA75C7D5
:1012CC005575910175B71275C7AA75C755E4F59197
:1012DC00F5DA803C75FB0C75C7AA75C7557591017D
:1012EC008574CC75B71475C7AA75C755E4F591F517
:1012FC00DA801D75FB0375C7AA75C75575910185F5
:10130C0074CC75B71475C7AA75C755E4F591F5DC9F
:0B131C0043D840D2AF857675D0D022B8
:10057200014700C118025A0000025E00008200001A
:100582000012480002000001010100000102010204
:05059200010002000160
:070F2100C0D075D008A90F34
:100F2800C20519E55C69600302102CE975F003A499
:100F3800244AF8E6603D300414AE0CED7803CEC3C5
:100F480013CE13D8F9FFD3EB9FEA9E406BD3E54647
:100F58009BE5459A4062055DE55D94027480948046
:100F68004059EC13FEED13FFC3EB9FEA9E504CD2A1
:100F780005804830041BAE0CED7803CEC313CE13A6
:100F8800D8F9FFC3ED9FFFEC9EFEC3EB9FEA9E508E
:100F980027C3E5469BE5459A501E055DC3E55D946C
:100FA80002748094804014EC13FEED13FFD3EB9F82
:100FB800EA9E4007D2058003E4F55D8A458B4630FA
:100FC800050EE55F455E7008855A5E855B5FD21841
:100FD8007800E2FC08E2FDAE0C7802CEC313CE1313
:100FE800D8F9255FFBE55E3EFAAE0CED7803CEC37B
:100FF80013CE13D8F92BFFEA3EFEC3E55B9FE55AF3
:101008009E4017301814C218E904FF6547600BB2F8
:10101800878F47E4F55EF55F801F055BE55B70171A
:10102800055A8013E4F55D895C7800E55AF208E515
:091038005BF2E4F55AF55B7F0060
:03104100D0D022EA
:0A196A0043B17053B28F43F63E22E2
:10059700410248004102430A4102314641023417F1
:1005A7004102403242022D03E842023501F4420281
:1005B70044001A42023E0190C10BC18DC10CC18893
:1005C700C109C10A01420042024600004202370047
:1005D7000042022F000042023200004202410000A6
:1005E70044023900000000812000012600811DBD62
:1005F70081240A8125D7810801811B01811C028280
:10060700261770820E0000811A0082040000812CD8
:1006170000820A000082210000811E0041023D0085
:10062700821800008114000224000002400000022A
:100637003A000002430000810900012700811500EC
:10064700811F008123001228000200000101010020
:0E06570000010201020100020001023E020544
:01000A0022D3
:1016D300E4F58930080975C960F5CCF5CD80187536
:1016E300C969439210E4F59375941075F10875CBAD
:1016F300FF75CBFE439B04439C02758D70758B2451
:1017030043C804438901758AAB758C2FC28DD28C73
:10171300D2A975E9FD43EA7843EB3843B74043EF79
:101723008043F78043FE0243FF02439B02D2AF2272
:02000E008F78E9
:10001000A2069207120003AF781217E1A206920D12
:100020007820E578F2D39464748094804003D38080
:0400300001C392096D
:0100340022A9
:03003B0002160E9C
:10160E00C0E0C0F0C083C082C0D075D018E5EC54E5
:10161E0038602475EC0020081E200B1BC2AF121977
:10162E0050EF24FF920012159F7809EFF2E2FF129D
:10163E00007E12123CD2AFE5EC30E61953ECB0C38B
:10164E007819E294FF18E29400500A08E22401F29D
:10165E0018E23400F275EC00D0D0D082D083D0F0F6
:03166E00D0E03297
:03000B00021733A6
:10173300C0E0C083C082C0D075D000C000C007C263
:101743008CC28D758AAB758C2F7818E4F2087440BF
:10175300F290023DE0C39440E494005003E004F0AF
:1017630090023DE0FFC37819E29F18E29400500312
:10177300E014F07818E4F208F2D28CD007D000D04D
:08178300D0D082D083D0E03207
:0513D700C0D075D00834
:1013DC00AEC9EE24B7605024F0602824F0706AAED9
:1013EC00E5EEC394017480948050047F02805AAE61
:1013FC00E5EEC394047480948050047F01804AE429
:10140C00FF8046AEE5EEC394027480948050047F56
:10141C00028036AEE5EEC394067480948050047F4F
:10142C00018026E4FF8022AEE5EEC3940474809420
:10143C008050047F028012AEE5EEC3940C7480944D
:10144C008050047F018002E4FF781BE27808F2EF01
:10145C0014600F146016800075C969781B7401F252
:10146C00801275C959781B7402F2800875C94978C5
:04147C001B7404F2E7
:03148000D0D022A7
:04005E00439B082296
:0F19410053C4E7EFF4F5C5EEF4F5C643C408222E
:0A190400E0FEA3E0FF7C001203F9EF
:10190E0053C4E753C4F843C407EFF4F5C5EEF4F53A
:05191E00C643C40822CD
:1018A800C0D075D00875E1077809E264016005E2E7
:1018B80064027005E4F5E880147809E264036005C1
:1018C800E26404700575E810800375E82075E30587
:0A18D80075E220D20AD2AED0D02271
:030063000208731D
:07087300C0E0C0D075D018F1
:10087A00C2015392FE7828E2FF08E208CFF208EF9D
:10088A00F2C2AEAFE5EFFEADE47C00E42D7829F2CA
:10089A00EC3E18F2D2AE200C03020AAE300D0478F8
:1008AA00258002781DE2FF7821E4F208EFF278123F
:1008BA00E2FF08E27816CFF208EFF27810E2FF08BA
:1008CA00E208CFF208EFF2780CE2FF08E27810CFE4
:1008DA00F208EFF27828E2FF08E2780CCFF208EF8C
:1008EA00F27814E2D3940F748094804002E4F2AF59
:1008FA00C9EF24976013241070247829E225E0793F
:10090A0029F318E23319F380157828E2FE08E27811
:10091A0002C333CE33CED8F97929F3EE19F378121C
:10092A00E2FE08E2FF7816E2FC08E2FDD39FEC9EA5
:10093A004013ED9FFFEC9EFED3EF94C8EE94004067
:10094A0020D201801C7816E2FE08E2FFC37813E287
:10095A009FFF18E29EFED3EF94C8EE94004002D2A5
:10096A00017810E2FE08E2FF08E2FC08E2FDD39FEC
:10097A00EC9E4013ED9FFFEC9EFED3EF94C8EE94DD
:10098A00004020D201801C7812E2FE08E2FFC37800
:10099A0011E29FFF18E29EFED3EF94C8EE94004046
:1009AA0002D201780CE2FE08E2FF7810E2FC08E2CB
:1009BA00FDD39FEC9E4013ED9FFFEC9EFED3EF9478
:1009CA00C8EE94004020D201801C7810E2FE08E2B2
:1009DA00FFC3780DE29FFF18E29EFED3EF94C8EEA4
:1009EA0094004002D201300108780CE2FE08E2804D
:1009FA002C7810E2FE08E2FF780DE22FFF18E23EA3
:100A0A00FE7813E22FFF18E23EFE7817E22FFF1856
:100A1A00E23EFEEF7802CEC313CE13D8F9FF1219C5
:100A2A00411213D77826E2FE08E2FFD37829E29F23
:100A3A0018E29E5069781CE2FD782AE2FE08E2A8D4
:100A4A001D088005CEC313CE13D8F9FFC3782BE255
:100A5A009FFF18E29EFEC318E29F18E29E403F786D
:100A6A002AE2FE08E2A81D088005CEC313CE13D8D9
:100A7A00F9FF782BE22FFF18E23EFED318E29F1807
:100A8A00E29E501A781AE2C3940474809480400754
:100A9A00300C11D20B800D781AE204F28006781A13
:040AAA00E4F2C20BA5
:050AAE00D0D0D0E032C1
:10192300C0D075D0107809E2D394017480948040BC
:0E19330005E214F2800578097406F2D0D02285
:10167100C0D075D008E4F5E275E1037809E26401B0
:101681006005E2640270117809E275F003A4242573
:10169100F8E62403F5E880307809E264036005E2A6
:1016A100640470137809E275F003A42425F8E62494
:1016B100034410F5E880117809E275F003A42425AC
:1016C100F8E624034420F5E875E314C20AD2AED04B
:0216D100D02225
:10104400C0D075D010900232E0FCA3E0FD90022FD6
:10105400E0FAA3E0FBFFAE1212040B900237E0FCAF
:10106400A3E0FDCFCDCFCECCCE12040B900243E053
:101074007C002FFFEC3EFEE4FD90023912055C90EB
:101084000241E0FCA3E0FDAF13AE1212040B900288
:1010940037E0FCA3E0FDCFCDCFCECCCE12040B9035
:1010A4000234E02F7820F2900239E0F8A3E0F9A3AB
:1010B400E0FAA3E0FBE47F107E27FDFC12049C9081
:1010C4000246EEF0A3EFF0900237E07002A3E07066
:1010D400129002357D7D121904900244A3E0782019
:1010E400F280089002467D0C12190490022FE0FE53
:1010F400A3E0FFD3900238E09F900237E09E403097
:1011040078157403F253C4E7D2067F6512000E7893
:1011140020E2FF12197E1219237809E2FF120066F9
:1011240012123C3009051218A88019121671801485
:10113400900246E0FEA3E0FF900238E02FF0900218
:0711440037E03EF0D0D0229D
:030083000213273E
:10132700C0E0C0F0C083C082C0D075D01053C4EFF6
:1013370030082B7820E2FF12197E1219237815E264
:101347006403700353C4E77809E2FF1200661212C0
:101357003C1218A87815E264027003121044300C8E
:10136700647808E2FFFDC374FF9DFDE49400FCC3AD
:101377007822E29D18E29C500B08E22FF218E23423
:1013870000F280157821E4F208F27814E2C394FFA2
:10139700748094805003E204F27821E2FF08E27837
:1013A7000ACFF208EFF2300B1C300D0F18E2FE08DF
:1013B700E2FFC374FF9FF2E49E18F2780AE2FE0888
:1013C700E2FF120CB3D0D0D082D083D0F0D0E0327D
:03006B00021984F3
:03198400C2DD328F
:03005B0002114B44
:10114B00C0E0C0F0C083C082C0D075D008C2AEC2B0
:10115B00EF75E101B287300A60AFC3EF75F010A4F1
:10116B00AEF0ADC27C002DF541EC3EF540300913DD
:10117B007809E275F003A42425F8E624034440F52E
:10118B00E880061216710212317809E275F003A499
:10119B002426F8E624034440F53DC3E5429401744C
:1011AB00809480500405428003754200743E2542B2
:1011BB00F8E64440F53C20EEFDAFC3EF75F010A40C
:1011CB00AEF0ADC27C002DF544EC3EF543853DE819
:1011DB0020EEFDAFC3EF75F010A4AEF0ADC27C00F6
:1011EB002DF53BEC3EF53A853CE87809E2FFA20988
:1011FB009204AB3BAA3AAD44AC43120F218F26208D
:10120B00EEFD7809E2B5261B7815E26403701478BD
:10121B0020E2FF12197E1219237809E2FF120066F1
:10122B0012123C1218A8D0D0D082D083D0F0D0E0CC
:01123B003280
:0A197400AD07AC068CCFEDF5CE22D6
:0D195D007FFF7E0F1219741218A8D2AE225F
:10186C0090022DE0FEA3E0FF7C007D0A1203F9A399
:10187C00EEF0A3EFF0900243E0FF900231E0C39F43
:10188C00FEEC9400A3F0A3CEF0A3E0FF900240E0A6
:0C189C00C39FFEEC9400A3F0A3CEF0224A
:1018290012178B1218E212196A12195DD2067F1E5D
:1018390012000E1216D312186C78157402F27FA2D8
:101849007E0112190E53B17F43B28053B3B053B422
:10185900B0D287E4FFFE0FBF00010EEF64FE4E70A9
:03186900F580F017
:10006E00461C4000439513334576E0004388933396
:05066500420249000003
:10148300E412021E90006E12054C1201818F6F8EC2
:101493006E8D6D8C6C120E208F6F8E6E8D6D8C6CBD
:1014A30090007612054C1201818F6F8E6E8D6D8CBC
:1014B3006CAB6FAA6EA96DA86CC000C001C002C05E
:1014C3000390007212054CE4FFFE7D807C3F120105
:1014D30081D003D002D001D00012008D8F6F8E6EA9
:1014E3008D6D8C6CAB6FAA6EA96DA86CE4FFFE7D4D
:1014F300807C3F1201818F6F8E6E8D6D8C6C90009E
:0F1503007A12054C1200898F6F8E6E8D6D8C6C75
:0115120022B6
:100AB30000060C13191F252B32383E444A50565C4E
:100AC30061676D72787D83888D92979CA1A6ABAF89
:100AD300B4B8BCC0C5C8CCD0D3D7DADBD8D4D1CD59
:100AE300C9C5C1BDB9B5B0ACA7A29E99948E89847E
:100AF3007F79746E68635D57514B453F39332D27BA
:100B0300211A140E0801050B11171E242A30363C36
:100B130042484E545A60666B71777C81878C9196FC
:100B23009BA0A5AAAEB3B7BBC0C4C7CBCFD3D6D9FE
:100B3300DCD8D5D2CECAC6C2BEBAB6B1ADA8A49FC0
:100B43009A95908B85807A756F6A645E58534D478A
:100B5300413B352E28221C160F0903030A10161CCD
:100B630022292F353B41474D53595F646A70757B8A
:100B730080868B90959A9FA4A9ADB2B6BABFC3C71E
:100B8300CACED2D5D8DCD9D6D2CFCBC7C3BFBBB799
:100B9300B2AEA9A5A09B96918C86817C76716B657C
:100BA300605A544E48423C36302A241D17110B0418
:100BB300DCDFE2E5E7EAECEEF1F2F4F6F7F9FAFB53
:100BC300FCFDFDFEFEFEFEFEFDFDFCFCFBF9F8F761
:100BD300F5F4F2F0EEEBE9E6E4E1DEDDE0E3E6E88E
:100BE300EBEDEFF1F3F5F6F8F9FAFBFCFDFDFEFE94
:100BF300FEFEFEFDFDFCFBFAF9F8F6F5F3F1EFED71
:100C0300EAE8E5E3E0DDDEE1E4E7E9ECEEF0F2F467
:100C1300F6F7F8FAFBFCFCFDFEFEFEFEFEFEFDFC15
:100C2300FCFBFAF9F7F6F4F2F0EEECEAE7E4E2DFC4
:100C3300DCDFE2E5E8EAEDEFF1F3F5F6F8F9FAFBCC
:100C4300FCFDFDFEFEFEFEFEFDFDFCFBFAF9F8F7E2
:100C5300F5F3F1EFEDEBE9E6E3E0DDDEE1E3E6E911
:100C6300EBEDF0F2F3F5F7F8F9FAFBFCFDFDFEFE10
:100C7300FEFEFEFDFDFCFBFAF9F8F6F4F3F1EFECF2
:100C8300EAE8E5E2DFDCDFE2E4E7EAECEEF0F2F4E7
:100C9300F6F7F9FAFBFCFDFDFEFEFEFEFEFDFDFC94
:100CA300FCFBFAF8F7F5F4F2F0EEECE9E7E4E1DE49
:10066A006100002D00060C13191F252B32383E4459
:10067A004A50565C61676D72787D83888D92979C2B
:10068A00A1A6ABAFB4B8BCC0C5C8CCD0D3D7DADB4F
:10069A00D8D4D1CDC9C5C1BDB9B5B0ACA7A29E99B0
:1006AA00948E89847F79746E68635D57514B453F98
:1006BA0039332D27211A140E0801050B11171E2490
:1006CA002A30363C42484E545A60666B71777C81B8
:1006DA00878C91969BA0A5AAAEB3B7BBC0C4C7CB63
:1006EA00CFD3D6D9DCD8D5D2CECAC6C2BEBAB6B155
:1006FA00ADA8A49F9A95908B85807A756F6A645E7F
:10070A0058534D47413B352E28221C160F09030327
:10071A000A10161C22292F353B41474D53595F6455
:10072A006A70757B80868B90959A9FA4A9ADB2B6A4
:10073A00BABFC3C7CACED2D5D8DCD9D6D2CFCBC7D7
:10074A00C3BFBBB7B2AEA9A5A09B96918C86817C8C
:10075A0076716B65605A544E48423C36302A241DE5
:10076A0017110B046100012DDCDFE2E5E7EAECEE8C
:10077A00F1F2F4F6F7F9FAFBFCFDFDFEFEFEFEFED1
:10078A00FDFDFCFCFBF9F8F7F5F4F2F0EEEBE9E617
:10079A00E4E1DEDDE0E3E6E8EBEDEFF1F3F5F6F8B0
:1007AA00F9FAFBFCFDFDFEFEFEFEFEFDFDFCFBFA7A
:1007BA00F9F8F6F5F3F1EFEDEAE8E5E3E0DDDEE17D
:1007CA00E4E7E9ECEEF0F2F4F6F7F8FAFBFCFCFDEC
:1007DA00FEFEFEFEFEFEFDFCFCFBFAF9F7F6F4F265
:1007EA00F0EEECEAE7E4E2DFDCDFE2E5E8EAEDEF8F
:1007FA00F1F3F5F6F8F9FAFBFCFDFDFEFEFEFEFE4E
:10080A00FDFDFCFBFAF9F8F7F5F3F1EFEDEBE9E69C
:10081A00E3E0DDDEE1E3E6E9EBEDF0F2F3F5F7F82C
:10082A00F9FAFBFCFDFDFEFEFEFEFEFDFDFCFBFAF9
:10083A00F9F8F6F4F3F1EFECEAE8E5E2DFDCDFE2FF
:10084A00E4E7EAECEEF0F2F4F6F7F9FAFBFCFDFD68
:10085A00FEFEFEFEFEFDFDFCFCFBFAF8F7F5F4F2E7
:08086A00F0EEECE9E7E4E1DE49
:0217E100AB0754
:1017E300E4FAEAC394FF748094805039EA900AB310
:1017F30093FF7E00EBFD7C001203F9EEFF742D2AAC
:10180300F582E43400F583EFF0EA900BB393FF7EA7
:10181300001203F9EEFF742D2AF582E43401F583F7
:05182300EFF00A80BD9A
:01182800229D
:100CB300C0D075D010AD17742D2DF582E43400F536
:100CC30083E0756000F561742D2DF582E43401F540
:100CD30083E0756200F563C374FF9563FFE4956277
:100CE300C313F566EF13F56785666AF56B2561F542
:100CF30069E5663560F568E5672563F565E566359D
:100D030062F564C2AFEDFF7E00C3942B74809480C0
:100D1300501B75C7AA75C7557591018567CC75C7F3
:100D2300AA75C755E4F5918569DC020DDBC3EF9421
:100D330055EE64809480501A75C7AA75C75575918E
:100D4300018567CC75C7AA75C755E4F5918569DA3E
:100D53008023C3EF9480EE64809480501D8567DA0E
:100D630075C7AA75C7557591018569CC75C7AA75ED
:100D7300C755E4F5918565DC8061C3EF94ABEE6400
:100D830080948050088567DA8569DC8011C3EF940D
:100D9300D5EE64809480501D8567DC8569DA75C75C
:100DA300AA75C7557591018565CC75C7AA75C755D1
:100DB300E4F5918026C3EF94FFEE64809480501B8A
:100DC3008567DC75C7AA75C7557591018569CC75AB
:100DD300C7AA75C755E4F5918565DAE4F5FB43DFEA
:090DE3001043D840D2AFD0D02259
:10008600020291E86480F8E933E83360110460F015
:10009600ED33EC337009E8FCE9FDEAFEEBFF2204E0
:1000A60060DED3EB9FEA9EE99DE8C2E78CF0C2F7DB
:1000B60095F0400CE8CCF8E9CDF9EACEFAEBCFFBA7
:1000C60012025C85D0F05804700320D5B3E80470A2
:1000D600075002B2D502029B92D5EC0460F7E4CC3D
:1000E600C0E0C398F8603B94186008400DD0E0FB70
:1000F600020273E4FBFAC9FC8028E830E406E4C98E
:10010600FBE4CAFCE830E305E4C9CACBFCE85407C3
:100116006010F8C3E913F9EA13FAEB13FBEC13FCCE
:10012600D8F130F52FC3E49CFCEF9BFFEE9AFEED71
:1001360099FDD0E0FBEF4E4D4C701222DB0302021C
:1001460098EC2CFCEF33FFEE33FEED33FDED30E79C
:10015600EB020273EF2BFFEE3AFEED39FDD0E0FB2A
:1001660050130BBB000302029BED13FDEE13FEEFD3
:0801760013FFEC13FC020273FD
:10017E0002029BEC5D046005E859047003020291D3
:10018E0012025C580460F6EC4860F2EC7004FDFE5E
:10019E00FF22C860DB2481C85009C3986002500654
:1001AE000202989850CAF582E9294B4A7005AB8233
:1001BE0002028775F0007C1A7880C3EF9BEE9AEDF1
:1001CE0099400DC3EF9BFFEE9AFEED99FDE842F0CC
:1001DE00DC23ACF0D0E0FFD0E0FED0E0FDAB82201F
:1001EE00E7101BEB60BAEC2CFCEF33FFEE33FEEDA9
:1001FE0033FD020273E803F830E705C0F075F00036
:10020E00EF2FFFEE33FEED33FD40B830E7C280AA8C
:10021E0075F020800E75F010800575F0087D007E5B
:10022E00007F003392D530D50312052EEC334010EB
:10023E00EF33FFEE33FEED33FDEC33FCD5F0ED2264
:0E024E00E5F0247EA2D513CC92E7CDCEFF22A0
:100DEC003E9248DA3ECCCCCD3F2AAAAB4000000064
:100DFC003F8000003F9837F03FB504F33FD744FCE9
:100E0C003E3172173EB172173F0515913EDE5BD92C
:100E1C00D2198002C219EDD2E7F8CD33EC3304704D
:100E2C000BBD800592D502029B02029140FBD314AC
:100E3C0060F2F5F07C3FEE7A00C39496C8948B4038
:100E4C00230AC89469C8941A401A0AC89468C894AA
:100E5C001F40110AC8945AC89425400805F07A001E
:100E6C00CDC2E7CDC0F08C708D718E728F73EA237A
:100E7C0023C0E024FCF582E4340DF58312054C12FA
:100E8C00008DECC0E0EDC0E0EEC0E0EFC0E012057C
:100E9C003CA870A971AA72AB73120089D0E0FBD088
:100EAC00E0FAD0E0F9D0E0B2E7F81201818C708D55
:100EBC00718E728F73900DEC74031203ACA870A931
:100ECC0071AA72AB731202A6D0E0600F2408F582EF
:100EDC00E4340EF58312054C12008D8C708D718EDE
:100EEC00728F73D0E0C3947FFDE49400FC12022354
:100EFC007B187A727931783F1202A6A870A971AA70
:100F0C0072AB7312008D30190B7BD97A5B79DE785A
:050F1C003E1202A622B6
:10025C00E9D2E7C933E833F892D5EDD2E7CD33ECE8
:07026C0033FC5002B2D52261
:10027300EC30E7100FBF000C0EBE00080DBD0004EC
:100283000BEB6014A2D5EB13FCED92E7FD2274FF98
:10029300FCFDFEFF22E480F8A2D574FF13FC7D80F1
:0302A300E480EF05
:1002A600EC4D6011E8497017ED33EC3304600DE452
:1002B600FCFFFEFD22E933E8330470F802029112D6
:1002C600025C58046009E4CC2481500628500902D7
:1002D600029B284003020298C0E0EB4A7044B980B2
:1002E60006D0E0FB020287EF4E701CBD8008EBFFD4
:1002F600EAFEE9FD80EBE98DF0A4FEE5F002038F4E
:10030600E9CDF9EAFEEBFFEF89F0A4FCE5F0CE8932
:10031600F0A42EFFE435F0CD89F0A42DFEE435F0EF
:100326008067EF4E7005BD80D780C3EF8BF0A4AC1D
:10033600F0EE8BF0A42CFCE435F0F8EF8AF0A42C58
:10034600E5F038FCE433CB8DF0A42CFCE5F03BF86B
:10035600EE8AF0A42CFCE5F038F8E433CF89F0A45B
:100366002CFCE5F038CF3400CE89F0A42FFFE5F061
:100376003EFEE433C98DF0A42EFEE5F039CD8AF0B9
:10038600A42FFFE5F03EFEE43DFD33D0E0FB500731
:100396000BBB000F02029BEC2CFCEF33FFEE33FE8F
:0603A600ED33FD020273BD
:1003AC00C0E0EFFBEEFAEDF9ECF81202A6D0E0F5A6
:1003BC00F0EFFBEEFAEDF9ECF812053CA3A3A3A3C6
:1003CC00E8C0E0E9C0E0EAC0E0EBC0E0C0F0120237
:1003DC00A612054CA3A3A3A312008DD0F0D0E0FB72
:0D03EC00D0E0FAD0E0F9D0E0F8D5F0D4224E
:03000000021513D3
:0C151300787FE4F6D8FD75817802155A47
:1003F900EF8DF0A4A8F0CF8CF0A428CE8DF0A42E18
:02040900FE22D1
:10040B00BC000BBE0029EF8DF084FFADF022E4CCD5
:10041B00F875F008EF2FFFEE33FEEC33FCEE9DEC9E
:10042B00984005FCEE9DFE0FD5F0E9E4CEFD22EDE4
:10043B00F8F5F0EE8420D21CFEADF075F008EF2F2E
:10044B00FFED33FD4007985006D5F0F222C398FD1F
:05045B000FD5F0EA22BC
:1004600075F008758200EF2FFFEE33FECD33CDCC53
:1004700033CCC58233C5829BED9AEC99E5829840D6
:100480000CF582EE9BFEED9AFDEC99FC0FD5F0D6B3
:10049000E4CEFBE4CDFAE4CCF9A88222B800C1B9DD
:1004A0000059BA002DEC8BF084CFCECDFCE5F0CB1B
:1004B000F97818EF2FFFEE33FEED33FDEC33FCEB54
:1004C00033FB10D703994004EB99FB0FD8E5E4F90F
:1004D000FA227818EF2FFFEE33FEED33FDEC33FCFC
:1004E000C933C910D7059BE99A4007EC9BFCE99AF0
:1004F000F90FD8E0E4C9FAE4CCFB2275F010EF2F35
:10050000FFEE33FEED33FDCC33CCC833C810D70734
:100510009BEC9AE899400AED9BFDEC9AFCE899F86F
:0E0520000FD5F0DAE4CDFBE4CCFAE4C8F92202
:0E052E00C3E49FFFE49EFEE49DFDE49CFC22DE
:10053C00E493FC740193FD740293FE740393FF2205
:10054C00E493F8740193F9740293FA740393FB2205
:0C055C00ECF0A3EDF0A3EEF0A3EFF02212
:10151F00021829E493A3F8E493A34003F68001F2A1
:10152F0008DFF48029E493A3F85407240CC8C333CD
:10153F00C4540F4420C8834004F456800146F6DF9C
:10154F00E4800B0102040810204080900568E47EBF
:10155F00019360BCA3FF543F30E509541FFEE49391
:10156F00A360010ECF54C025E060A840B8E493A358
:10157F00FAE493A3F8E493A3C8C582C8CAC583CA83
:10158F00F0A3C8C582C8CAC583CADFE9DEE780BE3B
:010872000085
:00000001FF
