:0415E00075FB3F2236
:10141C0053B1F443B20B53B3F843B40775DE3F75C5
:10142C00DF5175FB3FE4F5FCF5D6F5D775D9FFF523
:10143C00D1F5DCF5D4F5DAF5D275C7AA75C75575B3
:10144C009101F5CCF5C475C7AA75C755F59175C74B
:10145C00AA75C75575F90775C7AA75C75575FA06E4
:06146C0075D8C00215E076
:07043900C190C18F016D00AD
:07000300A20B92108F6C228A
:0315E800A210222C
:10159000C0D0A295920CA293920DA294920ED0D09C
:0115A0002228
:10000E0053B3C753B4C775C7AA75C7557591014386
:10001E00B31875C7AA75C755E4F591D295D293D288
:02002E0094221A
:1012FC00C0D075D018309533A293300F01B350196C
:10130C0030940B3006047F0580527F03804E3006EC
:10131C00047F0480477F0280433094047F00803C2C
:10132C003006047F0380357F018031A293300F019A
:10133C00B3501230940B3006047F06801F7F04805C
:10134C001B7F00801730940B3006047F01800D7FCB
:0F135C000580093006047F0280027F06D0D02270
:100EA400C0D075D018E56D6F7003020FB2C2AFEFFA
:100EB40024FE603C14605014606C147003020F49EB
:100EC400147003020F6824056003020F8875FB3059
:100ED400856CDAE4F5DC43D84075C7AA75C7557547
:100EE400910175B71075C7AA75C755F591020F889A
:100EF40075FB0C856CDA75C7AA75C755759101E445
:100F0400F5CC75B710801575FB03856CDC75C7AA25
:100F140075C755759101E4F5CC75B71275C7AA75F7
:100F2400C755F591805B75FB30856CDC75C7AA7578
:100F3400C75575910175B71275C7AA75C755E4F5FC
:100F440091F5DA803C75FB0C75C7AA75C755759188
:100F540001856CCC75B71475C7AA75C755E4F591AE
:100F6400F5DA801D75FB0375C7AA75C75575910120
:100F7400856CCC75B71475C7AA75C755E4F591F59A
:100F8400DC43D84053E8CFEFFD7C006401601BEDE7
:100F9400640270028014ED64034C6006ED64044C3A
:100FA400700543E810800343E820D2AF8F6DD0D0A2
:010FB400221A
:10044000023B00001229000200000101010000012E
:0804500002010201000200019B
:05005E008E238F242217
:050066008E258F26220B
:0515DB008E278F28227D
:10150D00C0D075D00830090575E101800375E10380
:10151D0053E8F01FED64017009EF75F003A4242961
:10152D008007EF75F003A4242AF8E6240342E8E4CB
:0D153D00F5E3F5E230090343E840D0D02289
:070FB500C0D075D008AD0F9C
:100FBC00C2091DED75F003A42429F8E625E02423CD
:100FCC00F8E6F53B08E6F53CED75F003A4242BF8A8
:100FDC00E6603EE53BC313FEE53C13FFED75F00305
:100FEC00A4242AF8E625E02423F8E6FA08E6FBC355
:100FFC009FEA9E50028001C39209AE3BE53C780209
:10100C00CEC313CE13D8F9FFC3EB9FEA9E504B808F
:10101C0046E53BC313FEE53C13FFED75F003A4243A
:10102C002AF8E625E02423F8E6FA08E6FBD39FEA43
:10103C009E4003D38001C39209AE3BE53C7802CEBF
:10104C00C313CE13D8F9FFC3E53C9FFFE53B9EFECF
:10105C00D3EB9FEA9E4003E4F53F20090DD3E53F17
:10106C009402748094805002053F300918AF3FC33E
:10107C00EF940274809480400CD3EF9404748094A9
:10108C00805002053FED75F003A4242AF8E6FF65B5
:10109C003E6003E4F53F8F3EEF25E02423F808E69D
:1010AC00F53DC3E53F9404748094804007300904F7
:0610BC007F0180027F00AD
:0310C200D0D02269
:0A00300043B17053B28F43F63E2235
:10045800C103C185C104C181C102014100014EBD72
:1004680001560A0157D7014001014601014702829E
:10047800161770820B000081150082020000811C93
:10048800000242000002530000014F0041021F0019
:10049800821300000145008206000002500000811E
:1004A8000800014400015200015500C1000648003F
:0504B800010200010536
:01000A0022D3
:10147200E4F58975C969439210F59375941075F175
:101482000875CBFF75CBFE439C02758D70758B245E
:10149200439B0443C804438901758AAB758C2FC2F0
:1014A2008DD28CD2A975E9FD43EA7843EB3843B774
:1014B2004043EF8043F78043FE0243FF02439B0217
:0314C200D2AF2284
:02006E008F6F92
:10007000A20A920B120003AF6F1214C5A20A9205D6
:01008000225D
:03003B0002136B42
:10136B00C0E0C0F0C083C082C0D075D018E5EC548B
:10137B0038601A75EC00C2AF1215E8EE4F24FF92DD
:10138B00061212FC7808EFF2120EA4D2AFE5EC3085
:10139B00E61953ECB0C37814E294FF18E2940050B2
:1013AB000A08E22401F218E23400F275EC00D0D006
:0913BB00D082D083D0F0D0E032E2
:03000B000213C419
:1013C400C0E0C083C082C0D075D000C000C007C2D6
:1013D4008CC28D758AAB758C2F7813E4F208744037
:1013E400F290021FE0C39440E494005003E004F040
:1013F40090021FE0FFC37814E29F18E294005003A8
:10140400E014F07813E4F208F2D28CD007D000D0C4
:08141400D0D082D083D0E03279
:0510C500C0D075D00849
:1010CA00AEC9EE24B7605024F0602824F0706AAEEE
:1010DA00E5EEC394017480948050047F02805AAE76
:1010EA00E5EEC394047480948050047F01804AE43E
:1010FA00FF8046AEE5EEC394027480948050047F6C
:10110A00028036AEE5EEC394067480948050047F64
:10111A00018026E4FF8022AEE5EEC3940474809435
:10112A008050047F028012AEE5EEC3940C74809462
:10113A008050047F018002E4FF854640EF14600D71
:10114A00146012800075C969754601800E75C95907
:0B115A00754602800675C94975460401
:03116500D0D022C5
:0415E400439B0822FB
:0F15C20053C4E7EFF4F5C5EEF4F5C643C40822B1
:07003E007818E2FE08E2FF62
:1000450053C4E753C4F843C404EFF4F5C5EEF4F51F
:05005500C643C40822AF
:030063000206CBC7
:0706CB00C0E0C0D075D0189B
:1006D200C2075392FE7818E2FF08E208CFF208EF51
:1006E200F2AFE5EFFEADE47C00E42D7819F2EC3ECA
:1006F20018F22004030208F93005087553008557E3
:10070200548006755300854E54780FE2FF08E208C4
:10071200CFF208EFF2780DE2FF08E208CFF208EF1D
:10072200F27809E2FF08E2780DCFF208EFF27818CA
:10073200E2FE08E2FF7809EEF208EFF2D3E5459413
:100742000F748094804003754500ADC9ED24976015
:100752001024107021EF25E07919F3EE3319F3809C
:10076200157818E2FE08E27802C333CE33CED8F908
:100772007919F3EE19F3780FE2FE08E2FF08E2FCC2
:1007820008E2FDD39FEC9E4013ED9FFFEC9EFED34B
:10079200EF94C8EE94004020D207801C7811E2FE4C
:1007A20008E2FFC37810E29FFF18E29EFED3EF94A7
:1007B200C8EE94004002D207780DE2FE08E2FF087C
:1007C200E2FC08E2FDD39FEC9E4013ED9FFFEC9EFE
:1007D200FED3EF94C8EE94004020D207801C780F1D
:1007E200E2FE08E2FFC3780EE29FFF18E29EFED30C
:1007F200EF94C8EE94004002D2077809E2FE08E2C4
:10080200FF780DE2FC08E2FDD39FEC9E4013ED9FC2
:10081200FFEC9EFED3EF94C8EE94004020D20780F6
:100822001C780DE2FE08E2FFC3780AE29FFF18E29D
:100832009EFED3EF94C8EE94004002D20730070820
:100842007809E2FE08E2802C780DE2FE08E2FF78E9
:100852000AE22FFF18E23EFE7810E22FFF18E23E76
:10086200FE7812E22FFF18E23EFEEF7802CEC313AB
:10087200CE13D8F9FF1215C21210C57816E2FE087F
:10088200E2FFD37819E29F18E29E5065781AE2FCE3
:1008920008E2FDAE1CA847088005CEC313CE13D8CC
:1008A200F9FFC3ED9FFFEC9EFEC37819E29F18E2A9
:1008B2009E403E781AE2FC08E2FDAE1CA847088082
:1008C20005CEC313CE13D8F92DFFEC3EFED3781913
:1008D200E29F18E29E501A7815E2C3940474809441
:1008E200804007300411D203800D7815E204F280B3
:0708F200067815E4F2C203D1
:0508F900D0D0D0E03278
:03008300021284E2
:10128400C0E0C0F0C083C082C0D075D01053C4EF9A
:1012940030010553C4E7C287300452C374FF95403C
:1012A400FFE49400FEC3E5549FE5539E500DE540D2
:1012B4002554F554E43553F5538013755300755490
:1012C40000C3E54594FF748094805002054585531E
:1012D4004285544330031630050CC374FF9543F51F
:1012E40043E49542F542AF43AE42120AFED0D0D059
:0812F40082D083D0F0D0E0327B
:03006B000215EB90
:0315EB00C2DD322C
:10157E008F6F53E8F043E80175E10775E30575E2F7
:02158E00202219
:03005B00020C375D
:0D0C3700C0E0C0F0C083C082C0D075D008FE
:100C4400C208C2EFE5E85407FF24FE604014605474
:100C540014606714607A24046003020CE8AFC3EFE5
:100C640075F010A4AEF0ADC27C002DF551EC3EF54C
:100C740050D20020026E7808E2FF120FB5EF6064D4
:100C8400E5C45408705E12003ED2878057AFC3EFAC
:100C940075F010A4AEF0ADC27C002D7807F2EC3EE6
:100CA40018F28040AFC3EF75F010A4ADC27C002DE4
:100CB400FFEC35F0FE12005E802AAFC3EF75F01032
:100CC400A4ADC27C002DFFEC35F0FE12006680144A
:100CD400AFC3EF75F010A4ADC27C002DFFEC35F06E
:100CE400FE1215DB30004A74482544F8E6146017F8
:100CF40014602324FD6024240570327808E2FFA2E6
:100D04000292097D01800A7808E2FFA20292097D1D
:100D14000212150D801753E8F0800653E8F043E8FB
:100D24000275E10175E30075E20043E840C200800A
:100D34001D7808E2FF12157E300213E2FF120FB590
:100D4400EF600BE5C45408700512003ED287C3E57A
:100D540044940574809480400575440080020544E1
:0B0D6400D0D0D082D083D0F0D0E0329D
:0A15D100AD07AC068CCFEDF5CE227D
:1015A1007FFF7E0F1215D17808E2FF12157ED2AEB1
:0115B1002217
:10154A0012141C12000E1200301215A1D20A7F5C6E
:10155A0012006E12147253B17F43B28053B3B05368
:10156A00B4B0D287E4FFFE0FBF00010EEF64FE4E57
:04157A0070F580F098
:1015B200461C4000439513334576E000438893333D
:0504BD0042021D0000D9
:10116800E412021E9015B21204291201818F678EB3
:10117800668D658C64120DA38F678E668D658C6491
:101188009015BA1204291201818F678E668D658CBD
:1011980064AB67AA66A965A864C000C001C002C0A4
:1011A800039015B6120429E4FFFE7D807C3F1201EE
:1011B80081D003D002D001D00012008D8F678E66D7
:1011C8008D658C64AB67AA66A965A864E4FFFE7D9B
:1011D800807C3F1201818F678E668D658C649015C7
:0F11E800BE1204291200898F678E668D658C6494
:0111F70022D5
:1008FE0000060C13191F252B32383E444A50565C05
:10090E0061676D72787D83888D92979CA1A6ABAF3F
:10091E00B4B8BCC0C5C8CCD0D3D7DADBD8D4D1CD0F
:10092E00C9C5C1BDB9B5B0ACA7A29E99948E898434
:10093E007F79746E68635D57514B453F39332D2770
:10094E00211A140E0801050B11171E242A30363CED
:10095E0042484E545A60666B71777C81878C9196B3
:10096E009BA0A5AAAEB3B7BBC0C4C7CBCFD3D6D9B5
:10097E00DCD8D5D2CECAC6C2BEBAB6B1ADA8A49F77
:10098E009A95908B85807A756F6A645E58534D4741
:10099E00413B352E28221C160F0903030A10161C84
:1009AE0022292F353B41474D53595F646A70757B41
:1009BE0080868B90959A9FA4A9ADB2B6BABFC3C7D5
:1009CE00CACED2D5D8DCD9D6D2CFCBC7C3BFBBB750
:1009DE00B2AEA9A5A09B96918C86817C76716B6533
:1009EE00605A544E48423C36302A241D17110B04CF
:1009FE00DCDFE2E5E7EAECEEF1F2F4F6F7F9FAFB0A
:100A0E00FCFDFDFEFEFEFEFEFDFDFCFCFBF9F8F717
:100A1E00F5F4F2F0EEEBE9E6E4E1DEDDE0E3E6E844
:100A2E00EBEDEFF1F3F5F6F8F9FAFBFCFDFDFEFE4A
:100A3E00FEFEFEFDFDFCFBFAF9F8F6F5F3F1EFED27
:100A4E00EAE8E5E3E0DDDEE1E4E7E9ECEEF0F2F41E
:100A5E00F6F7F8FAFBFCFCFDFEFEFEFEFEFEFDFCCC
:100A6E00FCFBFAF9F7F6F4F2F0EEECEAE7E4E2DF7B
:100A7E00DCDFE2E5E8EAEDEFF1F3F5F6F8F9FAFB83
:100A8E00FCFDFDFEFEFEFEFEFDFDFCFBFAF9F8F799
:100A9E00F5F3F1EFEDEBE9E6E3E0DDDEE1E3E6E9C8
:100AAE00EBEDF0F2F3F5F7F8F9FAFBFCFDFDFEFEC7
:100ABE00FEFEFEFDFDFCFBFAF9F8F6F4F3F1EFECA9
:100ACE00EAE8E5E2DFDCDFE2E4E7EAECEEF0F2F49E
:100ADE00F6F7F9FAFBFCFDFDFEFEFEFEFEFDFDFC4B
:100AEE00FCFBFAF8F7F5F4F2F0EEECE9E7E4E1DE00
:1004C2006100001D00060C13191F252B32383E4413
:1004D2004A50565C61676D72787D83888D92979CD5
:1004E200A1A6ABAFB4B8BCC0C5C8CCD0D3D7DADBF9
:1004F200D8D4D1CDC9C5C1BDB9B5B0ACA7A29E995A
:10050200948E89847F79746E68635D57514B453F41
:1005120039332D27211A140E0801050B11171E2439
:100522002A30363C42484E545A60666B71777C8161
:10053200878C91969BA0A5AAAEB3B7BBC0C4C7CB0C
:10054200CFD3D6D9DCD8D5D2CECAC6C2BEBAB6B1FE
:10055200ADA8A49F9A95908B85807A756F6A645E28
:1005620058534D47413B352E28221C160F090303D1
:100572000A10161C22292F353B41474D53595F64FF
:100582006A70757B80868B90959A9FA4A9ADB2B64E
:10059200BABFC3C7CACED2D5D8DCD9D6D2CFCBC781
:1005A200C3BFBBB7B2AEA9A5A09B96918C86817C36
:1005B20076716B65605A544E48423C36302A241D8F
:1005C20017110B046100011DDCDFE2E5E7EAECEE46
:1005D200F1F2F4F6F7F9FAFBFCFDFDFEFEFEFEFE7B
:1005E200FDFDFCFCFBF9F8F7F5F4F2F0EEEBE9E6C1
:1005F200E4E1DEDDE0E3E6E8EBEDEFF1F3F5F6F85A
:10060200F9FAFBFCFDFDFEFEFEFEFEFDFDFCFBFA23
:10061200F9F8F6F5F3F1EFEDEAE8E5E3E0DDDEE126
:10062200E4E7E9ECEEF0F2F4F6F7F8FAFBFCFCFD95
:10063200FEFEFEFEFEFEFDFCFCFBFAF9F7F6F4F20E
:10064200F0EEECEAE7E4E2DFDCDFE2E5E8EAEDEF38
:10065200F1F3F5F6F8F9FAFBFCFDFDFEFEFEFEFEF7
:10066200FDFDFCFBFAF9F8F7F5F3F1EFEDEBE9E646
:10067200E3E0DDDEE1E3E6E9EBEDF0F2F3F5F7F8D6
:10068200F9FAFBFCFDFDFEFEFEFEFEFDFDFCFBFAA3
:10069200F9F8F6F4F3F1EFECEAE8E5E2DFDCDFE2A9
:1006A200E4E7EAECEEF0F2F4F6F7F9FAFBFCFDFD12
:1006B200FEFEFEFEFEFDFDFCFCFBFAF8F7F5F4F291
:0806C200F0EEECE9E7E4E1DEF3
:0214C500AB0773
:1014C700E4FAEAC394FF748094805039EA9008FEE6
:1014D70093FF7E00EBFD7C001203F9EEFF741D2ADB
:1014E700F582E43400F583EFF0EA9009FE93FF7E7E
:1014F700001203F9EEFF741D2AF582E43401F58327
:05150700EFF00A80BDB9
:01150C0022BC
:100AFE00C0D075D010AD17741D2DF582E43400F5FD
:100B0E0083E0755800F559741D2DF582E43401F516
:100B1E0083E0755A00F55BC374FF955BFFE4955A4D
:100B2E00C313F55EEF13F55F855E62F5632559F528
:100B3E0061E55E3558F560E55F255BF55DE55E3593
:100B4E005AF55CC2AFEDFF7E00C3942B7480948087
:100B5E00501B75C7AA75C755759101855FCC75C7B2
:100B6E00AA75C755E4F5918561DC020C26C3EF9496
:100B7E0055EE64809480501A75C7AA75C755759145
:100B8E0001855FCC75C7AA75C755E4F5918561DA05
:100B9E008023C3EF9480EE64809480501D855FDACD
:100BAE0075C7AA75C7557591018561CC75C7AA75AC
:100BBE00C755E4F591855DDC8061C3EF94ABEE64BF
:100BCE008094805008855FDA8561DC8011C3EF94D4
:100BDE00D5EE64809480501D855FDC8561DA75C723
:100BEE00AA75C755759101855DCC75C7AA75C75590
:100BFE00E4F5918026C3EF94FFEE64809480501B41
:100C0E00855FDC75C7AA75C7557591018561CC7571
:100C1E00C7AA75C755E4F591855DDAE4F5FB43DFA8
:090C2E001043D840D2AFD0D0220F
:10008600020291E86480F8E933E83360110460F015
:10009600ED33EC337009E8FCE9FDEAFEEBFF2204E0
:1000A60060DED3EB9FEA9EE99DE8C2E78CF0C2F7DB
:1000B60095F0400CE8CCF8E9CDF9EACEFAEBCFFBA7
:1000C60012025C85D0F05804700320D5B3E80470A2
:1000D600075002B2D502029B92D5EC0460F7E4CC3D
:1000E600C0E0C398F8603B94186008400DD0E0FB70
:1000F600020273E4FBFAC9FC8028E830E406E4C98E
:10010600FBE4CAFCE830E305E4C9CACBFCE85407C3
:100116006010F8C3E913F9EA13FAEB13FBEC13FCCE
:10012600D8F130F52FC3E49CFCEF9BFFEE9AFEED71
:1001360099FDD0E0FBEF4E4D4C701222DB0302021C
:1001460098EC2CFCEF33FFEE33FEED33FDED30E79C
:10015600EB020273EF2BFFEE3AFEED39FDD0E0FB2A
:1001660050130BBB000302029BED13FDEE13FEEFD3
:0801760013FFEC13FC020273FD
:10017E0002029BEC5D046005E859047003020291D3
:10018E0012025C580460F6EC4860F2EC7004FDFE5E
:10019E00FF22C860DB2481C85009C3986002500654
:1001AE000202989850CAF582E9294B4A7005AB8233
:1001BE0002028775F0007C1A7880C3EF9BEE9AEDF1
:1001CE0099400DC3EF9BFFEE9AFEED99FDE842F0CC
:1001DE00DC23ACF0D0E0FFD0E0FED0E0FDAB82201F
:1001EE00E7101BEB60BAEC2CFCEF33FFEE33FEEDA9
:1001FE0033FD020273E803F830E705C0F075F00036
:10020E00EF2FFFEE33FEED33FD40B830E7C280AA8C
:10021E0075F020800E75F010800575F0087D007E5B
:10022E00007F003392D530D50312040BEC3340100F
:10023E00EF33FFEE33FEED33FDEC33FCD5F0ED2264
:0E024E00E5F0247EA2D513CC92E7CDCEFF22A0
:100D6F003E9248DA3ECCCCCD3F2AAAAB40000000E1
:100D7F003F8000003F9837F03FB504F33FD744FC66
:100D8F003E3172173EB172173F0515913EDE5BD9AA
:100D9F00D2158002C215EDD2E7F8CD33EC330470D3
:100DAF000BBD800592D502029B02029140FBD3142A
:100DBF0060F2F5F07C3FEE7A00C39496C8948B40B6
:100DCF00230AC89469C8941A401A0AC89468C89428
:100DDF001F40110AC8945AC89425400805F07A009C
:100DEF00CDC2E7CDC0F08C688D698E6A8F6BEA2318
:100DFF0023C0E0247FF582E4340DF5831204291219
:100E0F00008DECC0E0EDC0E0EEC0E0EFC0E01204FA
:100E1F0019A868A969AA6AAB6B120089D0E0FBD048
:100E2F00E0FAD0E0F9D0E0B2E7F81201818C688DDA
:100E3F00698E6A8F6B900D6F74031203ACA868A94B
:100E4F0069AA6AAB6B1202A6D0E0600F248BF58201
:100E5F00E4340DF58312042912008D8C688D698E90
:100E6F006A8F6BD0E0C3947FFDE49400FC120223E1
:100E7F007B187A727931783F1202A6A868A969AAFD
:100E8F006AAB6B12008D30150B7BD97A5B79DE78EC
:050E9F003E1202A62234
:10025C00E9D2E7C933E833F892D5EDD2E7CD33ECE8
:07026C0033FC5002B2D52261
:10027300EC30E7100FBF000C0EBE00080DBD0004EC
:100283000BEB6014A2D5EB13FCED92E7FD2274FF98
:10029300FCFDFEFF22E480F8A2D574FF13FC7D80F1
:0302A300E480EF05
:1002A600EC4D6011E8497017ED33EC3304600DE452
:1002B600FCFFFEFD22E933E8330470F802029112D6
:1002C600025C58046009E4CC2481500628500902D7
:1002D600029B284003020298C0E0EB4A7044B980B2
:1002E60006D0E0FB020287EF4E701CBD8008EBFFD4
:1002F600EAFEE9FD80EBE98DF0A4FEE5F002038F4E
:10030600E9CDF9EAFEEBFFEF89F0A4FCE5F0CE8932
:10031600F0A42EFFE435F0CD89F0A42DFEE435F0EF
:100326008067EF4E7005BD80D780C3EF8BF0A4AC1D
:10033600F0EE8BF0A42CFCE435F0F8EF8AF0A42C58
:10034600E5F038FCE433CB8DF0A42CFCE5F03BF86B
:10035600EE8AF0A42CFCE5F038F8E433CF89F0A45B
:100366002CFCE5F038CF3400CE89F0A42FFFE5F061
:100376003EFEE433C98DF0A42EFEE5F039CD8AF0B9
:10038600A42FFFE5F03EFEE43DFD33D0E0FB500731
:100396000BBB000F02029BEC2CFCEF33FFEE33FE8F
:0603A600ED33FD020273BD
:1003AC00C0E0EFFBEEFAEDF9ECF81202A6D0E0F5A6
:1003BC00F0EFFBEEFAEDF9ECF8120419A3A3A3A3EA
:1003CC00E8C0E0E9C0E0EAC0E0EBC0E0C0F0120237
:1003DC00A6120429A3A3A3A312008DD0F0D0E0FB96
:0D03EC00D0E0FAD0E0F9D0E0F8D5F0D4224E
:030000000211F8F2
:0C11F800787FE4F6D8FD75816F02123F8D
:1003F900EF8DF0A4A8F0CF8CF0A428CE8DF0A42E18
:02040900FE22D1
:0E040B00C3E49FFFE49EFEE49DFDE49CFC2202
:10041900E493FC740193FD740293FE740393FF2229
:10042900E493F8740193F9740293FA740393FB2229
:1012040002154AE493A3F8E493A34003F68001F2A1
:1012140008DFF48029E493A3F85407240CC8C333EB
:10122400C4540F4420C8834004F456800146F6DFBA
:10123400E4800B0102040810204080900439E47E0D
:10124400019360BCA3FF543F30E509541FFEE493AF
:10125400A360010ECF54C025E060A840B8E493A376
:10126400FAE493A3F8E493A3C8C582C8CAC583CAA1
:10127400F0A3C8C582C8CAC583CADFE9DEE780BE59
:0106CA00002F
:00000001FF
