:030000000208E90A
:0C08E900787FE4F6D8FD758163020930C9
:1002CE0000060C13191F252B32383E444A50565C3B
:1002DE0061676D72787D83888D92979CA1A6ABAF76
:1002EE00B4B8BCC0C5C8CCD0D3D7DADBD8D4D1CD46
:1002FE00C9C5C1BDB9B5B0ACA7A29E99948E89846B
:10030E007F79746E68635D57514B453F39332D27A6
:10031E00211A140E0801050B11171E242A30363C23
:10032E0042484E545A60666B71777C81878C9196E9
:10033E009BA0A5AAAEB3B7BBC0C4C7CBCFD3D6D9EB
:10034E00DCD8D5D2CECAC6C2BEBAB6B1ADA8A49FAD
:10035E009A95908B85807A756F6A645E58534D4777
:10036E00413B352E28221C160F0903030A10161CBA
:10037E0022292F353B41474D53595F646A70757B77
:10038E0080868B90959A9FA4A9ADB2B6BABFC3C70B
:10039E00CACED2D5D8DCD9D6D2CFCBC7C3BFBBB786
:1003AE00B2AEA9A5A09B96918C86817C76716B6569
:1003BE00605A544E48423C36302A241D17110B0405
:1003CE00DCDFE2E5E7EAECEEF1F2F4F6F7F9FAFB40
:1003DE00FCFDFDFEFEFEFEFEFDFDFCFCFBF9F8F74E
:1003EE00F5F4F2F0EEEBE9E6E4E1DEDDE0E3E6E87B
:1003FE00EBEDEFF1F3F5F6F8F9FAFBFCFDFDFEFE81
:10040E00FEFEFEFDFDFCFBFAF9F8F6F5F3F1EFED5D
:10041E00EAE8E5E3E0DDDEE1E4E7E9ECEEF0F2F454
:10042E00F6F7F8FAFBFCFCFDFEFEFEFEFEFEFDFC02
:10043E00FCFBFAF9F7F6F4F2F0EEECEAE7E4E2DFB1
:10044E00DCDFE2E5E8EAEDEFF1F3F5F6F8F9FAFBB9
:10045E00FCFDFDFEFEFEFEFEFDFDFCFBFAF9F8F7CF
:10046E00F5F3F1EFEDEBE9E6E3E0DDDEE1E3E6E9FE
:10047E00EBEDF0F2F3F5F7F8F9FAFBFCFDFDFEFEFD
:10048E00FEFEFEFDFDFCFBFAF9F8F6F4F3F1EFECDF
:10049E00EAE8E5E2DFDCDFE2E4E7EAECEEF0F2F4D4
:1004AE00F6F7F9FAFBFCFDFDFEFEFEFEFEFDFDFC81
:1004BE00FCFBFAF8F7F5F4F2F0EEECE9E7E4E1DE36
:100086006100000000060C13191F252B32383E4470
:100096004A50565C61676D72787D83888D92979C15
:1000A600A1A6ABAFB4B8BCC0C5C8CCD0D3D7DADB39
:1000B600D8D4D1CDC9C5C1BDB9B5B0ACA7A29E999A
:1000C600948E89847F79746E68635D57514B453F82
:1000D60039332D27211A140E0801050B11171E247A
:1000E6002A30363C42484E545A60666B71777C81A2
:1000F600878C91969BA0A5AAAEB3B7BBC0C4C7CB4D
:10010600CFD3D6D9DCD8D5D2CECAC6C2BEBAB6B13E
:10011600ADA8A49F9A95908B85807A756F6A645E68
:1001260058534D47413B352E28221C160F09030311
:100136000A10161C22292F353B41474D53595F643F
:100146006A70757B80868B90959A9FA4A9ADB2B68E
:10015600BABFC3C7CACED2D5D8DCD9D6D2CFCBC7C1
:10016600C3BFBBB7B2AEA9A5A09B96918C86817C76
:1001760076716B65605A544E48423C36302A241DCF
:1001860017110B0461000100DCDFE2E5E7EAECEEA3
:10019600F1F2F4F6F7F9FAFBFCFDFDFEFEFEFEFEBB
:1001A600FDFDFCFCFBF9F8F7F5F4F2F0EEEBE9E601
:1001B600E4E1DEDDE0E3E6E8EBEDEFF1F3F5F6F89A
:1001C600F9FAFBFCFDFDFEFEFEFEFEFDFDFCFBFA64
:1001D600F9F8F6F5F3F1EFEDEAE8E5E3E0DDDEE167
:1001E600E4E7E9ECEEF0F2F4F6F7F8FAFBFCFCFDD6
:1001F600FEFEFEFEFEFEFDFCFCFBFAF9F7F6F4F24F
:10020600F0EEECEAE7E4E2DFDCDFE2E5E8EAEDEF78
:10021600F1F3F5F6F8F9FAFBFCFDFDFEFEFEFEFE37
:10022600FDFDFCFBFAF9F8F7F5F3F1EFEDEBE9E686
:10023600E3E0DDDEE1E3E6E9EBEDF0F2F3F5F7F816
:10024600F9FAFBFCFDFDFEFEFEFEFEFDFDFCFBFAE3
:10025600F9F8F6F4F3F1EFECEAE8E5E2DFDCDFE2E9
:10026600E4E7EAECEEF0F2F4F6F7F9FAFBFCFDFD52
:10027600FEFEFEFEFEFDFDFCFCFBFAF8F7F5F4F2D1
:08028600F0EEECE9E7E4E1DE33
:020AF500AB074D
:100AF700E4FAEAC394FF748094805039EA9002CEF6
:100B070093FF7E00EBFD7C00120862EEFF74002A63
:100B1700F582E43400F583EFF0EA9003CE93FF7E8D
:100B270000120862EEFF74002AF582E43401F583AF
:050B3700EFF00A80BD93
:010B3C002296
:1004CE00AD0774002DF582E43400F583E075550018
:1004DE00F55674002DF582E43401F583E07557006E
:1004EE00F558C374FF9558FFE49557C313F55BEFAA
:1004FE0013F55C855B5FF5602556F55EE55B35555E
:10050E00F55DE55C2558F55AE55B3557F559C2AFF3
:10051E00EDFF7E00C3942B74809480501B75C7AA88
:10052E0075C755759101855CCC75C7AA75C755E41D
:10053E00F591855EDC0205F1C3EF9455EE6480946F
:10054E0080501A75C7AA75C755759101855CCC7513
:10055E00C7AA75C755E4F591855EDA8023C3EF947B
:10056E0080EE64809480501D855CDA75C7AA75C7CD
:10057E0055759101855ECC75C7AA75C755E4F59181
:10058E00855ADC8061C3EF94ABEE64809480500892
:10059E00855CDA855EDC8011C3EF94D5EE648094C1
:1005AE0080501D855CDC855EDA75C7AA75C75575EA
:1005BE009101855ACC75C7AA75C755E4F591802669
:1005CE00C3EF94FFEE64809480501B855CDC75C78E
:1005DE00AA75C755759101855ECC75C7AA75C755A5
:1005EE00E4F591855ADAE4F5FB43DF1043D840D2A7
:0205FE00AF222A
:0A0CB300303132333435363738392A
:10028E00C109C18A023200BD023A0004023C00DB01
:10029E00012801013001013104023E1770022B00CA
:1002AE0000012F0002240000015400022900000268
:0D02BE00380000013500013400022D000061
:0300230002003E9A
:10003E00C0E0C0D075D008309904C299C20830987B
:10004E000FC298AF37053774442FF8A69953370F60
:05005E00D0D0D0E0321B
:01000A0022D3
:100C61007E00CFCDCFCECCCE12087474B32FF582D7
:080C7100740C3EF583E493FFCF
:080C79002008FDD2088F99222A
:100C1A008B618A628963AB61AA62A963120849601F
:100C2A00130563E5637002056214F9120849FF129D
:050C3A000C7980E222AC
:100C81008F158E148D138C12781274FF1208CBEC11
:060C91004D4E4F70F322EE
:100B7F00AB07AA067C037DE81208747F64120C6130
:100B8F007C007D64AF03AE021208747F0A120C6101
:100B9F00AE02AF037C007D0A12087474B32DF58288
:0B0BAF00740C3CF583E493FF020C790A
:10097500E4F58975C969439210F59375941075F17D
:100985000475CBFF75CBFEF5C575C6F0439C0253C8
:10099500C4EF43C408758D70758B24439B0443C80D
:1009A5000443F70453EFFB43EF8053F77F4389017B
:1009B500758AAB758C2FC28DD28CD2A975E9FD4392
:1009C500EA5843EB38439B0243F78043EF8043EFFC
:0709D5002643FF02D2AF220E
:02000E008F124F
:10001000A20B920C120003AF12120AF5A20B920A65
:0100200022BD
:03003B00020BF3C2
:100BF300C0E0C0D0E5EC30E61653ECB0C3E52E946C
:100C0300FFE52D94005008052EE52E7002052D7585
:070C1300EC00D0D0D0E0326C
:03000B00020BBA2B
:100BBA00C0E0C0D0C28CC28D758AAB758C2F752DE2
:100BCA0000752E40C3E534952EE4952D5002053468
:100BDA00D3E534952EE4952D40021534752D007514
:090BEA002E00D28CD0D0D0E032F4
:0507A600C0D075D00871
:1007AB00AEC9EE24B7605024F0602824F0706AAE16
:1007BB00E5EEC394017480948050047F02805AAE9E
:1007CB00E5EEC394037480948050047F01804AE467
:1007DB00FF8046AEE5EEC394027480948050047F94
:1007EB00028036AEE5EEC394067480948050047F8D
:1007FB00018026E4FF8022AEE5EEC394047480945E
:10080B008050047F028012AEE5EEC3940C7480948A
:10081B008050047F018002E4FF853028EF14600DC7
:10082B00146012800075C969753001800E75C95945
:0B083B00753002800675C94975300455
:03084600D0D022ED
:04006600439B08228E
:0B0CA80053C4E78DC58FC643C408226B
:030063000206DEB4
:1006DE00C0E0C0D075D0185392FE300A08853C3861
:1006EE00853D3980068532388533398540428541CE
:1006FE0043AFE5EFFEADE47C00E42DF541EC3EF5B5
:10070E0040AFC9EF249760112410701EE54125E01B
:10071E00F541E54033F5408011AE40E5417802C326
:10072E0033CE33CED8F9F5418E40C374FF95E5FF35
:10073E00C374FF95E4FD120CA81207A6D3E54195EC
:10074E003FE540953E5047AE42E543A8310880054F
:10075E00CEC313CE13D8F9FFC3E5439FFDE5429EEA
:10076E00FCC3E5419DE5409C4024E5432FFFE54257
:10077E003EFED3E5419FE5409E5013C3E52F940402
:10078E00748094804004D2098009052F8005752F4E
:08079E0000C209D0D0D0E03206
:03008300020B3D30
:100B3D00C0E0C0D053C4EFC3E53994FBE538940051
:100B4D00500DE5282539F539E43538F53880067529
:100B5D00380075390085382985392A30090F300A52
:100B6D000CC374FF952AF52AE49529F529D0D0D028
:020B7D00E03264
:03006B00020CBDC7
:060CBD00C2DD43E84032F5
:1000260075E80475E10775CF19E4F5CE75E31C751F
:03003600E2A02223
:1009DC00120A9F120C3FD20B7F4112000E53B1FB37
:1009EC0043B20453B3B053B4B0D282E4F510F51152
:1009FC00C3E53994FBE5389400500DE5282539F50D
:100A0C0039E43538F5388005E4F538F5397F137E4F
:100A1C00007D007C00120C81AF11AE101204CE05CB
:100A2C0011E51170020510C394FEE510940040C04E
:020A3C0080B97F
:0202CB00C187E9
:07000300A20C92078F1622E8
:100C9700C0D0A2959204A2939205A2949206D0D0B6
:010CA700222A
:100C3F0053B3C753B4C775C7AA75C7557591014349
:100C4F00B31875C7AA75C755E4F591D295D293D24B
:020C5F009422DD
:100A3E00C0D075D00830952A30931930940B300DF4
:100A4E00047F0580497F038045300D047F04803E7E
:100A5E007F02803A209435300D047F0380307F0171
:100A6E00802C30930E309424300D047F06801F7F2F
:100A7E0004801B30940B300D047F0180117F0580A4
:100A8E000D300D047F0280067F0680027F00D0D0DD
:010A9E002235
:10060000C0D0C2AFEF24FE603C14605014606C1484
:10061000700302069A1470030206B92405600302EF
:1006200006D975FB308516DAE4F5DC43D84075C78A
:10063000AA75C75575910175B71075C7AA75C755C5
:10064000F5910206D975FB0C8516DA75C7AA75C730
:1006500055759101E4F5CC75B710801575FB0385D0
:1006600016DC75C7AA75C755759101E4F5CC75B749
:100670001275C7AA75C755F591805B75FB30851655
:10068000DC75C7AA75C75575910175B71275C7AAEC
:1006900075C755E4F591F5DA803C75FB0C75C7AA72
:1006A00075C7557591018516CC75B71475C7AA75B0
:1006B000C755E4F591F5DA801D75FB0375C7AA757A
:1006C000C7557591018516CC75B71475C7AA75C73E
:0E06D00055E4F591F5DC43D840D2AFD0D022EE
:10006E00C0D075D008A207920D120A3E120600D01B
:02007E00D0228E
:040CC30075FB3F225C
:100A9F0053B1F443B20B53B3F843B40775DE3F754C
:100AAF00DF5075FB3FE4F5FCF5D6F5D775D9FFF5AB
:100ABF00D1F5DCF5D4F5DAF5D275C7AA75C755753A
:100ACF009101F5CCF5C475C7AA75C755F59175C7D2
:100ADF00AA75C75575F90775C7AA75C75575FA0E63
:060AEF0075D8C0020CC323
:1008F5000209DCE493A3F8E493A34003F68001F234
:1009050008DFF48029E493A3F85407240CC8C33303
:10091500C4540F4420C8834004F456800146F6DFD2
:10092500E4800B0102040810204080900086E47EDC
:10093500019360BCA3FF543F30E509541FFEE493C7
:10094500A360010ECF54C025E060A840B8E493A38E
:10095500FAE493A3F8E493A3C8C582C8CAC583CAB9
:10096500F0A3C8C582C8CAC583CADFE9DEE780BE71
:0102CD000030
:10084900BB010689828A83E0225002E722BBFE02AD
:09085900E32289828A83E49322E0
:10086200EF8DF0A4A8F0CF8CF0A428CE8DF0A42EAA
:02087200FE2264
:10087400BC000BBE0029EF8DF084FFADF022E4CC68
:10088400F875F008EF2FFFEE33FEEC33FCEE9DEC31
:10089400984005FCEE9DFE0FD5F0E9E4CEFD22ED77
:1008A400F8F5F0EE8420D21CFEADF075F008EF2FC1
:1008B400FFED33FD4007985006D5F0F222C398FDB2
:0508C4000FD5F0EA224F
:1008C9007401FF3395E0FEFDFC080808E6CF2FF61A
:1008D90018E6CE3EF618E6CD3DF618E6CC3CF622F3
:00000001FF
