:030000000208F003
:0C08F000787FE4F6D8FD758161020937BD
:1002CE0000060C13191F252B32383E444A50565C3B
:1002DE0061676D72787D83888D92979CA1A6ABAF76
:1002EE00B4B8BCC0C5C8CCD0D3D7DADBD8D4D1CD46
:1002FE00C9C5C1BDB9B5B0ACA7A29E99948E89846B
:10030E007F79746E68635D57514B453F39332D27A6
:10031E00211A140E0801050B11171E242A30363C23
:10032E0042484E545A60666B71777C81878C9196E9
:10033E009BA0A5AAAEB3B7BBC0C4C7CBCFD3D6D9EB
:10034E00DCD8D5D2CECAC6C2BEBAB6B1ADA8A49FAD
:10035E009A95908B85807A756F6A645E58534D4777
:10036E00413B352E28221C160F0903030A10161CBA
:10037E0022292F353B41474D53595F646A70757B77
:10038E0080868B90959A9FA4A9ADB2B6BABFC3C70B
:10039E00CACED2D5D8DCD9D6D2CFCBC7C3BFBBB786
:1003AE00B2AEA9A5A09B96918C86817C76716B6569
:1003BE00605A544E48423C36302A241D17110B0405
:1003CE00DCDFE2E5E7EAECEEF1F2F4F6F7F9FAFB40
:1003DE00FCFDFDFEFEFEFEFEFDFDFCFCFBF9F8F74E
:1003EE00F5F4F2F0EEEBE9E6E4E1DEDDE0E3E6E87B
:1003FE00EBEDEFF1F3F5F6F8F9FAFBFCFDFDFEFE81
:10040E00FEFEFEFDFDFCFBFAF9F8F6F5F3F1EFED5D
:10041E00EAE8E5E3E0DDDEE1E4E7E9ECEEF0F2F454
:10042E00F6F7F8FAFBFCFCFDFEFEFEFEFEFEFDFC02
:10043E00FCFBFAF9F7F6F4F2F0EEECEAE7E4E2DFB1
:10044E00DCDFE2E5E8EAEDEFF1F3F5F6F8F9FAFBB9
:10045E00FCFDFDFEFEFEFEFEFDFDFCFBFAF9F8F7CF
:10046E00F5F3F1EFEDEBE9E6E3E0DDDEE1E3E6E9FE
:10047E00EBEDF0F2F3F5F7F8F9FAFBFCFDFDFEFEFD
:10048E00FEFEFEFDFDFCFBFAF9F8F6F4F3F1EFECDF
:10049E00EAE8E5E2DFDCDFE2E4E7EAECEEF0F2F4D4
:1004AE00F6F7F9FAFBFCFDFDFEFEFEFEFEFDFDFC81
:1004BE00FCFBFAF8F7F5F4F2F0EEECE9E7E4E1DE36
:100086006100000000060C13191F252B32383E4470
:100096004A50565C61676D72787D83888D92979C15
:1000A600A1A6ABAFB4B8BCC0C5C8CCD0D3D7DADB39
:1000B600D8D4D1CDC9C5C1BDB9B5B0ACA7A29E999A
:1000C600948E89847F79746E68635D57514B453F82
:1000D60039332D27211A140E0801050B11171E247A
:1000E6002A30363C42484E545A60666B71777C81A2
:1000F600878C91969BA0A5AAAEB3B7BBC0C4C7CB4D
:10010600CFD3D6D9DCD8D5D2CECAC6C2BEBAB6B13E
:10011600ADA8A49F9A95908B85807A756F6A645E68
:1001260058534D47413B352E28221C160F09030311
:100136000A10161C22292F353B41474D53595F643F
:100146006A70757B80868B90959A9FA4A9ADB2B68E
:10015600BABFC3C7CACED2D5D8DCD9D6D2CFCBC7C1
:10016600C3BFBBB7B2AEA9A5A09B96918C86817C76
:1001760076716B65605A544E48423C36302A241DCF
:1001860017110B0461000100DCDFE2E5E7EAECEEA3
:10019600F1F2F4F6F7F9FAFBFCFDFDFEFEFEFEFEBB
:1001A600FDFDFCFCFBF9F8F7F5F4F2F0EEEBE9E601
:1001B600E4E1DEDDE0E3E6E8EBEDEFF1F3F5F6F89A
:1001C600F9FAFBFCFDFDFEFEFEFEFEFDFDFCFBFA64
:1001D600F9F8F6F5F3F1EFEDEAE8E5E3E0DDDEE167
:1001E600E4E7E9ECEEF0F2F4F6F7F8FAFBFCFCFDD6
:1001F600FEFEFEFEFEFEFDFCFCFBFAF9F7F6F4F24F
:10020600F0EEECEAE7E4E2DFDCDFE2E5E8EAEDEF78
:10021600F1F3F5F6F8F9FAFBFCFDFDFEFEFEFEFE37
:10022600FDFDFCFBFAF9F8F7F5F3F1EFEDEBE9E686
:10023600E3E0DDDEE1E3E6E9EBEDF0F2F3F5F7F816
:10024600F9FAFBFCFDFDFEFEFEFEFEFDFDFCFBFAE3
:10025600F9F8F6F4F3F1EFECEAE8E5E2DFDCDFE2E9
:10026600E4E7EAECEEF0F2F4F6F7F9FAFBFCFDFD52
:10027600FEFEFEFEFEFDFDFCFCFBFAF8F7F5F4F2D1
:08028600F0EEECE9E7E4E1DE33
:020B6600AB07DB
:100B6800E4FAEAC394FF748094805039EA9002CE84
:100B780093FF7E00EBFD7C00120869EEFF74002AEB
:100B8800F582E43400F583EFF0EA9003CE93FF7E1C
:100B980000120869EEFF74002AF582E43401F58337
:050BA800EFF00A80BD22
:010BAD002225
:1004CE00C0D075D008AD0F74002DF582E43400F560
:1004DE0083E0755500F55674002DF582E43401F570
:1004EE0083E0755700F558C374FF9558FFE4955790
:1004FE00C313F55BEF13F55C855B5FF5602556F571
:10050E005EE55B3555F55DE55C2558F55AE55B35E1
:10051E0057F559C2AFEDFF7E00C3942B74809480C3
:10052E00501B75C7AA75C755759101855CCC75C7EB
:10053E00AA75C755E4F591855EDC0205F6C3EF9406
:10054E0055EE64809480501A75C7AA75C75575917B
:10055E0001855CCC75C7AA75C755E4F591855EDA41
:10056E008023C3EF9480EE64809480501D855CDA06
:10057E0075C7AA75C755759101855ECC75C7AA75E5
:10058E00C755E4F591855ADC8061C3EF94ABEE64F8
:10059E008094805008855CDA855EDC8011C3EF9410
:1005AE00D5EE64809480501D855CDC855EDA75C75F
:1005BE00AA75C755759101855ACC75C7AA75C755C9
:1005CE00E4F5918026C3EF94FFEE64809480501B77
:1005DE00855CDC75C7AA75C755759101855ECC75AE
:1005EE00C7AA75C755E4F591855ADAE4F5FB43DFE2
:0905FE001043D840D2AFD0D02246
:0A0CE40030313233343536373839F9
:10028E00C10EC18F023200BD023A0004023C00DBF7
:10029E00012801013001013104023E1770022B00CA
:1002AE0000012F0002240000015400022900000268
:0D02BE00380000013500013400022D000061
:0300230002003E9A
:10003E00C0E0C0D075D008309904C299C20D309876
:10004E000FC298AF37053774442FF8A69953370F60
:05005E00D0D0D0E0321B
:01000A0022D3
:100C92007E00CFCDCFCECCCE12087B74E42FF5826E
:080CA200740C3EF583E493FF9E
:080CAA00200DFDD20D8F9922EF
:100C4B008B158A168917AB15AA16A91712085060AF
:100C5B00130517E5177002051614F9120850FF1249
:050C6B000CAA80E2224A
:100CB2008F138E128D118C10781074FF1208D2ECE3
:060CC2004D4E4F70F322BD
:100BAE00AB07AA067C037DE812087B7F64120C92C9
:100BBE007C007D64AF03AE0212087B7F0A120C929A
:100BCE00AE02AF037C007D0A12087B74E42DF58221
:0B0BDE00740C3CF583E493FF020CAAAA
:1009EB00E4F58975C969439210F59375941075F107
:1009FB000475CBFF75CBFEF5C575C6F0439C025352
:100A0B00C4EF43C408758D70758B24439B0443C896
:100A1B000443F70453EFFB43EF8053F77F43890104
:100A2B00758AAB758C2FC28DD28CD2A975E9FD431B
:100A3B00EA5843EB38439B0243F78043EF8043EF85
:070A4B002643FF02D2AF2297
:02000E008F144D
:10001000A2029203120003AF14120B66A202920F07
:0100200022BD
:03003B00020C2490
:100C2400C0E0C0D0E5EC30E61653ECB0C3E52E943A
:100C3400FFE52D94005008052EE52E7002052D7554
:070C4400EC00D0D0D0E0323B
:03000B0002097C6B
:10097C00C0E0C0F0C083C082C0D075D000C000C041
:10098C0001C002C003C004C005C006C007C28CC2AF
:10099C008D758AAB758C2F752D00752E40C3E53483
:1009AC00952EE4952D50020534D3E534952EE4951F
:1009BC002D40021534D202AF3412000E752D007585
:1009CC002E00D28CD007D006D005D004D003D00294
:0F09DC00D001D000D0D0D082D083D0F0D0E03284
:0507AD00C0D075D0086A
:1007B200AEC9EE24B7605024F0602824F0706AAE0F
:1007C200E5EEC394017480948050047F02805AAE97
:1007D200E5EEC394037480948050047F01804AE460
:1007E200FF8046AEE5EEC394027480948050047F8D
:1007F200028036AEE5EEC394067480948050047F86
:10080200018026E4FF8022AEE5EEC3940474809456
:100812008050047F028012AEE5EEC3940C74809483
:100822008050047F018002E4FF853028EF14600DC0
:10083200146012800075C969753001800E75C9593E
:0B084200753002800675C9497530044E
:03084D00D0D022E6
:04006600439B08228E
:0B0CD90053C4E78DC58FC643C408223A
:030063000206E5AD
:1006E500C0E0C0D075D0185392FE300F08853C3855
:1006F500853D3980068532388533398540428541C7
:1007050043AFE5EFFEADE47C00E42DF541EC3EF5AD
:1007150040AFC9EF249760112410701EE54125E014
:10072500F541E54033F5408011AE40E5417802C31F
:1007350033CE33CED8F9F5418E40C374FF95E5FF2E
:10074500C374FF95E4FD120CD91207ADD3E54195AD
:100755003FE540953E5047AE42E543A83108800548
:10076500CEC313CE13D8F9FFC3E5439FFDE5429EE3
:10077500FCC3E5419DE5409C4024E5432FFFE54250
:100785003EFED3E5419FE5409E5013C3E52F9404FB
:10079500748094804004D20E8009052F8005752F42
:0807A50000C20ED0D0D0E032FA
:03008300020AB3BB
:100AB300C0E0C0F0C083C082C0D075D00853C4EF7B
:100AC300C3E53994FBE5389400500DE5282539F545
:100AD30039E43538F53880067538007539008538BE
:100AE3002985392A300E18300F0CC374FF952AF567
:100AF3002AE49529F529AF2AAE291204CE800312E0
:0D0B0300006ED0D0D082D083D0F0D0E03290
:03006B00020CEE96
:060CEE00C2DD43E84032C4
:1000260075E80475E10775CF19E4F5CE75E31C751F
:03003600E2A02223
:100BE900120B10120C70120026D202E4FF12000E32
:100BF9001209EB53B1FB43B20453B3B053B4B0D2AF
:100C090082E4FBFA7FB87E0B7D007C00120CB20BEC
:0B0C1900BB00010AEBF44A70EB80E620
:0202CB00C18CE4
:07000300A203920C8F6122A1
:100CC800C0D0A2959209A293920AA294920BD0D076
:010CD80022F9
:100C700053B3C753B4C775C7AA75C7557591014318
:100C8000B31875C7AA75C755E4F591D295D293D21A
:020C90009422AC
:100A5200C0D075D00830952A30931930940B3004E9
:100A6200047F0580497F0380453004047F04803E73
:100A72007F02803A2094353004047F0380307F0166
:100A8200802C30930E3094243004047F06801F7F24
:100A920004801B30940B3004047F0180117F058099
:100AA2000D3004047F0280067F0680027F00D0D0D2
:010AB2002221
:10060700C0D0C2AFEF24FE603C14605014606C147D
:1006170070030206A11470030206C02405600302DA
:1006270006E075FB308561DAE4F5DC43D84075C731
:10063700AA75C75575910175B71075C7AA75C755BE
:10064700F5910206E075FB0C8561DA75C7AA75C7D7
:1006570055759101E4F5CC75B710801575FB0385C9
:1006670061DC75C7AA75C755759101E4F5CC75B7F7
:100677001275C7AA75C755F591805B75FB30856103
:10068700DC75C7AA75C75575910175B71275C7AAE5
:1006970075C755E4F591F5DA803C75FB0C75C7AA6B
:1006A70075C7557591018561CC75B71475C7AA755E
:1006B700C755E4F591F5DA801D75FB0375C7AA7573
:1006C700C7557591018561CC75B71475C7AA75C7EC
:0E06D70055E4F591F5DC43D840D2AFD0D022E7
:10006E00C0D075D008A20C9204120A52120607D004
:02007E00D0228E
:040CF40075FB3F222B
:100B100053B1F443B20B53B3F843B40775DE3F75DA
:100B2000DF5075FB3FE4F5FCF5D6F5D775D9FFF539
:100B3000D1F5DCF5D4F5DAF5D275C7AA75C75575C8
:100B40009101F5CCF5C475C7AA75C755F59175C760
:100B5000AA75C75575F90775C7AA75C75575FA0EF1
:060B600075D8C0020CF480
:1008FC00020BE9E493A3F8E493A34003F68001F21E
:10090C0008DFF48029E493A3F85407240CC8C333FC
:10091C00C4540F4420C8834004F456800146F6DFCB
:10092C00E4800B0102040810204080900086E47ED5
:10093C00019360BCA3FF543F30E509541FFEE493C0
:10094C00A360010ECF54C025E060A840B8E493A387
:10095C00FAE493A3F8E493A3C8C582C8CAC583CAB2
:10096C00F0A3C8C582C8CAC583CADFE9DEE780BE6A
:0102CD000030
:10085000BB010689828A83E0225002E722BBFE02A6
:09086000E32289828A83E49322D9
:10086900EF8DF0A4A8F0CF8CF0A428CE8DF0A42EA3
:02087900FE225D
:10087B00BC000BBE0029EF8DF084FFADF022E4CC61
:10088B00F875F008EF2FFFEE33FEEC33FCEE9DEC2A
:10089B00984005FCEE9DFE0FD5F0E9E4CEFD22ED70
:1008AB00F8F5F0EE8420D21CFEADF075F008EF2FBA
:1008BB00FFED33FD4007985006D5F0F222C398FDAB
:0508CB000FD5F0EA2248
:1008D0007401FF3395E0FEFDFC080808E6CF2FF613
:1008E00018E6CE3EF618E6CD3DF618E6CC3CF622EC
:00000001FF
