:03000000020A747D
:0C0A7400787FE4F6D8FD758161020ABBB2
:1005040000060C13191F252B32383E444A50565C02
:1005140061676D72787D83888D92979CA1A6ABAF3D
:10052400B4B8BCC0C5C8CCD0D3D7DADBD8D4D1CD0D
:10053400C9C5C1BDB9B5B0ACA7A29E99948E898432
:100544007F79746E68635D57514B453F39332D276E
:10055400211A140E0801050B11171E242A30363CEB
:1005640042484E545A60666B71777C81878C9196B1
:100574009BA0A5AAAEB3B7BBC0C4C7CBCFD3D6D9B3
:10058400DCD8D5D2CECAC6C2BEBAB6B1ADA8A49F75
:100594009A95908B85807A756F6A645E58534D473F
:1005A400413B352E28221C160F0903030A10161C82
:1005B40022292F353B41474D53595F646A70757B3F
:1005C40080868B90959A9FA4A9ADB2B6BABFC3C7D3
:1005D400CACED2D5D8DCD9D6D2CFCBC7C3BFBBB74E
:1005E400B2AEA9A5A09B96918C86817C76716B6531
:1005F400605A544E48423C36302A241D17110B04CD
:10060400DCDFE2E5E7EAECEEF1F2F4F6F7F9FAFB07
:10061400FCFDFDFEFEFEFEFEFDFDFCFCFBF9F8F715
:10062400F5F4F2F0EEEBE9E6E4E1DEDDE0E3E6E842
:10063400EBEDEFF1F3F5F6F8F9FAFBFCFDFDFEFE48
:10064400FEFEFEFDFDFCFBFAF9F8F6F5F3F1EFED25
:10065400EAE8E5E3E0DDDEE1E4E7E9ECEEF0F2F41C
:10066400F6F7F8FAFBFCFCFDFEFEFEFEFEFEFDFCCA
:10067400FCFBFAF9F7F6F4F2F0EEECEAE7E4E2DF79
:10068400DCDFE2E5E8EAEDEFF1F3F5F6F8F9FAFB81
:10069400FCFDFDFEFEFEFEFEFDFDFCFBFAF9F8F797
:1006A400F5F3F1EFEDEBE9E6E3E0DDDEE1E3E6E9C6
:1006B400EBEDF0F2F3F5F7F8F9FAFBFCFDFDFEFEC5
:1006C400FEFEFEFDFDFCFBFAF9F8F6F4F3F1EFECA7
:1006D400EAE8E5E2DFDCDFE2E4E7EAECEEF0F2F49C
:1006E400F6F7F9FAFBFCFDFDFEFEFEFEFEFDFDFC49
:1006F400FCFBFAF8F7F5F4F2F0EEECE9E7E4E1DEFE
:100086006100000000060C13191F252B32383E4470
:100096004A50565C61676D72787D83888D92979C15
:1000A600A1A6ABAFB4B8BCC0C5C8CCD0D3D7DADB39
:1000B600D8D4D1CDC9C5C1BDB9B5B0ACA7A29E999A
:1000C600948E89847F79746E68635D57514B453F82
:1000D60039332D27211A140E0801050B11171E247A
:1000E6002A30363C42484E545A60666B71777C81A2
:1000F600878C91969BA0A5AAAEB3B7BBC0C4C7CB4D
:10010600CFD3D6D9DCD8D5D2CECAC6C2BEBAB6B13E
:10011600ADA8A49F9A95908B85807A756F6A645E68
:1001260058534D47413B352E28221C160F09030311
:100136000A10161C22292F353B41474D53595F643F
:100146006A70757B80868B90959A9FA4A9ADB2B68E
:10015600BABFC3C7CACED2D5D8DCD9D6D2CFCBC7C1
:10016600C3BFBBB7B2AEA9A5A09B96918C86817C76
:1001760076716B65605A544E48423C36302A241DCF
:1001860017110B0461000100DCDFE2E5E7EAECEEA3
:10019600F1F2F4F6F7F9FAFBFCFDFDFEFEFEFEFEBB
:1001A600FDFDFCFCFBF9F8F7F5F4F2F0EEEBE9E601
:1001B600E4E1DEDDE0E3E6E8EBEDEFF1F3F5F6F89A
:1001C600F9FAFBFCFDFDFEFEFEFEFEFDFDFCFBFA64
:1001D600F9F8F6F5F3F1EFEDEAE8E5E3E0DDDEE167
:1001E600E4E7E9ECEEF0F2F4F6F7F8FAFBFCFCFDD6
:1001F600FEFEFEFEFEFEFDFCFCFBFAF9F7F6F4F24F
:10020600F0EEECEAE7E4E2DFDCDFE2E5E8EAEDEF78
:10021600F1F3F5F6F8F9FAFBFCFDFDFEFEFEFEFE37
:10022600FDFDFCFBFAF9F8F7F5F3F1EFEDEBE9E686
:10023600E3E0DDDEE1E3E6E9EBEDF0F2F3F5F7F816
:10024600F9FAFBFCFDFDFEFEFEFEFEFDFDFCFBFAE3
:10025600F9F8F6F4F3F1EFECEAE8E5E2DFDCDFE2E9
:10026600E4E7EAECEEF0F2F4F6F7F9FAFBFCFDFD52
:10027600FEFEFEFEFEFDFDFCFCFBFAF8F7F5F4F2D1
:08028600F0EEECE9E7E4E1DE33
:020C1400AB072C
:100C1600E4FAEAC394FF748094805039EA9005049C
:100C260093FF7E00EBFD7C00120934EEFF74002A70
:100C3600F582E43400F583EFF0EA90060493FF7E34
:100C460000120934EEFF74002AF582E43401F583BC
:050C5600EFF00A80BD73
:010C5B002276
:10070400C0D075D008AD0F74002DF582E43400F527
:1007140083E0755200F55374002DF582E43401F53D
:1007240083E0755400F555C374FF9555FFE4955463
:10073400C313F558EF13F55985585CF55D2553F54A
:100744005BE5583552F55AE5592555F557E55835C1
:1007540054F556C2AFEDFF7E00C3942B7480948091
:10076400501B75C7AA75C7557591018559CC75C7B6
:10077400AA75C755E4F591855BDC02082CC3EF9498
:1007840055EE64809480501A75C7AA75C755759143
:10079400018559CC75C7AA75C755E4F591855BDA0F
:1007A4008023C3EF9480EE64809480501D8559DAD1
:1007B40075C7AA75C755759101855BCC75C7AA75B0
:1007C400C755E4F5918557DC8061C3EF94ABEE64C3
:1007D40080948050088559DA855BDC8011C3EF94DE
:1007E400D5EE64809480501D8559DC855BDA75C72D
:1007F400AA75C7557591018557CC75C7AA75C75594
:10080400E4F5918026C3EF94FFEE64809480501B3E
:100814008559DC75C7AA75C755759101855BCC757B
:10082400C7AA75C755E4F5918557DAE4F5FB43DFAC
:090834001043D840D2AFD0D0220D
:0A0DDC003031323334353637383900
:10028E00C18DC18E023000BD02370004023900DB81
:10029E00012801012E01012F02023B0960022B00F1
:1002AE0000012D000224000001510002290000026D
:0602BE00350000013200D2
:03002300020D319A
:100D3100C0E0C0D075D008309904C299C20C309877
:100D41000FC298AF34053474412FF8A69953340F6C
:050D5100D0D0D0E0321B
:0100190022C4
:100D7B007E00CFCDCFCECCCE12094674DC2FF582C0
:080D8B00740D3EF583E493FFB3
:080D9300200CFDD20C8F992207
:100D56008B5E8A5F8960AB5EAA5FA96012091B6021
:100D6600130560E5607002055F14F912091BFF1296
:050D76000D9380E22254
:100003008F138E128D118C10781074FF1209B3ECBC
:060013004D4E4F70F32278
:03001B000202C717
:0D02C700C0E0C0F0C083C082C0D075D00878
:1002D400751400751500C28EC28F758DFF758B0065
:1002E400C2ABD28EAE24AF25E4FCFD7B607AEAF982
:1002F400F8D312099B40080525E52570020524AEB4
:100304003DE53EA82F088005CEC313CE13D8F925AA
:100314003EFFE53D3EFEC3E5259FE5249E400830B3
:100324000D05C20D752D00C20B120B00AB0FE5516C
:100334006B70030204C0200E030203E9EB14700384
:100344000203E61470030203D61470030203D314E9
:10035400607A1460741460030204C0853D3F853ED6
:100364004085243D85253E752400752500D3E53E52
:10037400953CE53D953B5049AE3FE540A82F0880AC
:1003840005CEC313CE13D8F9FFC3E5409FFDE53F67
:100394009EFCC3E53E9DE53D9C4026E5402FFFE5E0
:1003A4003F3EFED3E53E9FE53D9E5015C3E52D94AB
:1003B40004748094804005D20D0204C0052D02040B
:1003C400C0752D00C20D0204C002047B0204810228
:1003D400048CAE3DE53E7802C333CE33CED8F90269
:1003E40004A60204ADEB24FE700302047B14700324
:1003F40002048114700302048C147003020499141F
:1004040070030204AD240560030204C0853D3F85EA
:100414003E4085243D85253E752400752500D3E5A1
:100424003E953CE53D953B5047AE3FE540A82F083F
:100434008005CEC313CE13D8F9FFC3E5409FFDE575
:100444003F9EFCC3E53E9DE53D9C4024E5402FFFD7
:10045400E53F3EFED3E53E9FE53D9E5013C3E52DAB
:100464009404748094804004D20D8050052D804CF7
:10047400C20D752D008045AE3DAF3E8026E53E257C
:10048400E0FFE53D33FE801BAE3DAF3E7C007D03C7
:100494001209348010AE3DE53E7802C333CE33CE2C
:1004A400D8F9FF7C007D06800CAE3DAF3E7C007D1C
:1004B400051209340D1209468E148F15E5254524BD
:1004C400602FD3E5159525E51495244015E515957C
:1004D40025FFE5149524FED3EF940FEE940040110C
:1004E4008009E4D3940FE494004006851424851510
:0504F400258B51D2AB85
:0B04F900D0D0D082D083D0F0D0E03211
:10002600AB07AA067C037DE81209467F64120D7BA6
:100036007C007D64AF03AE021209467F0A120D7B77
:10004600AE02AF037C007D0A12094674DC2DF582F0
:0B005600740D3CF583E493FF020D9352
:100C5C00438E18E4F58975C969439210F593759420
:100C6C001075F10475CBFF75CBFEF5C575C6F04359
:100C7C009C0253C4EF43C408758D70758B24439B41
:100C8C000443C80443F70453EFFB43EF8053F77F4F
:030C9C00D2AF22B2
:0509D100C0D075D00844
:1009D600AEC9EE24B7605024F0602824F0706AAEE9
:1009E600E5EEC394017480948050047F02805AAE71
:1009F600E5EEC394037480948050047F01804AE43A
:100A0600FF8046AEE5EEC394027480948050047F66
:100A1600028036AEE5EEC394067480948050047F5F
:100A2600018026E4FF8022AEE5EEC3940474809430
:100A36008050047F028012AEE5EEC3940C7480945D
:100A46008050047F018002E4FF852E28EF14600D9C
:100A5600146012800075C969752E01800E75C9591A
:0B0A6600752E02800675C949752E042C
:030A7100D0D022C0
:04001E00439B0822D6
:0B0DD10053C4E78DC58FC643C4082241
:03006300020CD4B8
:070CD400C0E0C0D075D0188C
:100CDB005392FE300E08853935853A3680068530BD
:100CEB0035853136C374FF95E5FFC374FF95E4FD7D
:060CFB00120DD11209D117
:050D0100D0D0D0E0326B
:03008300020B610C
:100B6100C0E0C0F0C083C082C0D075D00853C4EFCC
:100B7100C3E53694FBE5359400500DE5282536F59F
:100B810036E43535F5358006753500753600853521
:100B91002985362A300D18300E0CC374FF952AF5BD
:100BA1002AE49529F529AF2AAE29120704800312F8
:0D0BB1000DAED0D0D082D083D0F0D0E03295
:03006B00020DED96
:060DED00C2DD43E84032C4
:02006E008F10F1
:10007000A2089209120DE6AF10120C14A208920EFB
:01008000225D
:100D9B0075E80475E10775CFF0E4F5CE75E31C75C6
:030DAB00E2A022A1
:100C9F00120BBE120D06120D9BD2087FFF12006EB3
:100CAF00120C5C53B1FB43B204D282E4FBFA7FB85F
:100CBF007E0B7D007C001200030BBB00010AEBF4DE
:050CCF004A70EB80E615
:0202C400C187F0
:070DE600A20992078F6122B0
:100DC000C0D0A2849204A2939205A2949206D0D09D
:010DD0002200
:100D060053B1E753B2E753B3EB53B4EB75C7AA75C8
:100D1600C75575910143B31843B10875C7AA75C77E
:0B0D260055E4F591D284D293D29422C0
:100B0000C0D075D00830842A30931930940B300B44
:100B1000047F0580497F038045300B047F04803EBD
:100B20007F02803A209435300B047F0380307F01B0
:100B3000802C30930E309424300B047F06801F7F6E
:100B400004801B30940B300B047F0180117F0580E3
:100B50000D300B047F0280067F0680027F00D0D01C
:010B60002272
:10083D00C0D0C2AFEF24FE603C14605014606C1445
:10084D0070030208D71470030208F6240560030232
:10085D00091675FB308561DAE4F5DC43D84075C7C0
:10086D00AA75C75575910175B71075C7AA75C75586
:10087D00F59102091675FB0C8561DA75C7AA75C766
:10088D0055759101E4F5CC75B710801575FB038591
:10089D0061DC75C7AA75C755759101E4F5CC75B7BF
:1008AD001275C7AA75C755F591805B75FB308561CB
:1008BD00DC75C7AA75C75575910175B71275C7AAAD
:1008CD0075C755E4F591F5DA803C75FB0C75C7AA33
:1008DD0075C7557591018561CC75B71475C7AA7526
:1008ED00C755E4F591F5DA801D75FB0375C7AA753B
:1008FD00C7557591018561CC75B71475C7AA75C7B4
:0E090D0055E4F591F5DC43D840D2AFD0D022AE
:100DAE00C0D075D008A207920B120B0012083DD0CE
:020DBE00D02241
:0400660075FB3F22C5
:100BBE0053B1F443B20B53B3F843B40775DE3F752C
:100BCE00DF5075FB3FE4F5FCF5D6F5D775D9FFF58B
:100BDE00D1F5DCF5D4F5DAF5D275C7AA75C755751A
:100BEE009101F5CCF5C475C7AA75C755F59175C7B2
:100BFE00AA75C75575F90775C7AA75C75575FA0E43
:060C0E0075D8C00200666B
:100A8000020C9FE493A3F8E493A34003F68001F2E1
:100A900008DFF48029E493A3F85407240CC8C33377
:100AA000C4540F4420C8834004F456800146F6DF46
:100AB000E4800B0102040810204080900086E47E50
:100AC000019360BCA3FF543F30E509541FFEE4933B
:100AD000A360010ECF54C025E060A840B8E493A302
:100AE000FAE493A3F8E493A3C8C582C8CAC583CA2D
:100AF000F0A3C8C582C8CAC583CADFE9DEE780BEE5
:0102C6000037
:10091B00BB010689828A83E0225002E722BBFE02DA
:09092B00E32289828A83E493220D
:10093400EF8DF0A4A8F0CF8CF0A428CE8DF0A42ED7
:02094400FE2291
:10094600BC000BBE0029EF8DF084FFADF022E4CC95
:10095600F875F008EF2FFFEE33FEEC33FCEE9DEC5E
:10096600984005FCEE9DFE0FD5F0E9E4CEFD22EDA4
:10097600F8F5F0EE8420D21CFEADF075F008EF2FEE
:10098600FFED33FD4007985006D5F0F222C398FDDF
:050996000FD5F0EA227C
:10099B00EB9FF5F0EA9E42F0E99D42F0EC6480C8D3
:0609AB0064809845F02273
:1009B1007401FF3395E0FEFDFC080808E6CF2FF631
:1009C10018E6CE3EF618E6CD3DF618E6CC3CF6220A
:00000001FF
