:03000000020E539A
:0C0E5300787FE4F6D8FD758154020E9AF9
:10006E00000000040009000D00120016001B001F06
:10007E0000230028002C003000350039003D0042DE
:10008E000046004A004E00530057005B005F0063BD
:10009E000067006B006F00730077007B007F0083AA
:1000AE000087008A008E009200950099009C00A0A7
:1000BE0000A300A700AA00AD00B000B400B700BABC
:1000CE0000BD00C000C300C500C800CB00CD00D0ED
:1000DE0000D300D500D700DA00DC00DA00D700D557
:1000EE0000D300D000CD00CB00C800C500C300C0B7
:1000FE0000BD00BA00B700B400B000AD00AA00A762
:10010E0000A300A0009C009900950092008E008A2A
:10011E0000870083007F007B00770073006F006B09
:10012E0000670063005F005B00570053004E004AFB
:10013E0000460042003D003900350030002C0028FA
:10014E000023001F001B00160012000D0009000402
:10015E00000000040009000D00120016001B001F15
:10016E0000230028002C003000350039003D0042ED
:10017E000046004A004E00530057005B005F0063CC
:10018E000067006B006F00730077007B007F0083B9
:10019E000087008A008E009200950099009C00A0B6
:1001AE0000A300A700AA00AD00B000B400B700BACB
:1001BE0000BD00C000C300C500C800CB00CD00D0FC
:1001CE0000D300D500D700DA00DC00DA00D700D566
:1001DE0000D300D000CD00CB00C800C500C300C0C6
:1001EE0000BD00BA00B700B400B000AD00AA00A771
:1001FE0000A300A0009C009900950092008E008A3A
:10020E0000870083007F007B00770073006F006B18
:10021E0000670063005F005B00570053004E004A0A
:10022E0000460042003D003900350030002C002809
:10023E000023001F001B00160012000D0009000411
:10024E00000000040009000D00120016001B001F24
:10025E0000230028002C003000350039003D0042FC
:10026E000046004A004E00530057005B005F0063DB
:10027E000067006B006F00730077007B007F0083C8
:10028E000087008A008E009200950099009C00A0C5
:10029E0000A300A700AA00AD00B000B400B700BADA
:1002AE0000BD00C000C300C500C800CB00CD00D00B
:1002BE0000D300D500D700DA00DC00DA00D700D575
:1002CE0000D300D000CD00CB00C800C500C300C0D5
:1002DE0000BD00BA00B700B400B000AD00AA00A780
:1002EE0000A300A0009C009900950092008E008A49
:1002FE0000870083007F007B00770073006F006B28
:10030E0000670063005F005B00570053004E004A19
:10031E0000460042003D003900350030002C002818
:10032E000023001F001B00160012000D0009000420
:10033E00000000DC00DE00E000E200E400E600E881
:10034E0000EA00EC00ED00EF00F000F200F300F424
:10035E0000F500F600F700F800F900FA00FB00FCCB
:10036E0000FC00FD00FD00FD00FE00FE00FE00FE94
:10037E0000FE00FE00FE00FD00FD00FD00FC00FC86
:10038E0000FB00FA00F900F800F700F600F500F4A3
:10039E0000F300F200F000EF00ED00EC00EA00E8E0
:1003AE0000E600E400E200E000DE00DC00DE00E03B
:1003BE0000E200E400E600E800EA00EC00ED00EFE9
:1003CE0000F000F200F300F400F500F600F700F87C
:1003DE0000F900FA00FB00FC00FC00FD00FD00FD32
:1003EE0000FE00FE00FE00FE00FE00FE00FE00FD10
:1003FE0000FD00FD00FC00FC00FB00FA00F900F817
:10040E0000F700F600F500F400F300F200F000EF44
:10041E0000ED00EC00EA00E800E600E400E200E097
:10042E0000DE00DC00DE00E000E200E400E600E8B2
:10043E0000EA00EC00ED00EF00F000F200F300F433
:10044E0000F500F600F700F800F900FA00FB00FCDA
:10045E0000FC00FD00FD00FD00FE00FE00FE00FEA3
:10046E0000FE00FE00FE00FD00FD00FD00FC00FC95
:10047E0000FB00FA00F900F800F700F600F500F4B2
:10048E0000F300F200F000EF00ED00EC00EA00E8EF
:10049E0000E600E400E200E000DE00DC00DE00E04A
:1004AE0000E200E400E600E800EA00EC00ED00EFF8
:1004BE0000F000F200F300F400F500F600F700F88B
:1004CE0000F900FA00FB00FC00FC00FD00FD00FD41
:1004DE0000FE00FE00FE00FE00FE00FE00FE00FD1F
:1004EE0000FD00FD00FC00FC00FB00FA00F900F826
:1004FE0000F700F600F500F400F300F200F000EF54
:10050E0000ED00EC00EA00E800E600E400E200E0A6
:10051E0000DE00DC00DE00E000E200E400E600E8C1
:10052E0000EA00EC00ED00EF00F000F200F300F442
:10053E0000F500F600F700F800F900FA00FB00FCE9
:10054E0000FC00FD00FD00FD00FE00FE00FE00FEB2
:10055E0000FE00FE00FE00FD00FD00FD00FC00FCA4
:10056E0000FB00FA00F900F800F700F600F500F4C1
:10057E0000F300F200F000EF00ED00EC00EA00E8FE
:10058E0000E600E400E200E000DE00DC00DE00E059
:10059E0000E200E400E600E800EA00EC00ED00EF07
:1005AE0000F000F200F300F400F500F600F700F89A
:1005BE0000F900FA00FB00FC00FC00FD00FD00FD50
:1005CE0000FE00FE00FE00FE00FE00FE00FE00FD2E
:1005DE0000FD00FD00FC00FC00FB00FA00F900F835
:1005EE0000F700F600F500F400F300F200F000EF63
:1005FE0000ED00EC00EA00E800E600E400E200E0B6
:04060E0000DE00DC2E
:10095900AB07AA06A905EB25E0FFEA33FE746E2F63
:10096900F58274003EF583E493FC740193FDE9FF7D
:100979007E00120BD0EEF511751000EB25E0FFEAB1
:1009890033FE74402FF58274033EF583E493FC74BF
:100999000193FDAF017E00120BD0EEF51375120025
:1009A900C374FF9513FFE49512C313F516EF13F5FE
:1009B9001785161AF51B2511F519E5163510F518C1
:1009C900E5172513F515E5163512F514C2AFC3EB76
:1009D900943CEA9400504675C7AA75C755759101AC
:1009E9008517CCE511941EE5109400400575B715DF
:1009F900801CC3E5139511FFE5129510FED3EF9402
:100A09001EEE9400400575B713800375B71175C7BD
:100A1900AA75C755E4F5918519DC020BA8C3EB94B7
:100A290078EA9400504575C7AA75C755759101852F
:100A390017CCE511941EE5109400400575B7158093
:100A49001CC3E5139511FFE5129510FED3EF941E13
:100A5900EE9400400575B711800375B71375C7AAE1
:100A690075C755E4F5918519DA804CC3EB94B4EA5E
:100A7900940050498517DA75C7AA75C7557591014C
:100A89008519CCE511941EE5109400400575B71140
:100A9900801CC3E5139511FFE5129510FED3EF9461
:100AA9001EEE9400400575B715800375B71375C719
:100AB900AA75C755E4F5918515DC020BABC3EB9418
:100AC900F0EA9400503F8517DA8519DC75C7AA75D5
:100AD900C7557591018515CCE511941EE510940053
:100AE900400575B7118064C3E5139511FFE51295AB
:100AF90010FED3EF941EEE9400400575B713804B9A
:100B090075B7158046C3EB942CEA940150488517B4
:100B1900DC8519DA75C7AA75C7557591018515CC94
:100B2900E511941EE5109400400575B713801CC3A8
:100B3900E5139511FFE5129510FED3EF941EEE947F
:100B490000400575B711800375B71575C7AA75C734
:100B590055E4F591804CC3EB9468EA9401504385C0
:100B690017DC75C7AA75C7557591018519CCE511AB
:100B7900941EE510940040028019C3E5139511FFF6
:100B8900E5129510FED3EF941EEE9400400575B75B
:100B990015800375B71175C7AA75C755E4F5918511
:0E0BA90015DAE4F5FB43DF1043D840D2AF224B
:0A0061003031323334353637383988
:10101400C109C18A0230010B023400040236013EC8
:10102400012F0402380960022C0000012E00022462
:0B1034000000014E0004280000000036
:0300230002106D5B
:10106D00C0E0C0D075D008309904C299C20830983C
:10107D000FC298AF330533743E2FF8A69953330F33
:05108D00D0D0D0E032DC
:0100190022C4
:1010B7007E00CFCDCFCECCCE120BE274612FF5825E
:0810C70074003EF583E493FF81
:0810CF002008FDD2088F9922D0
:101092008B1C8A1D891EAB1CAA1DA91E120BB760D0
:1010A20013051EE51E7002051D14F9120BB7FF127F
:0510B20010CF80E222D6
:100003008F528E518D508C4F784F74FF120D2EEC02
:060013004D4E4F70F32278
:03001B00020612C8
:10061200C0E0C0F0C083C082C0D075D000C000C0AE
:0D06220001C002C003C004C005C006C0072F
:10062F00755300755400C28EC28F758DB8758B24AB
:10063F00C2ABD28EAE24AF25E4FCFD7B607AEAF923
:10064F00F8D3120D0540080525E52570020524AEE7
:10065F003AE53BA82F088005CEC313CE13D8F92552
:10066F003BFFE53A3EFEC3E5259FE5249E400A3059
:10067F000907D296C209752E00C20C120EDFAB0706
:10068F00E54E6B7003020828200A0302074DEB1496
:10069F00700302074A14700302073A14700302072B
:1006AF0037147003020734146078146003020828AB
:1006BF00853A3C853B3D85243A85253B752400755D
:1006CF002500D3E53B9539E53A9538504BAE3CE5DF
:1006DF003DA82F088005CEC313CE13D8F9FFC3E56D
:1006EF003D9FFDE53C9EFCC3E53B9DE53A9C4028C4
:1006FF00E53D2FFFE53C3EFED3E53B9FE53A9E509F
:10070F0017C296C3E52E9404748094804005D209D5
:10071F00020828052E020828D296752E00C209025B
:10072F0008280207E30207E90207F4AE3AE53B782F
:10073F0002C333CE33CED8F902080E020815EB24CC
:10074F00FE70030207E31470030207E9147003023B
:10075F0007F414700302080114700302081524052E
:10076F006003020828853A3C853B3D85243A852560
:10077F003B752400752500D3E53B9539E53A95384F
:10078F005049AE3CE53DA82F088005CEC313CE13CC
:10079F00D8F9FFC3E53D9FFDE53C9EFCC3E53B9DBE
:1007AF00E53A9C4026E53D2FFFE53C3EFED3E53B79
:1007BF009FE53A9E5015C296C3E52E94047480941B
:1007CF00804004D2098052052E804ED296C2097500
:1007DF002E008045AE3AAF3B8026E53B25E0FFE596
:1007EF003A33FE801BAE3AAF3B7C007D03120BD039
:1007FF008010AE3AE53B7802C333CE33CED8F9FF43
:10080F007C007D06800CAE3AAF3B7C007D05120B61
:10081F00D00D120BE28E538F54E5254524602FD354
:10082F00E5549525E55395244015E5549525FFE5A9
:10083F00539524FED3EF940FEE940040118009E4FA
:10084F00D3940FE4940040068553248554258B4E92
:10085F00AE3CAF3DAB07AA06E53B2BFFE53A3AFEB0
:10086F00E433FDE433FCC004A905AA06AB07AE24AC
:10087F00AF257C027DCF120D4CD000120C738F2B45
:10088F008E2A8D298C28200903020933E47F687E84
:10089F0001FDFCAB2BAA2AA929A828D3120D1B40B6
:1008AF0003020936300A0EAE36EE3395E0FDFCE555
:1008BF002B2537800CAE30EE3395E0FDFCE52B2574
:1008CF0031F52BE52A3EF52AE5293DF529E5283CAA
:1008DF00F528E47F687E01FDFCAB2BAA2AA929A885
:1008EF0028C3120D1B4018E52B9468F52BE52A94AD
:1008FF0001F52AE5299400F529E5289400F528301B
:10090F000A17C37468952BF52B7401952AF52AE401
:10091F009529F529E49528F528AE2AAF2B7D1612D7
:0F092F00095980031210F7852A22852B23D2AB9A
:10093E00D007D006D005D004D003D002D001D0000D
:0B094E00D0D0D082D083D0F0D0E032B7
:10002600AB07AA067C037DE8120BE27F641210B7C9
:100036007C007D64AF03AE02120BE27F0A1210B79A
:10004600AE02AF037C007D0A120BE274612DF582CD
:0B00560074003CF583E493FF0210CF20
:1010D700438E18E4F589758D70758B24D28ED2AB4B
:0310E700D2AF2263
:04001E00439B0822D6
:03006B00020FA5DC
:100FA500C0E0C0F0C083C082C0D075D000C000C012
:100FB50001C002C003C004C005C006C0071210EA84
:100FC500D007D006D005D004D003D002D001D00080
:0B0FD500D0D0D082D083D0F0D0E0322A
:100FE00053B3BF43B440120F4E1210421210D71227
:100FF000001ED20B7F12121101E4FBFA7F6A7E0100
:101000007D007C001200030BBB00010ABA01EDBB9E
:0410100069EA80E524
:02103F00C18767
:07110100A20B92078F1F22D1
:0D10EA00A2849204A2939205A29492062281
:1010420053B1E753B2E753B3EB53B4EB75C7AA7589
:10105200C75575910143B31843B10875C7AA75C73F
:0B10620055E4F591D284D293D2942281
:100EDF0020040F20050C200609300C037F02227F0F
:100EEF00062230040F20050C200609300C037F0367
:100EFF00227F012230040F30050C200609300C032D
:100F0F007F04227F022230040F30050C3006093097
:100F1F000C037F05227F032220040F30050C3006BF
:100F2F0009300C037F06227F042220040F20050CBA
:0F0F3F00300609300C037F01227F05227F00223C
:100D7900C2AFEF24FE603C14605014606C14700321
:100D8900020E11147003020E3024056003020E5086
:100D990075FB30851FDAE4F5DC43D84075C7AA75C1
:100DA900C75575910175B71075C7AA75C755F591DE
:100DB900020E5075FB0C851FDA75C7AA75C75575E4
:100DC9009101E4F5CC75B710801575FB03851FDC1F
:100DD90075C7AA75C755759101E4F5CC75B7127534
:100DE900C7AA75C755F591805B75FB30851FDC7502
:100DF900C7AA75C75575910175B71275C7AA75C781
:100E090055E4F591F5DA803C75FB0C75C7AA75C7F1
:100E190055759101851FCC75B71475C7AA75C75546
:100E2900E4F591F5DA801D75FB0375C7AA75C755F9
:100E3900759101851FCC75B71475C7AA75C755E497
:0A0E4900F591F5DC43D840D2AF224A
:0A10F700A207920C120EDF020D7921
:0411080075FB3F2212
:100F4E0053B1F443B20B53B3F843B40775DE3F7598
:100F5E00DF5175FB3FE4F5FCF5D675D73F75D9FF2C
:100F6E00F5D1F5DCF5D4F5DAF5D275C7AA75C75506
:100F7E00759101F5CCF5C475C7AA75C755F5917570
:100F8E00C7AA75C75575F90775C7AA75C75575FAF6
:070F9E001275D8C002110812
:100E5F00020FE0E493A3F8E493A34003F68001F2BA
:100E6F0008DFF48029E493A3F85407240CC8C33394
:100E7F00C4540F4420C8834004F456800146F6DF63
:100E8F00E4800B0102040810204080901014E47ECF
:100E9F00019360BCA3FF543F30E509541FFEE49358
:100EAF00A360010ECF54C025E060A840B8E493A31F
:100EBF00FAE493A3F8E493A3C8C582C8CAC583CA4A
:100ECF00F0A3C8C582C8CAC583CADFE9DEE780BE02
:0110410000AE
:100BB700BB010689828A83E0225002E722BBFE023C
:090BC700E32289828A83E493226F
:100BD000EF8DF0A4A8F0CF8CF0A428CE8DF0A42E39
:020BE000FE22F3
:100BE200BC000BBE0029EF8DF084FFADF022E4CCF7
:100BF200F875F008EF2FFFEE33FEEC33FCEE9DECC0
:100C0200984005FCEE9DFE0FD5F0E9E4CEFD22ED05
:100C1200F8F5F0EE8420D21CFEADF075F008EF2F4F
:100C2200FFED33FD4007985006D5F0F222C398FD40
:050C32000FD5F0EA22DD
:100C370075F008758200EF2FFFEE33FECD33CDCC74
:100C470033CCC58233C5829BED9AEC99E5829840F7
:100C57000CF582EE9BFEED9AFDEC99FC0FD5F0D6D4
:100C6700E4CEFBE4CDFAE4CCF9A88222B800C1B9FE
:100C77000059BA002DEC8BF084CFCECDFCE5F0CB3C
:100C8700F97818EF2FFFEE33FEED33FDEC33FCEB75
:100C970033FB10D703994004EB99FB0FD8E5E4F930
:100CA700FA227818EF2FFFEE33FEED33FDEC33FC1D
:100CB700C933C910D7059BE99A4007EC9BFCE99A11
:100CC700F90FD8E0E4C9FAE4CCFB2275F010EF2F56
:100CD700FFEE33FEED33FDCC33CCC833C810D70756
:100CE7009BEC9AE899400AED9BFDEC9AFCE899F891
:0E0CF7000FD5F0DAE4CDFBE4CCFAE4C8F92224
:100D0500EB9FF5F0EA9E42F0E99D42F0EC6480C865
:060D150064809845F02205
:100D1B00EB9FF5F0EA9E42F0E99D42F0E89C45F02E
:010D2B0022A5
:100D2C007401FF3395E0FEFDFC080808E6CF2FF6B2
:100D3C0018E6CE3EF618E6CD3DF618E6CC3CF6228B
:100D4C00EC8EF0A4CCC5F0CCCDF8EFA4CEC5F02D34
:100D5C00FDE43CFCE8A42EC8C5F03DFDE43CFCEFF2
:0D0D6C00A4FFE5F028FEE43DFDE43CFC2280
:00000001FF
