:03000000020CF7F8
:0C0CF700787FE4F6D8FD758152020D3EB6
:10006E00000000040009000D00120016001B001F06
:10007E0000230028002C003000350039003D0042DE
:10008E000046004A004E00530057005B005F0063BD
:10009E000067006B006F00730077007B007F0083AA
:1000AE000087008A008E009200950099009C00A0A7
:1000BE0000A300A700AA00AD00B000B400B700BABC
:1000CE0000BD00C000C300C500C800CB00CD00D0ED
:1000DE0000D300D500D700DA00DC00DA00D700D557
:1000EE0000D300D000CD00CB00C800C500C300C0B7
:1000FE0000BD00BA00B700B400B000AD00AA00A762
:10010E0000A300A0009C009900950092008E008A2A
:10011E0000870083007F007B00770073006F006B09
:10012E0000670063005F005B00570053004E004AFB
:10013E0000460042003D003900350030002C0028FA
:10014E000023001F001B00160012000D0009000402
:10015E00000000040009000D00120016001B001F15
:10016E0000230028002C003000350039003D0042ED
:10017E000046004A004E00530057005B005F0063CC
:10018E000067006B006F00730077007B007F0083B9
:10019E000087008A008E009200950099009C00A0B6
:1001AE0000A300A700AA00AD00B000B400B700BACB
:1001BE0000BD00C000C300C500C800CB00CD00D0FC
:1001CE0000D300D500D700DA00DC00DA00D700D566
:1001DE0000D300D000CD00CB00C800C500C300C0C6
:1001EE0000BD00BA00B700B400B000AD00AA00A771
:1001FE0000A300A0009C009900950092008E008A3A
:10020E0000870083007F007B00770073006F006B18
:10021E0000670063005F005B00570053004E004A0A
:10022E0000460042003D003900350030002C002809
:10023E000023001F001B00160012000D0009000411
:10024E00000000040009000D00120016001B001F24
:10025E0000230028002C003000350039003D0042FC
:10026E000046004A004E00530057005B005F0063DB
:10027E000067006B006F00730077007B007F0083C8
:10028E000087008A008E009200950099009C00A0C5
:10029E0000A300A700AA00AD00B000B400B700BADA
:1002AE0000BD00C000C300C500C800CB00CD00D00B
:1002BE0000D300D500D700DA00DC00DA00D700D575
:1002CE0000D300D000CD00CB00C800C500C300C0D5
:1002DE0000BD00BA00B700B400B000AD00AA00A780
:1002EE0000A300A0009C009900950092008E008A49
:1002FE0000870083007F007B00770073006F006B28
:10030E0000670063005F005B00570053004E004A19
:10031E0000460042003D003900350030002C002818
:10032E000023001F001B00160012000D0009000420
:10033E00000000DC00DE00E000E200E400E600E881
:10034E0000EA00EC00ED00EF00F000F200F300F424
:10035E0000F500F600F700F800F900FA00FB00FCCB
:10036E0000FC00FD00FD00FD00FE00FE00FE00FE94
:10037E0000FE00FE00FE00FD00FD00FD00FC00FC86
:10038E0000FB00FA00F900F800F700F600F500F4A3
:10039E0000F300F200F000EF00ED00EC00EA00E8E0
:1003AE0000E600E400E200E000DE00DC00DE00E03B
:1003BE0000E200E400E600E800EA00EC00ED00EFE9
:1003CE0000F000F200F300F400F500F600F700F87C
:1003DE0000F900FA00FB00FC00FC00FD00FD00FD32
:1003EE0000FE00FE00FE00FE00FE00FE00FE00FD10
:1003FE0000FD00FD00FC00FC00FB00FA00F900F817
:10040E0000F700F600F500F400F300F200F000EF44
:10041E0000ED00EC00EA00E800E600E400E200E097
:10042E0000DE00DC00DE00E000E200E400E600E8B2
:10043E0000EA00EC00ED00EF00F000F200F300F433
:10044E0000F500F600F700F800F900FA00FB00FCDA
:10045E0000FC00FD00FD00FD00FE00FE00FE00FEA3
:10046E0000FE00FE00FE00FD00FD00FD00FC00FC95
:10047E0000FB00FA00F900F800F700F600F500F4B2
:10048E0000F300F200F000EF00ED00EC00EA00E8EF
:10049E0000E600E400E200E000DE00DC00DE00E04A
:1004AE0000E200E400E600E800EA00EC00ED00EFF8
:1004BE0000F000F200F300F400F500F600F700F88B
:1004CE0000F900FA00FB00FC00FC00FD00FD00FD41
:1004DE0000FE00FE00FE00FE00FE00FE00FE00FD1F
:1004EE0000FD00FD00FC00FC00FB00FA00F900F826
:1004FE0000F700F600F500F400F300F200F000EF54
:10050E0000ED00EC00EA00E800E600E400E200E0A6
:10051E0000DE00DC00DE00E000E200E400E600E8C1
:10052E0000EA00EC00ED00EF00F000F200F300F442
:10053E0000F500F600F700F800F900FA00FB00FCE9
:10054E0000FC00FD00FD00FD00FE00FE00FE00FEB2
:10055E0000FE00FE00FE00FD00FD00FD00FC00FCA4
:10056E0000FB00FA00F900F800F700F600F500F4C1
:10057E0000F300F200F000EF00ED00EC00EA00E8FE
:10058E0000E600E400E200E000DE00DC00DE00E059
:10059E0000E200E400E600E800EA00EC00ED00EF07
:1005AE0000F000F200F300F400F500F600F700F89A
:1005BE0000F900FA00FB00FC00FC00FD00FD00FD50
:1005CE0000FE00FE00FE00FE00FE00FE00FE00FD2E
:1005DE0000FD00FD00FC00FC00FB00FA00F900F835
:1005EE0000F700F600F500F400F300F200F000EF63
:1005FE0000ED00EC00EA00E800E600E400E200E0B6
:04060E0000DE00DC2E
:10085400AB07AA06A905EB25E0FFEA33FE746E2F69
:10086400F58274003EF583E493FC740193FDE9FF83
:100874007E00120A74EEF511751000EB25E0FFEA14
:1008840033FE74402FF58274033EF583E493FC74C5
:100894000193FDAF017E00120A74EEF51375120088
:1008A400C374FF9513FFE49512C313F516EF13F504
:1008B4001785161AF51B2511F519E5163510F518C7
:1008C400E5172513F515E5163512F514C2AFC3EB7C
:1008D400943CEA9400503775C7AA75C755759101C1
:1008E4008517CCC3E5199517FFE5189516FED3EFC8
:1008F400941EEE9400400575B715800375B7137503
:10090400C7AA75C755E4F5918519DC020A4CC3EBF7
:100914009478EA9400503675C7AA75C75575910145
:100924008517CCC3E5199517FFE5189516FED3EF87
:10093400941EEE9400400575B715800375B71175C4
:10094400C7AA75C755E4F5918519DA803DC3EB94C0
:10095400B4EA9400503A8517DA75C7AA75C7557575
:1009640091018519CCC3E5199517FFE5189516FE75
:10097400D3EF941EEE9400400575B711800375B74C
:100984001575C7AA75C755E4F5918515DC020A4F9C
:10099400C3EB94F0EA940050308517DA8519DC75BE
:1009A400C7AA75C7557591018515CCC3E519951767
:1009B400FFE5189516FED3EF941EEE9400400575DE
:1009C400B711803C75B7138037C3EB942CEA9401BC
:1009D40050398517DC8519DA75C7AA75C75575911D
:1009E400018515CCC3E5199517FFE5189516FED3B7
:1009F400EF941EEE9400400575B713800375B7118C
:100A040075C7AA75C755E4F5918040C3EB9468EAAD
:100A1400940150378517DC75C7AA75C755759101C0
:100A24008519CCC3E5199517FFE5189516FED3EF84
:100A3400941EEE9400400575B711800375B71575C3
:100A4400C7AA75C755E4F5918515DAD2AFE4F5FB6D
:070A540043DF1043D84022EC
:0A0061003031323334353637383988
:100E8400C109C18A0230010B023400040236013E5A
:100E9400012F03023802BC022C0000012E000224A0
:0B0EA4000000014E00042800000000C8
:03002300020F09C0
:100F0900C0E0C0D075D008309904C299C2083098A1
:100F19000FC298AF330533743E2FF8A69953330F98
:050F2900D0D0D0E03241
:0100190022C4
:100F53007E00CFCDCFCECCCE120A8674612FF58220
:080F630074003EF583E493FFE6
:080F6B002008FDD2088F992235
:100F2E008B4F8A508951AB4FAA50A951120A5B6060
:100F3E00130551E5517002055014F9120A5BFF12A8
:050F4E000F6B80E222A0
:100003008F1F8E1E8D1D8C1C781C74FF120BD2EC5F
:060013004D4E4F70F32278
:03001B00020612C8
:0D061200C0E0C0F0C083C082C0D075D00031
:10061F00C28EC28F758DB3758B24D28EAE24AF254B
:10062F00E4FCFD7B607AEAF9F8D3120BA9400805C8
:10063F0025E52570020524AE3AE53BA82F08800575
:10064F00CEC313CE13D8F9253BFFE53A3EFEC3E5E3
:10065F00259FE5249E400A300907D286C209752ED0
:10066F0000C20B120F73AD07E54E6D700302076AE0
:10067F00300A77ED24FA600302076A853A3C853B1E
:10068F003D85243A85253B752400752500D3E53B30
:10069F009539E53A95385049AE3CE53DA82F08808D
:1006AF0005CEC313CE13D8F9FFC3E53D9FFBE53C41
:1006BF009EFAC3E53B9BE53A9A4026E53D2FFFE5C1
:1006CF003C3EFED3E53B9FE53A9E5015C286C3E5FF
:1006DF002E9404748094804004D209807E052E806D
:1006EF007AD286752E00C2098071ED14706D853A2D
:1006FF003C853B3D85243A85253B752400752500B7
:10070F00D3E53B9539E53A95385049AE3CE53DA8E0
:10071F002F088005CEC313CE13D8F9FFC3E53D9F35
:10072F00FBE53C9EFAC3E53B9BE53A9A4026E53D47
:10073F002FFFE53C3EFED3E53B9FE53A9E5015C2A9
:10074F0086C3E52E9404748094804004D209800BF4
:10075F00052E8007D286C209752E008D4EAE3CAF96
:10076F003DAB07AA06E53B2BFFE53A3AFEE433FD26
:10077F00E433FCC004A905AA06AB07AE24AF257C61
:10078F00027DCF120BF0D000120B178F2B8E2A8DFC
:10079F00298C28200903020840E47F687E01FDFCB4
:1007AF00AB2BAA2AA929A828D3120BBF40030208F2
:1007BF0043300A0EAE36EE3395E0FDFCE52B2537C0
:1007CF00800CAE30EE3395E0FDFCE52B2531F52B9B
:1007DF00E52A3EF52AE5293DF529E5283CF528E4EB
:1007EF007F687E01FDFCAB2BAA2AA929A828C3127A
:1007FF000BBF4018E52B9468F52BE52A9401F52AD9
:10080F00E5299400F529E5289400F528300A17C347
:10081F007468952BF52B7401952AF52AE49529F523
:10082F0029E49528F528AE2AAF2B7D801208548035
:0A083F0003120FAD852A22852B233A
:0B084900D0D0D082D083D0F0D0E032BD
:10002600AB07AA067C037DE8120A867F64120F538B
:100036007C007D64AF03AE02120A867F0A120F535C
:10004600AE02AF037C007D0A120A8674612DF5822A
:0B00560074003CF583E493FF020F6B85
:100F8D00438E18E4F589758D01758B24D28ED2AB05
:030F9D00D2AF22AE
:04001E00439B0822D6
:03006B00020E4939
:100E4900C0E0C0F0C083C082C0D075D000C000C06F
:100E590001C002C003C004C005C006C007120FA02C
:100E6900D007D006D005D004D003D002D001D000DD
:0B0E7900D0D0D082D083D0F0D0E03287
:100EB200120DF2120EDE120F8D12001E7F80120F23
:100EC200BBE4FBFA7F6A7E017D007C001200030B0B
:0C0ED200BB00010ABA01EDBB69EA80E533
:020EAF00C187F9
:030FBB008F522230
:0D0FA000A2849204A2939205A294920622CC
:100EDE0053B1E753B2E753B3EB53B4EB75C7AA75EF
:100EEE00C75575910143B31843B10875C7AA75C7A5
:0B0EFE0055E4F591D284D293D29422E7
:100D830020040F20050C200609300C037F02227F6C
:100D9300062230040F20050C200609300C037F03C4
:100DA300227F012230040F30050C200609300C038A
:100DB3007F04227F022230040F30050C30060930F5
:100DC3000C037F05227F032220040F30050C30061D
:100DD30009300C037F06227F042220040F20050C18
:0F0DE300300609300C037F01227F05227F00229A
:100F73007C03EC6012A20B920C120D83AD07EEB54D
:090F830005011CAE0580EBAF0670
:010F8C002242
:100C1D00C2AFEF24FE603C14605014606C1470037E
:100C2D00020CB5147003020CD424056003020CF4FD
:100C3D0075FB308552DAE4F5DC43D84075C7AA75EB
:100C4D00C75575910175B71075C7AA75C755F5913B
:100C5D00020CF475FB0C8552DA75C7AA75C755756C
:100C6D009101E4F5CC75B710801575FB038552DC49
:100C7D0075C7AA75C755759101E4F5CC75B7127591
:100C8D00C7AA75C755F591805B75FB308552DC752C
:100C9D00C7AA75C75575910175B71275C7AA75C7DE
:100CAD0055E4F591F5DA803C75FB0C75C7AA75C74F
:100CBD00557591018552CC75B71475C7AA75C75571
:100CCD00E4F591F5DA801D75FB0375C7AA75C75557
:100CDD007591018552CC75B71475C7AA75C755E4C2
:0A0CED00F591F5DC43D840D2AF22A8
:0A0FAD00A207920B120F73020C1D35
:040FB70075FB3F2265
:100DF20053B1F443B20B53B3F843B40775DE3F75F6
:100E0200DF5175FB3FE4F5FCF5D675D73F75D9FF89
:100E1200F5D1F5DCF5D4F5DAF5D275C7AA75C75563
:100E2200759101F5CCF5C475C7AA75C755F59175CD
:100E3200C7AA75C75575F90775C7AA75C75575FA53
:070E42001275D8C0020FB7C2
:100D0300020EB2E493A3F8E493A34003F68001F246
:100D130008DFF48029E493A3F85407240CC8C333F1
:100D2300C4540F4420C8834004F456800146F6DFC0
:100D3300E4800B0102040810204080900E84E47EBE
:100D4300019360BCA3FF543F30E509541FFEE493B5
:100D5300A360010ECF54C025E060A840B8E493A37C
:100D6300FAE493A3F8E493A3C8C582C8CAC583CAA7
:100D7300F0A3C8C582C8CAC583CADFE9DEE780BE5F
:010EB1000040
:100A5B00BB010689828A83E0225002E722BBFE0299
:090A6B00E32289828A83E49322CC
:100A7400EF8DF0A4A8F0CF8CF0A428CE8DF0A42E96
:020A8400FE2250
:100A8600BC000BBE0029EF8DF084FFADF022E4CC54
:100A9600F875F008EF2FFFEE33FEEC33FCEE9DEC1D
:100AA600984005FCEE9DFE0FD5F0E9E4CEFD22ED63
:100AB600F8F5F0EE8420D21CFEADF075F008EF2FAD
:100AC600FFED33FD4007985006D5F0F222C398FD9E
:050AD6000FD5F0EA223B
:100ADB0075F008758200EF2FFFEE33FECD33CDCCD2
:100AEB0033CCC58233C5829BED9AEC99E582984055
:100AFB000CF582EE9BFEED9AFDEC99FC0FD5F0D632
:100B0B00E4CEFBE4CDFAE4CCF9A88222B800C1B95B
:100B1B000059BA002DEC8BF084CFCECDFCE5F0CB99
:100B2B00F97818EF2FFFEE33FEED33FDEC33FCEBD2
:100B3B0033FB10D703994004EB99FB0FD8E5E4F98D
:100B4B00FA227818EF2FFFEE33FEED33FDEC33FC7A
:100B5B00C933C910D7059BE99A4007EC9BFCE99A6E
:100B6B00F90FD8E0E4C9FAE4CCFB2275F010EF2FB3
:100B7B00FFEE33FEED33FDCC33CCC833C810D707B3
:100B8B009BEC9AE899400AED9BFDEC9AFCE899F8EE
:0E0B9B000FD5F0DAE4CDFBE4CCFAE4C8F92281
:100BA900EB9FF5F0EA9E42F0E99D42F0EC6480C8C3
:060BB90064809845F02263
:100BBF00EB9FF5F0EA9E42F0E99D42F0E89C45F08C
:010BCF002203
:100BD0007401FF3395E0FEFDFC080808E6CF2FF610
:100BE00018E6CE3EF618E6CD3DF618E6CC3CF622E9
:100BF000EC8EF0A4CCC5F0CCCDF8EFA4CEC5F02D92
:100C0000FDE43CFCE8A42EC8C5F03DFDE43CFCEF4F
:0D0C1000A4FFE5F028FEE43DFDE43CFC22DD
:00000001FF
