:030000000209E80A
:0C09E800787FE4F6D8FD758167020A2FC5
:1002D20000060C13191F252B32383E444A50565C37
:1002E20061676D72787D83888D92979CA1A6ABAF72
:1002F200B4B8BCC0C5C8CCD0D3D7DADBD8D4D1CD42
:10030200C9C5C1BDB9B5B0ACA7A29E99948E898466
:100312007F79746E68635D57514B453F39332D27A2
:10032200211A140E0801050B11171E242A30363C1F
:1003320042484E545A60666B71777C81878C9196E5
:100342009BA0A5AAAEB3B7BBC0C4C7CBCFD3D6D9E7
:10035200DCD8D5D2CECAC6C2BEBAB6B1ADA8A49FA9
:100362009A95908B85807A756F6A645E58534D4773
:10037200413B352E28221C160F0903030A10161CB6
:1003820022292F353B41474D53595F646A70757B73
:1003920080868B90959A9FA4A9ADB2B6BABFC3C707
:1003A200CACED2D5D8DCD9D6D2CFCBC7C3BFBBB782
:1003B200B2AEA9A5A09B96918C86817C76716B6565
:1003C200605A544E48423C36302A241D17110B0401
:1003D200DCDFE2E5E7EAECEEF1F2F4F6F7F9FAFB3C
:1003E200FCFDFDFEFEFEFEFEFDFDFCFCFBF9F8F74A
:1003F200F5F4F2F0EEEBE9E6E4E1DEDDE0E3E6E877
:10040200EBEDEFF1F3F5F6F8F9FAFBFCFDFDFEFE7C
:10041200FEFEFEFDFDFCFBFAF9F8F6F5F3F1EFED59
:10042200EAE8E5E3E0DDDEE1E4E7E9ECEEF0F2F450
:10043200F6F7F8FAFBFCFCFDFEFEFEFEFEFEFDFCFE
:10044200FCFBFAF9F7F6F4F2F0EEECEAE7E4E2DFAD
:10045200DCDFE2E5E8EAEDEFF1F3F5F6F8F9FAFBB5
:10046200FCFDFDFEFEFEFEFEFDFDFCFBFAF9F8F7CB
:10047200F5F3F1EFEDEBE9E6E3E0DDDEE1E3E6E9FA
:10048200EBEDF0F2F3F5F7F8F9FAFBFCFDFDFEFEF9
:10049200FEFEFEFDFDFCFBFAF9F8F6F4F3F1EFECDB
:1004A200EAE8E5E2DFDCDFE2E4E7EAECEEF0F2F4D0
:1004B200F6F7F9FAFBFCFDFDFEFEFEFEFEFDFDFC7D
:1004C200FCFBFAF8F7F5F4F2F0EEECE9E7E4E1DE32
:100086006100000000060C13191F252B32383E4470
:100096004A50565C61676D72787D83888D92979C15
:1000A600A1A6ABAFB4B8BCC0C5C8CCD0D3D7DADB39
:1000B600D8D4D1CDC9C5C1BDB9B5B0ACA7A29E999A
:1000C600948E89847F79746E68635D57514B453F82
:1000D60039332D27211A140E0801050B11171E247A
:1000E6002A30363C42484E545A60666B71777C81A2
:1000F600878C91969BA0A5AAAEB3B7BBC0C4C7CB4D
:10010600CFD3D6D9DCD8D5D2CECAC6C2BEBAB6B13E
:10011600ADA8A49F9A95908B85807A756F6A645E68
:1001260058534D47413B352E28221C160F09030311
:100136000A10161C22292F353B41474D53595F643F
:100146006A70757B80868B90959A9FA4A9ADB2B68E
:10015600BABFC3C7CACED2D5D8DCD9D6D2CFCBC7C1
:10016600C3BFBBB7B2AEA9A5A09B96918C86817C76
:1001760076716B65605A544E48423C36302A241DCF
:1001860017110B0461000100DCDFE2E5E7EAECEEA3
:10019600F1F2F4F6F7F9FAFBFCFDFDFEFEFEFEFEBB
:1001A600FDFDFCFCFBF9F8F7F5F4F2F0EEEBE9E601
:1001B600E4E1DEDDE0E3E6E8EBEDEFF1F3F5F6F89A
:1001C600F9FAFBFCFDFDFEFEFEFEFEFDFDFCFBFA64
:1001D600F9F8F6F5F3F1EFEDEAE8E5E3E0DDDEE167
:1001E600E4E7E9ECEEF0F2F4F6F7F8FAFBFCFCFDD6
:1001F600FEFEFEFEFEFEFDFCFCFBFAF9F7F6F4F24F
:10020600F0EEECEAE7E4E2DFDCDFE2E5E8EAEDEF78
:10021600F1F3F5F6F8F9FAFBFCFDFDFEFEFEFEFE37
:10022600FDFDFCFBFAF9F8F7F5F3F1EFEDEBE9E686
:10023600E3E0DDDEE1E3E6E9EBEDF0F2F3F5F7F816
:10024600F9FAFBFCFDFDFEFEFEFEFEFDFDFCFBFAE3
:10025600F9F8F6F4F3F1EFECEAE8E5E2DFDCDFE2E9
:10026600E4E7EAECEEF0F2F4F6F7F9FAFBFCFDFD52
:10027600FEFEFEFEFEFDFDFCFCFBFAF8F7F5F4F2D1
:08028600F0EEECE9E7E4E1DE33
:020C1200AB072E
:100C1400E4FAEAC394FF748094805039EA9002D2D3
:100C240093FF7E00EBFD7C00120961EEFF74002A45
:100C3400F582E43400F583EFF0EA9003D293FF7E6B
:100C440000120961EEFF74002AF582E43401F58391
:050C5400EFF00A80BD75
:010C59002278
:10068E00C0D075D008AD0F74002DF582E43400F59E
:10069E0083E0755C00F55D74002DF582E43401F5A0
:1006AE0083E0755E00F55FC374FF955FFFE4955EB2
:1006BE00C313F562EF13F563856266F567255DF585
:1006CE0065E562355CF564E563255FF561E56235E8
:1006DE005EF560C2AFEDFF7E00C3942B74809480F4
:1006EE00501B75C7AA75C7557591018563CC75C723
:1006FE00AA75C755E4F5918565DC0207B6C3EF947C
:10070E0055EE64809480501A75C7AA75C7557591B9
:10071E00018563CC75C7AA75C755E4F5918565DA71
:10072E008023C3EF9480EE64809480501D8563DA3D
:10073E0075C7AA75C7557591018565CC75C7AA751C
:10074E00C755E4F5918561DC8061C3EF94ABEE642F
:10075E0080948050088563DA8565DC8011C3EF9440
:10076E00D5EE64809480501D8563DC8565DA75C78F
:10077E00AA75C7557591018561CC75C7AA75C75500
:10078E00E4F5918026C3EF94FFEE64809480501BB5
:10079E008563DC75C7AA75C7557591018565CC75DE
:1007AE00C7AA75C755E4F5918561DAE4F5FB43DF19
:0907BE001043D840D2AFD0D02284
:0400660075FB3F22C5
:100BBC0053B1F443B20B53B3F843B40775DE3F752E
:100BCC00DF5075FB3FE4F5FCF5D6F5D775D9FFF58D
:100BDC00D1F5DCF5D4F5DAF5D275C7AA75C755751C
:100BEC009101F5CCF5C475C7AA75C755F59175C7B4
:100BFC00AA75C75575F90775C7AA75C75575FA064D
:060C0C0075D8C00200666D
:0A0DCE00303132333435363738390E
:10028E00C10AC18CC18B013CBD01430A0144D70197
:10029E002901013A01013B0202451770022E0000AE
:1002AE0001390002250000015B00022A0000024114
:0F02BE000000013E00013D000237000001340046
:0300230002003E9A
:10003E00C0E0C0D075D008309904C299C20930987A
:10004E000FC298AF400540744B2FF8A69953400F3E
:05005E00D0D0D0E0321B
:01000A0022D3
:100D78007E00CFCDCFCECCCE12097374CE2FF582A4
:080D8800740D3EF583E493FFB6
:080D90002009FDD2098F992210
:100D31008B148A158916AB14AA15A91612094860D5
:100D4100130516E5167002051514F9120948FF126C
:050D51000D9080E2227C
:100D98008F138E128D118C10781074FF1209CAEC03
:060DA8004D4E4F70F322D6
:100C9600AB07AA067C037DE81209737F64120D7800
:100CA6007C007D64AF03AE021209737F0A120D78D1
:100CB600AE02AF037C007D0A12097374CE2DF58255
:0B0CC600740D3CF583E493FF020D90D9
:100B5500E4F58975C969439210F59375941075F19B
:100B65000875CBFF75CBFEF5C575C6F0439C0253E2
:100B7500C4EF43C408758D70758B24439B0443C82B
:100B85000443F70453EFFB43EF8053F77F43890199
:100B9500758AAB758C2FC28DD28CD2A975E9FD43B0
:100BA500EA5843EB38439B0243F78043EF8043EF1A
:070BB5002643FF02D2AF222C
:02000E008F1051
:10001000A20D920E120003AF10120C12A20D920C40
:0100200022BD
:03003B00020D0AA9
:100D0A00C0E0C0D0E5EC30E61653ECB0C3E5389449
:100D1A00FFE537940050080538E538700205377545
:070D2A00EC00D0D0D0E03254
:03000B00020CD113
:100CD100C0E0C0D0C28CC28D758AAB758C2F7537C0
:100CE10000753840C3E53D9538E495375002053D20
:100CF100D3E53D9538E495374002153D75370075CC
:090D01003800D28CD0D0D0E032D1
:0508A500C0D075D00871
:1008AA00AEC9EE24B7605024F0602824F0706AAE16
:1008BA00E5EEC394017480948050047F02805AAE9E
:1008CA00E5EEC394047480948050047F01804AE466
:1008DA00FF8046AEE5EEC394027480948050047F94
:1008EA00028036AEE5EEC394067480948050047F8D
:1008FA00018026E4FF8022AEE5EEC394047480945E
:10090A008050047F028012AEE5EEC3940C7480948A
:10091A008050047F018002E4FF853A29EF14600DBC
:10092A00146012800075C969753A01800E75C9593B
:0B093A00753A02800675C949753A0441
:03094500D0D022ED
:040DDE00439B082209
:0F0DBF0053C4E7EFF4F5C5EEF4F5C643C40822BC
:030063000204D2C2
:0704D200C0E0C0D075D01896
:1004D900C20F5392FE300C087541008544428006D4
:1004E900754100853C4285474985484AAFE5EFFE9D
:1004F900ADE47C00E42DF548EC3EF54785323585C1
:100509003336853032853133852C30852D31F52CC4
:1005190085482DD3E534940F748094804003753455
:1005290000AFC9EF249760112410701EE54825E03B
:10053900F548E54733F5478011AE47E5487802C3EA
:1005490033CE33CED8F9F5488E47D3E5369533E522
:100559003595324017E5369533FFE5359532FED3AB
:10056900EF94C8EE9400401AD20F8016C3E5339574
:1005790036FFE5329535FED3EF94C8EE940040027C
:10058900D20FD3E5339531E53295304017E53395F0
:1005990031FFE5329530FED3EF94C8EE9400401A4E
:1005A900D20F8016C3E5319533FFE5309532FED37E
:1005B900EF94C8EE94004002D20FD3E531952DE5B2
:1005C90030952C4017E531952DFFE530952CFED35C
:1005D900EF94C8EE9400401AD20F8016C3E52D950A
:1005E90031FFE52C9530FED3EF94C8EE940040021C
:1005F900D20F300F06AF2DAE2C8025E52D2531FF0A
:10060900E52C3530FEE5332FFFE5323EFEE5362F8A
:10061900FFE5353EFEEF7802CEC313CE13D8F9FFBE
:10062900120DBF1208A5D3E5489546E547954550F3
:100639004AAE49E54AA83B088005CEC313CE13D874
:10064900F9FFC3E54A9FFDE5499EFCC3E5489DE5E1
:10065900479C4027E54A2FFFE5493EFED3E5489FE1
:10066900E5479E5016C3E539940474809480400789
:10067900300B0DD20A800905398005753900C20A87
:05068900D0D0D0E032EA
:03008300020A74FA
:100A7400C0E0C0F0C083C082C0D075D00853C4EFBA
:100A8400C374FF9529FFE49400FEC3E5429FE5414A
:100A94009E500DE5292542F542E43541F541801388
:100AA400754100754200C3E53494FF74809480500E
:100AB40002053485412A85422B300A18300C0CC3B8
:100AC40074FF952BF52BE4952AF52AAF2BAE2A1249
:100AD400068E800312006ED0D0D082D083D0F0D0A6
:020AE400E032FE
:03006B00020DD8AB
:060DD800C2DD43E84032D9
:1000260075E80475E10775CFA0E4F5CE75E31C7598
:03003600E2A02223
:100C5A00120BBC120D56120026D20D7F2812000E5E
:100C6A00120B5553B1FB43B20453B3B053B4B0D2D1
:100C7A0082E4FBFA7FFE7E007D007C00120D980B59
:0C0C8A00BB00010AEB64FE4A70EA80E542
:0402CD00C184C183A4
:07000300A20E92048F1722E8
:100DAE00C0D0A2959200A2939201A2949202D0D0AA
:010DBE002212
:100D560053B3C753B4C775C7AA75C7557591014331
:100D6600B31875C7AA75C755E4F591D295D293D233
:020D76009422C5
:100AE600C0D075D008309533A293300301B35019A6
:100AF60030940B3010047F0580527F03804E3010F7
:100B0600047F0480477F0280433094047F00803C4A
:100B16003010047F0380357F018031A293300301BA
:100B2600B3501230940B3010047F06801F7F048070
:100B36001B7F00801730940B3010047F01800D7FDF
:0F0B46000580093010047F0280027F06D0D02284
:1007C700C0D0C2AFEF24FE603C14605014606C14BC
:1007D7007003020861147003020880240560030295
:1007E70008A075FB308517DAE4F5DC43D84075C7F8
:1007F700AA75C75575910175B71075C7AA75C755FD
:10080700F5910208A075FB0C8517DA75C7AA75C79D
:1008170055759101E4F5CC75B710801575FB038507
:1008270017DC75C7AA75C755759101E4F5CC75B77F
:100837001275C7AA75C755F591805B75FB3085178B
:10084700DC75C7AA75C75575910175B71275C7AA23
:1008570075C755E4F591F5DA803C75FB0C75C7AAA9
:1008670075C7557591018517CC75B71475C7AA75E6
:10087700C755E4F591F5DA801D75FB0375C7AA75B1
:10088700C7557591018517CC75B71475C7AA75C774
:0E08970055E4F591F5DC43D840D2AFD0D02225
:10006E00C0D075D008A2049210120AE61207C7D0AB
:02007E00D0228E
:1009F400020C5AE493A3F8E493A34003F68001F2B3
:100A040008DFF48029E493A3F85407240CC8C33303
:100A1400C4540F4420C8834004F456800146F6DFD2
:100A2400E4800B0102040810204080900086E47EDC
:100A3400019360BCA3FF543F30E509541FFEE493C7
:100A4400A360010ECF54C025E060A840B8E493A38E
:100A5400FAE493A3F8E493A3C8C582C8CAC583CAB9
:100A6400F0A3C8C582C8CAC583CADFE9DEE780BE71
:0102D100002C
:10094800BB010689828A83E0225002E722BBFE02AD
:09095800E32289828A83E49322E0
:10096100EF8DF0A4A8F0CF8CF0A428CE8DF0A42EAA
:02097100FE2264
:10097300BC000BBE0029EF8DF084FFADF022E4CC68
:10098300F875F008EF2FFFEE33FEEC33FCEE9DEC31
:10099300984005FCEE9DFE0FD5F0E9E4CEFD22ED77
:1009A300F8F5F0EE8420D21CFEADF075F008EF2FC1
:1009B300FFED33FD4007985006D5F0F222C398FDB2
:0509C3000FD5F0EA224F
:1009C8007401FF3395E0FEFDFC080808E6CF2FF61A
:1009D80018E6CE3EF618E6CD3DF618E6CC3CF622F3
:00000001FF
