:03000000020B04EC
:0C0B0400787FE4F6D8FD758152020B4B9F
:10002600000000040009000D00120016001B001F4E
:1000360000230028002C003000350039003D004226
:100046000046004A004E00530057005B005F006305
:100056000067006B006F00730077007B007F0083F2
:100066000087008A008E009200950099009C00A0EF
:1000760000A300A700AA00AD00B000B400B700BA04
:1000860000BD00C000C300C500C800CB00CD00D035
:1000960000D300D500D700DA00DC00DA00D700D59F
:1000A60000D300D000CD00CB00C800C500C300C0FF
:1000B60000BD00BA00B700B400B000AD00AA00A7AA
:1000C60000A300A0009C009900950092008E008A73
:1000D60000870083007F007B00770073006F006B52
:1000E60000670063005F005B00570053004E004A44
:1000F60000460042003D003900350030002C002843
:100106000023001F001B00160012000D000900044A
:10011600000000040009000D00120016001B001F5D
:1001260000230028002C003000350039003D004235
:100136000046004A004E00530057005B005F006314
:100146000067006B006F00730077007B007F008301
:100156000087008A008E009200950099009C00A0FE
:1001660000A300A700AA00AD00B000B400B700BA13
:1001760000BD00C000C300C500C800CB00CD00D044
:1001860000D300D500D700DA00DC00DA00D700D5AE
:1001960000D300D000CD00CB00C800C500C300C00E
:1001A60000BD00BA00B700B400B000AD00AA00A7B9
:1001B60000A300A0009C009900950092008E008A82
:1001C60000870083007F007B00770073006F006B61
:1001D60000670063005F005B00570053004E004A53
:1001E60000460042003D003900350030002C002852
:1001F6000023001F001B00160012000D000900045A
:10020600000000040009000D00120016001B001F6C
:1002160000230028002C003000350039003D004244
:100226000046004A004E00530057005B005F006323
:100236000067006B006F00730077007B007F008310
:100246000087008A008E009200950099009C00A00D
:1002560000A300A700AA00AD00B000B400B700BA22
:1002660000BD00C000C300C500C800CB00CD00D053
:1002760000D300D500D700DA00DC00DA00D700D5BD
:1002860000D300D000CD00CB00C800C500C300C01D
:1002960000BD00BA00B700B400B000AD00AA00A7C8
:1002A60000A300A0009C009900950092008E008A91
:1002B60000870083007F007B00770073006F006B70
:1002C60000670063005F005B00570053004E004A62
:1002D60000460042003D003900350030002C002861
:1002E6000023001F001B00160012000D0009000469
:1002F600000000DC00DE00E000E200E400E600E8CA
:1003060000EA00EC00ED00EF00F000F200F300F46C
:1003160000F500F600F700F800F900FA00FB00FC13
:1003260000FC00FD00FD00FD00FE00FE00FE00FEDC
:1003360000FE00FE00FE00FD00FD00FD00FC00FCCE
:1003460000FB00FA00F900F800F700F600F500F4EB
:1003560000F300F200F000EF00ED00EC00EA00E828
:1003660000E600E400E200E000DE00DC00DE00E083
:1003760000E200E400E600E800EA00EC00ED00EF31
:1003860000F000F200F300F400F500F600F700F8C4
:1003960000F900FA00FB00FC00FC00FD00FD00FD7A
:1003A60000FE00FE00FE00FE00FE00FE00FE00FD58
:1003B60000FD00FD00FC00FC00FB00FA00F900F85F
:1003C60000F700F600F500F400F300F200F000EF8D
:1003D60000ED00EC00EA00E800E600E400E200E0E0
:1003E60000DE00DC00DE00E000E200E400E600E8FB
:1003F60000EA00EC00ED00EF00F000F200F300F47C
:1004060000F500F600F700F800F900FA00FB00FC22
:1004160000FC00FD00FD00FD00FE00FE00FE00FEEB
:1004260000FE00FE00FE00FD00FD00FD00FC00FCDD
:1004360000FB00FA00F900F800F700F600F500F4FA
:1004460000F300F200F000EF00ED00EC00EA00E837
:1004560000E600E400E200E000DE00DC00DE00E092
:1004660000E200E400E600E800EA00EC00ED00EF40
:1004760000F000F200F300F400F500F600F700F8D3
:1004860000F900FA00FB00FC00FC00FD00FD00FD89
:1004960000FE00FE00FE00FE00FE00FE00FE00FD67
:1004A60000FD00FD00FC00FC00FB00FA00F900F86E
:1004B60000F700F600F500F400F300F200F000EF9C
:1004C60000ED00EC00EA00E800E600E400E200E0EF
:1004D60000DE00DC00DE00E000E200E400E600E80A
:1004E60000EA00EC00ED00EF00F000F200F300F48B
:1004F60000F500F600F700F800F900FA00FB00FC32
:1005060000FC00FD00FD00FD00FE00FE00FE00FEFA
:1005160000FE00FE00FE00FD00FD00FD00FC00FCEC
:1005260000FB00FA00F900F800F700F600F500F409
:1005360000F300F200F000EF00ED00EC00EA00E846
:1005460000E600E400E200E000DE00DC00DE00E0A1
:1005560000E200E400E600E800EA00EC00ED00EF4F
:1005660000F000F200F300F400F500F600F700F8E2
:1005760000F900FA00FB00FC00FC00FD00FD00FD98
:1005860000FE00FE00FE00FE00FE00FE00FE00FD76
:1005960000FD00FD00FC00FC00FB00FA00F900F87D
:1005A60000F700F600F500F400F300F200F000EFAB
:1005B60000ED00EC00EA00E800E600E400E200E0FE
:0405C60000DE00DC77
:1009D000AB07AA06A905EB25E0FFEA33FE74262F34
:1009E000F58274003EF583E493FC740193FDE9FF06
:1009F0007E00120827EEF511751000EB25E0FFEAE6
:100A000033FE74F82FF58274023EF583E493FC7490
:100A10000193FDAF017E00120827EEF51375120059
:100A2000C374FF9513FFE49512C313F516EF13F586
:100A30001785161AF51B2511F519E5163510F51849
:100A4000E5172513F515E5163512F514C2AFC3EBFE
:100A5000943CEA9400501575C7AA75C75575910165
:100A60008517CCE4F5918519DC020AF5C3EB94787F
:100A7000EA9400501475C7AA75C75575910185177A
:100A8000CCE4F5918519DA801BC3EB94B4EA9400A9
:100A900050178517DA75C7AA75C75575910185195D
:100AA000CCE4F5918515DC804FC3EB94F0EA94001B
:100AB00050088517DA8519DC800FC3EB942CEA9473
:100AC0000150178517DC8519DA75C7AA75C75575E2
:100AD00091018515CCE4F591801EC3EB9468EA94EE
:100AE0000150158517DC75C7AA75C7557591018525
:100AF00019CCE4F5918515DAD2AFE4F5FB43DF10AC
:040B000043D8402274
:0A0E240030313233343536373839B7
:100DDA00C105C1860230010B023400040236013E0D
:0A0DEA00012F03023802BC014E0085
:03002300020D705B
:100D7000C0E0C0D075D008309904C299C204309840
:100D80000FC298AF330533743E2FF8A69953330F33
:050D9000D0D0D0E032DC
:0100190022C4
:100DBA007E00CFCDCFCECCCE12083974242FF58247
:080DCA00740E3EF583E493FF73
:080DD2002004FDD2048F9922D8
:100D95008B4F8A508951AB4FAA50A95112080E604A
:100DA500130551E5517002055014F912080EFF1292
:050DB5000DD280E222D6
:100003008F1F8E1E8D1D8C1C781C74FF120985ECAE
:060013004D4E4F70F32278
:03001B000205CA11
:0D05CA00C0E0C0F0C083C082C0D075D0007A
:1005D700C28EC28F758DB3758B24D28EAE24AF2594
:1005E700E4FCFD7B607AEAF9F8D312095C40080560
:1005F70025E52570020524AE3AE53BA82F088005BE
:10060700CEC313CE13D8F9253BFFE53A3EFEC3E52B
:10061700259FE5249E400A300507D286C205752E20
:1006270000C207120DF7AD07E54E6D7003020722F2
:10063700300677ED24FA6003020722853A3C853BB2
:100647003D85243A85253B752400752500D3E53B78
:100657009539E53A95385049AE3CE53DA82F0880D5
:1006670005CEC313CE13D8F9FFC3E53D9FFBE53C89
:100677009EFAC3E53B9BE53A9A4026E53D2FFFE509
:100687003C3EFED3E53B9FE53A9E5015C286C3E547
:100697002E9404748094804004D205807E052E80B9
:1006A7007AD286752E00C2058071ED14706D853A79
:1006B7003C853B3D85243A85253B752400752500FF
:1006C700D3E53B9539E53A95385049AE3CE53DA829
:1006D7002F088005CEC313CE13D8F9FFC3E53D9F7E
:1006E700FBE53C9EFAC3E53B9BE53A9A4026E53D90
:1006F7002FFFE53C3EFED3E53B9FE53A9E5015C2F2
:1007070086C3E52E9404748094804004D205800B40
:10071700052E8007D286C205752E008D4EAE3CAFE2
:100727003DAB07AA06E53B2BFFE53A3AFEE433FD6E
:10073700E433FCC004A905AA06AB07AE24AF257CA9
:10074700027DCF1209A3D0001208CA8F2B8E2A8DE3
:10075700298C282005030207FAE47F687E01FDFC47
:10076700AB2BAA2AA929A828D3120972400302078A
:10077700FD30060EAE36EE3395E0FDFCE52B253752
:10078700800CAE30EE3395E0FDFCE52B2531F52BE3
:10079700E52A3EF52AE5293DF529E5283CF528E433
:1007A7007F687E01FDFCAB2BAA2AA929A828C312C2
:1007B70009724018E52B9468F52BE52A9401F52A70
:1007C700E5299400F529E5289400F528300617C394
:1007D7007468952BF52B7401952AF52AE49529F56C
:1007E70029E49528F528AE2AAF2B7D407C00120915
:0C07F700D08003120E2E852A22852B23B1
:0B080300D0D0D082D083D0F0D0E03203
:100CE100AB07AA067C037DE81208397F64120DBAAE
:100CF1007C007D64AF03AE021208397F0A120DBA7F
:100D0100AE02AF037C007D0A12083974242DF582EE
:0B0D1100740E3CF583E493FF020DD24A
:100E1100438E18E4F589758D01758B24D28ED2AB82
:030E2100D2AF222B
:100D4700120C8A120D1C120E117F40120E38E4FB92
:100D5700FA7F6A7E017D007C001200030BBB000155
:090D67000ABA01EDBB69EA80E55E
:020DF400C189B3
:030E38008F5222B4
:100D1C0053B1E753B2E753B3EB53B4EB75C7AA75B2
:100D2C00C75575910143B31843B10875C7AA75C768
:0B0D3C0055E4F591D284D293D29422AA
:100C1B0020840F20930C2094093008037F02227F3D
:100C2B00062230840F20930C2094093008037F0395
:100C3B00227F012230840F30930C2094093008035B
:100C4B007F04227F022230840F30930C30940930C2
:100C5B0008037F05227F032220840F30930C3094EE
:100C6B00093008037F06227F042220840F20930C77
:0F0C7B003094093008037F01227F05227F002279
:100DF7007C03EC6012A2079208120C1BAD07EEB53C
:090E070005011CAE0580EBAF06ED
:010E100022BF
:100B9000C2AFEF24FE601914601E14603714603F6A
:100BA0001460582405707175FB308552DAE4806357
:100BB00075FB0C8552DA800675FB038552DC75C720
:100BC000AA75C755759101E4F5CC75C7AA75C755C7
:100BD000F591804175FB308552DCE4F5DA8036759D
:100BE000FB0C75C7AA75C7557591018552CC75C7A1
:100BF000AA75C755E4F591F5DA801A75FB0375C738
:100C0000AA75C7557591018552CC75C7AA75C75588
:0B0C1000E4F591F5DC43D840D2AF22A0
:0A0E2E00A2099207120DF7020B90C3
:04001E0075FB3F220D
:100C8A0053B1F443B20B53B3F843B40775DE3F755F
:100C9A00DF5175FB3FE4F5FCF5D675D73F75D9FFF3
:100CAA00F5D1F5DCF5D4F5DAF5D275C7AA75C755CD
:100CBA00759101F5CCF5C475C7AA75C755F5917537
:100CCA00C7AA75C75575F90775C7AA75C75575FABD
:070CDA001275D8C002001ED4
:100B1000020D47E493A3F8E493A34003F68001F2A7
:100B200008DFF48029E493A3F85407240CC8C333E6
:100B3000C4540F4420C8834004F456800146F6DFB5
:100B4000E4800B0102040810204080900DDAE47E5E
:100B5000019360BCA3FF543F30E509541FFEE493AA
:100B6000A360010ECF54C025E060A840B8E493A371
:100B7000FAE493A3F8E493A3C8C582C8CAC583CA9C
:100B8000F0A3C8C582C8CAC583CADFE9DEE780BE54
:010DF60000FC
:10080E00BB010689828A83E0225002E722BBFE02E8
:09081E00E32289828A83E493221B
:10082700EF8DF0A4A8F0CF8CF0A428CE8DF0A42EE5
:02083700FE229F
:10083900BC000BBE0029EF8DF084FFADF022E4CCA3
:10084900F875F008EF2FFFEE33FEEC33FCEE9DEC6C
:10085900984005FCEE9DFE0FD5F0E9E4CEFD22EDB2
:10086900F8F5F0EE8420D21CFEADF075F008EF2FFC
:10087900FFED33FD4007985006D5F0F222C398FDED
:050889000FD5F0EA228A
:10088E0075F008758200EF2FFFEE33FECD33CDCC21
:10089E0033CCC58233C5829BED9AEC99E5829840A4
:1008AE000CF582EE9BFEED9AFDEC99FC0FD5F0D681
:1008BE00E4CEFBE4CDFAE4CCF9A88222B800C1B9AB
:1008CE000059BA002DEC8BF084CFCECDFCE5F0CBE9
:1008DE00F97818EF2FFFEE33FEED33FDEC33FCEB22
:1008EE0033FB10D703994004EB99FB0FD8E5E4F9DD
:1008FE00FA227818EF2FFFEE33FEED33FDEC33FCCA
:10090E00C933C910D7059BE99A4007EC9BFCE99ABD
:10091E00F90FD8E0E4C9FAE4CCFB2275F010EF2F02
:10092E00FFEE33FEED33FDCC33CCC833C810D70702
:10093E009BEC9AE899400AED9BFDEC9AFCE899F83D
:0E094E000FD5F0DAE4CDFBE4CCFAE4C8F922D0
:10095C00EB9FF5F0EA9E42F0E99D42F0EC6480C812
:06096C0064809845F022B2
:10097200EB9FF5F0EA9E42F0E99D42F0E89C45F0DB
:010982002252
:100983007401FF3395E0FEFDFC080808E6CF2FF65F
:1009930018E6CE3EF618E6CD3DF618E6CC3CF62238
:1009A300EC8EF0A4CCC5F0CCCDF8EFA4CEC5F02DE1
:1009B300FDE43CFCE8A42EC8C5F03DFDE43CFCEF9F
:0D09C300A4FFE5F028FEE43DFDE43CFC222D
:00000001FF
