:03000000020E31BC
:0C0E3100787FE4F6D8FD75815E020E7833
:10006E00000000040009000D00120016001B001F06
:10007E0000230028002C003000350039003D0042DE
:10008E000046004A004E00530057005B005F0063BD
:10009E000067006B006F00730077007B007F0083AA
:1000AE000087008A008E009200950099009C00A0A7
:1000BE0000A300A700AA00AD00B000B400B700BABC
:1000CE0000BD00C000C300C500C800CB00CD00D0ED
:1000DE0000D300D500D700DA00DC00DA00D700D557
:1000EE0000D300D000CD00CB00C800C500C300C0B7
:1000FE0000BD00BA00B700B400B000AD00AA00A762
:10010E0000A300A0009C009900950092008E008A2A
:10011E0000870083007F007B00770073006F006B09
:10012E0000670063005F005B00570053004E004AFB
:10013E0000460042003D003900350030002C0028FA
:10014E000023001F001B00160012000D0009000402
:10015E00000000040009000D00120016001B001F15
:10016E0000230028002C003000350039003D0042ED
:10017E000046004A004E00530057005B005F0063CC
:10018E000067006B006F00730077007B007F0083B9
:10019E000087008A008E009200950099009C00A0B6
:1001AE0000A300A700AA00AD00B000B400B700BACB
:1001BE0000BD00C000C300C500C800CB00CD00D0FC
:1001CE0000D300D500D700DA00DC00DA00D700D566
:1001DE0000D300D000CD00CB00C800C500C300C0C6
:1001EE0000BD00BA00B700B400B000AD00AA00A771
:1001FE0000A300A0009C009900950092008E008A3A
:10020E0000870083007F007B00770073006F006B18
:10021E0000670063005F005B00570053004E004A0A
:10022E0000460042003D003900350030002C002809
:10023E000023001F001B00160012000D0009000411
:10024E00000000040009000D00120016001B001F24
:10025E0000230028002C003000350039003D0042FC
:10026E000046004A004E00530057005B005F0063DB
:10027E000067006B006F00730077007B007F0083C8
:10028E000087008A008E009200950099009C00A0C5
:10029E0000A300A700AA00AD00B000B400B700BADA
:1002AE0000BD00C000C300C500C800CB00CD00D00B
:1002BE0000D300D500D700DA00DC00DA00D700D575
:1002CE0000D300D000CD00CB00C800C500C300C0D5
:1002DE0000BD00BA00B700B400B000AD00AA00A780
:1002EE0000A300A0009C009900950092008E008A49
:1002FE0000870083007F007B00770073006F006B28
:10030E0000670063005F005B00570053004E004A19
:10031E0000460042003D003900350030002C002818
:10032E000023001F001B00160012000D0009000420
:10033E00000000DC00DE00E000E200E400E600E881
:10034E0000EA00EC00ED00EF00F000F200F300F424
:10035E0000F500F600F700F800F900FA00FB00FCCB
:10036E0000FC00FD00FD00FD00FE00FE00FE00FE94
:10037E0000FE00FE00FE00FD00FD00FD00FC00FC86
:10038E0000FB00FA00F900F800F700F600F500F4A3
:10039E0000F300F200F000EF00ED00EC00EA00E8E0
:1003AE0000E600E400E200E000DE00DC00DE00E03B
:1003BE0000E200E400E600E800EA00EC00ED00EFE9
:1003CE0000F000F200F300F400F500F600F700F87C
:1003DE0000F900FA00FB00FC00FC00FD00FD00FD32
:1003EE0000FE00FE00FE00FE00FE00FE00FE00FD10
:1003FE0000FD00FD00FC00FC00FB00FA00F900F817
:10040E0000F700F600F500F400F300F200F000EF44
:10041E0000ED00EC00EA00E800E600E400E200E097
:10042E0000DE00DC00DE00E000E200E400E600E8B2
:10043E0000EA00EC00ED00EF00F000F200F300F433
:10044E0000F500F600F700F800F900FA00FB00FCDA
:10045E0000FC00FD00FD00FD00FE00FE00FE00FEA3
:10046E0000FE00FE00FE00FD00FD00FD00FC00FC95
:10047E0000FB00FA00F900F800F700F600F500F4B2
:10048E0000F300F200F000EF00ED00EC00EA00E8EF
:10049E0000E600E400E200E000DE00DC00DE00E04A
:1004AE0000E200E400E600E800EA00EC00ED00EFF8
:1004BE0000F000F200F300F400F500F600F700F88B
:1004CE0000F900FA00FB00FC00FC00FD00FD00FD41
:1004DE0000FE00FE00FE00FE00FE00FE00FE00FD1F
:1004EE0000FD00FD00FC00FC00FB00FA00F900F826
:1004FE0000F700F600F500F400F300F200F000EF54
:10050E0000ED00EC00EA00E800E600E400E200E0A6
:10051E0000DE00DC00DE00E000E200E400E600E8C1
:10052E0000EA00EC00ED00EF00F000F200F300F442
:10053E0000F500F600F700F800F900FA00FB00FCE9
:10054E0000FC00FD00FD00FD00FE00FE00FE00FEB2
:10055E0000FE00FE00FE00FD00FD00FD00FC00FCA4
:10056E0000FB00FA00F900F800F700F600F500F4C1
:10057E0000F300F200F000EF00ED00EC00EA00E8FE
:10058E0000E600E400E200E000DE00DC00DE00E059
:10059E0000E200E400E600E800EA00EC00ED00EF07
:1005AE0000F000F200F300F400F500F600F700F89A
:1005BE0000F900FA00FB00FC00FC00FD00FD00FD50
:1005CE0000FE00FE00FE00FE00FE00FE00FE00FD2E
:1005DE0000FD00FD00FC00FC00FB00FA00F900F835
:1005EE0000F700F600F500F400F300F200F000EF63
:1005FE0000ED00EC00EA00E800E600E400E200E0B6
:04060E0000DE00DC2E
:10092C00C0D075D008AB0FAA0EA90DEB25E0FFEADD
:10093C0033FE746E2FF58274003EF583E493FC74E1
:10094C000193FDE9FF7E00120BAAEEF551755000E4
:10095C00EB25E0FFEA33FE74402FF58274033EF57D
:10096C0083E493FC740193FDAF097E00120BAAEE95
:10097C00F553755200C374FF9553FFE49552C3139E
:10098C00F556EF13F55785565AF55B2551F559E594
:10099C00563550F558E5572553F555E5563552F56E
:1009AC0054C2AFC3EB943CEA9400504675C7AA7589
:1009BC00C7557591018557CCE551941EE5509400AF
:1009CC00400575B715801CC3E5539551FFE552954D
:1009DC0050FED3EF941EEE9400400575B7138003C0
:1009EC0075B71175C7AA75C755E4F5918559DC0221
:1009FC000B80C3EB9478EA9400504575C7AA75C771
:100A0C00557591018557CCE551941EE550940040E5
:100A1C000575B715801CC3E5539551FFE5529550EC
:100A2C00FED3EF941EEE9400400575B7118003754C
:100A3C00B71375C7AA75C755E4F5918559DA804C7B
:100A4C00C3EB94B4EA940050498557DA75C7AA757C
:100A5C00C7557591018559CCE551941EE55094000C
:100A6C00400575B711801CC3E5539551FFE55295B0
:100A7C0050FED3EF941EEE9400400575B71580031D
:100A8C0075B71375C7AA75C755E4F5918555DC0282
:100A9C000B83C3EB94F0EA9400503F8557DA8559E9
:100AAC00DC75C7AA75C7557591018555CCE5519470
:100ABC001EE5509400400575B7118064C3E553954D
:100ACC0051FFE5529550FED3EF941EEE9400400575
:100ADC0075B713804B75B7158046C3EB942CEA940D
:100AEC000150488557DC8559DA75C7AA75C7557505
:100AFC0091018555CCE551941EE550940040057547
:100B0C00B713801CC3E5539551FFE5529550FED3A6
:100B1C00EF941EEE9400400575B711800375B71560
:100B2C0075C7AA75C755E4F591804CC3EB9468EA78
:100B3C00940150438557DC75C7AA75C7557591014B
:100B4C008559CCE551941EE550940040028019C3A0
:100B5C00E5539551FFE5529550FED3EF941EEE945C
:100B6C0000400575B715800375B71175C7AA75C711
:100B7C0055E4F5918555DAE4F5FB43DF1043D84095
:050B8C00D2AFD0D02221
:0A0061003031323334353637383988
:100FAB00C109C18A0230010B023500040237014F1F
:100FBB00012F0302390960022C0000012E000224CC
:0E0FCB000000014F0004280000000001320069
:03002300021007C1
:10100700C0E0C0D075D008309904C299C2083098A2
:101017000FC298AF340534743F2FF8A69953340F95
:05102700D0D0D0E03242
:0100190022C4
:101051007E00CFCDCFCECCCE120BBC74612FF582EA
:0810610074003EF583E493FFE7
:081069002008FDD2088F992236
:10102C008B5C8A5D895EAB5CAA5DA95E120B9160DC
:10103C0013055EE55E7002055D14F9120B91FF124B
:05104C00106980E222A2
:100003008F1B8E1A8D198C18781874FF120D08EC3B
:060013004D4E4F70F32278
:03001B00020612C8
:0D061200C0E0C0F0C083C082C0D075D00829
:10061F00751C00751D00C28EC28F758DC4758B0041
:10062F00C2ABD28EAE24AF25E4FCFD7B607AEAF933
:10063F00F8D3120CDF40080525E52570020524AE1E
:10064F003BE53CA82F088005CEC313CE13D8F92560
:10065F003CFFE53B3EFEC3E5259FE5249E40083069
:10066F000905C209752E00C20D120EBDAB0FE54F65
:10067F006B700302080B200A03020734EB1470039C
:10068F0002073114700302072114700302071E14AE
:10069F00607A14607414600302080B853B3D853C3F
:1006AF003E85243B85253C752400752500D3E53C0C
:1006BF00953AE53B95395049AE3DE53EA82F088068
:1006CF0005CEC313CE13D8F9FFC3E53E9FFDE53D1D
:1006DF009EFCC3E53C9DE53B9C4026E53E2FFFE598
:1006EF003D3EFED3E53C9FE53B9E5015C3E52E9462
:1006FF0004748094804005D20902080B052E02086D
:10070F000B752E00C20902080B0207C60207CC02A6
:10071F0007D7AE3BE53C7802C333CE33CED8F902D0
:10072F0007F10207F8EB24FE70030207C6147003EB
:10073F000207CC1470030207D71470030207E414E6
:10074F0070030207F82405600302080B853B3D8503
:10075F003C3E85243B85253C752400752500D3E55B
:10076F003C953AE53B95395047AE3DE53EA82F08FD
:10077F008005CEC313CE13D8F9FFC3E53E9FFDE529
:10078F003D9EFCC3E53C9DE53B9C4024E53E2FFF91
:10079F00E53D3EFED3E53C9FE53B9E5013C3E52E62
:1007AF009404748094804004D2098050052E804CAC
:1007BF00C209752E008045AE3BAF3C8026E53C2537
:1007CF00E0FFE53B33FE801BAE3BAF3C7C007D037F
:1007DF00120BAA8010AE3BE53C7802C333CE33CE6A
:1007EF00D8F9FF7C007D06800CAE3BAF3C7C007DD2
:1007FF0005120BAA0D120BBC8E1C8F1DE52545246F
:10080F00602FD3E51D9525E51C95244015E51D9515
:10081F0025FFE51C9524FED3EF940FEE94004011B5
:10082F008009E4D3940FE494004006851C24851DB1
:10083F00258B4FAE3DAF3EAB0FAA0EE53C2BFFE530
:10084F003B3AFEE433FDE433FCC00CA90DAA0EAB1A
:10085F000FAE24AF257C027DCF120D26D008120CCF
:10086F004D8F2B8E2A8D298C28200903020916E41F
:10087F007F687E01FDFCAB2BAA2AA929A828D312D9
:10088F000CF54003020919300A0EAE37EE3395E02E
:10089F00FDFCE52B2538800CAE30EE3395E0FDFCEA
:1008AF00E52B2531F52BE52A3EF52AE5293DF529DE
:1008BF00E5283CF528E47F687E01FDFCAB2BAA2AD6
:1008CF00A929A828C3120CF54018E52B9468F52B1D
:1008DF00E52A9401F52AE5299400F529E5289400E5
:1008EF00F528300A17C37468952BF52B7401952AD8
:1008FF00F52AE49529F529E49528F528AE2AAF2B9A
:10090F00AD3212092C800312109F852A22852B23CA
:02091F00D2AB59
:0B092100D0D0D082D083D0F0D0E032E4
:10002600AB07AA067C037DE8120BBC7F6412105155
:100036007C007D64AF03AE02120BBC7F0A12105126
:10004600AE02AF037C007D0A120BBC74612DF582F3
:0B00560074003CF583E493FF02106986
:10108C00438E18E4F589758D70758B24D28ED2AB96
:03109C00D2AF22AE
:04001E00439B0822D6
:03006B000210710F
:10107100C0E0C0F0C083C082C0D075D0101210C2D1
:0B108100D0D0D082D083D0F0D0E0327D
:0210B1008F1896
:0E10B300A20B920C1210D6851832A20B920AD4
:0110C100220C
:0710CF0075E80475E107223A
:100F7500120F1E120FDC12108CD20B7FFF1210B154
:100F850012001E53B1FB43B204D282E4FBFA7F6A1E
:100F95007E017D007C001200030BBB00010ABA0133
:060FA500EDBB69EA80E5E6
:020FD900C187CE
:0710D600A20C92078F1E22FD
:0D10C200A2849204A2939205A294920622A9
:100FDC0053B1E753B2E753B3EB53B4EB75C7AA75F0
:100FEC00C75575910143B31843B10875C7AA75C7A6
:0B0FFC0055E4F591D284D293D29422E8
:100EBD00C0D075D00830042A30051930060B300D1E
:100ECD00047F0580497F038045300D047F04803EFB
:100EDD007F02803A200635300D047F0380307F017C
:100EED00802C30050E300624300D047F06801F7FC8
:100EFD0004801B30060B300D047F0180117F0580AF
:100F0D000D300D047F0280067F0680027F00D0D059
:010F1D0022B1
:100D5300C0D0C2AFEF24FE603C14605014606C142A
:100D63007003020DED147003020E0C2405600302E0
:100D73000E2C75FB30851EDAE4F5DC43D84075C7CD
:100D8300AA75C75575910175B71075C7AA75C7556B
:100D9300F591020E2C75FB0C851EDA75C7AA75C773
:100DA30055759101E4F5CC75B710801575FB038576
:100DB3001EDC75C7AA75C755759101E4F5CC75B7E7
:100DC3001275C7AA75C755F591805B75FB30851EF3
:100DD300DC75C7AA75C75575910175B71275C7AA92
:100DE30075C755E4F591F5DA803C75FB0C75C7AA18
:100DF30075C755759101851ECC75B71475C7AA754E
:100E0300C755E4F591F5DA801D75FB0375C7AA751F
:100E1300C755759101851ECC75B71475C7AA75C7DB
:0E0E230055E4F591F5DC43D840D2AFD0D02293
:10109F00C0D075D008A207920D120EBD120D53D0FD
:0210AF00D0224D
:0410DD0075FB3F223E
:100F1E0053B1F443B20B53B3F843B40775DE3F75C8
:100F2E00DF5175FB3FE4F5FCF5D675D73F75D9FF5C
:100F3E00F5D1F5DCF5D4F5DAF5D275C7AA75C75536
:100F4E00759101F5CCF5C475C7AA75C755F59175A0
:100F5E00C7AA75C75575F90775C7AA75C75575FA26
:070F6E001275D8C00210DD6E
:100E3D00020F75E493A3F8E493A34003F68001F247
:100E4D0008DFF48029E493A3F85407240CC8C333B6
:100E5D00C4540F4420C8834004F456800146F6DF85
:100E6D00E4800B0102040810204080900FABE47E5B
:100E7D00019360BCA3FF543F30E509541FFEE4937A
:100E8D00A360010ECF54C025E060A840B8E493A341
:100E9D00FAE493A3F8E493A3C8C582C8CAC583CA6C
:100EAD00F0A3C8C582C8CAC583CADFE9DEE780BE24
:010FDB000015
:100B9100BB010689828A83E0225002E722BBFE0262
:090BA100E32289828A83E4932295
:100BAA00EF8DF0A4A8F0CF8CF0A428CE8DF0A42E5F
:020BBA00FE2219
:100BBC00BC000BBE0029EF8DF084FFADF022E4CC1D
:100BCC00F875F008EF2FFFEE33FEEC33FCEE9DECE6
:100BDC00984005FCEE9DFE0FD5F0E9E4CEFD22ED2C
:100BEC00F8F5F0EE8420D21CFEADF075F008EF2F76
:100BFC00FFED33FD4007985006D5F0F222C398FD67
:050C0C000FD5F0EA2203
:100C110075F008758200EF2FFFEE33FECD33CDCC9A
:100C210033CCC58233C5829BED9AEC99E58298401D
:100C31000CF582EE9BFEED9AFDEC99FC0FD5F0D6FA
:100C4100E4CEFBE4CDFAE4CCF9A88222B800C1B924
:100C51000059BA002DEC8BF084CFCECDFCE5F0CB62
:100C6100F97818EF2FFFEE33FEED33FDEC33FCEB9B
:100C710033FB10D703994004EB99FB0FD8E5E4F956
:100C8100FA227818EF2FFFEE33FEED33FDEC33FC43
:100C9100C933C910D7059BE99A4007EC9BFCE99A37
:100CA100F90FD8E0E4C9FAE4CCFB2275F010EF2F7C
:100CB100FFEE33FEED33FDCC33CCC833C810D7077C
:100CC1009BEC9AE899400AED9BFDEC9AFCE899F8B7
:0E0CD1000FD5F0DAE4CDFBE4CCFAE4C8F9224A
:100CDF00EB9FF5F0EA9E42F0E99D42F0EC6480C88C
:060CEF0064809845F0222C
:100CF500EB9FF5F0EA9E42F0E99D42F0E89C45F055
:010D050022CB
:100D06007401FF3395E0FEFDFC080808E6CF2FF6D8
:100D160018E6CE3EF618E6CD3DF618E6CC3CF622B1
:100D2600EC8EF0A4CCC5F0CCCDF8EFA4CEC5F02D5A
:100D3600FDE43CFCE8A42EC8C5F03DFDE43CFCEF18
:0D0D4600A4FFE5F028FEE43DFDE43CFC22A6
:00000001FF
