:0300000002126A7F
:0C126A00787FE4F6D8FD7581630212B1B4
:1009600000060C13191F252B32383E444A50565CA2
:1009700061676D72787D83888D92979CA1A6ABAFDD
:10098000B4B8BCC0C5C8CCD0D3D7DADBD8D4D1CDAD
:10099000C9C5C1BDB9B5B0ACA7A29E99948E8984D2
:1009A0007F79746E68635D57514B453F39332D270E
:1009B000211A140E0801050B11171E242A30363C8B
:1009C00042484E545A60666B71777C81878C919651
:1009D0009BA0A5AAAEB3B7BBC0C4C7CBCFD3D6D953
:1009E000DCD8D5D2CECAC6C2BEBAB6B1ADA8A49F15
:1009F0009A95908B85807A756F6A645E58534D47DF
:100A0000413B352E28221C160F0903030A10161C21
:100A100022292F353B41474D53595F646A70757BDE
:100A200080868B90959A9FA4A9ADB2B6BABFC3C772
:100A3000CACED2D5D8DCD9D6D2CFCBC7C3BFBBB7ED
:100A4000B2AEA9A5A09B96918C86817C76716B65D0
:100A5000605A544E48423C36302A241D17110B046C
:100A6000DCDFE2E5E7EAECEEF1F2F4F6F7F9FAFBA7
:100A7000FCFDFDFEFEFEFEFEFDFDFCFCFBF9F8F7B5
:100A8000F5F4F2F0EEEBE9E6E4E1DEDDE0E3E6E8E2
:100A9000EBEDEFF1F3F5F6F8F9FAFBFCFDFDFEFEE8
:100AA000FEFEFEFDFDFCFBFAF9F8F6F5F3F1EFEDC5
:100AB000EAE8E5E3E0DDDEE1E4E7E9ECEEF0F2F4BC
:100AC000F6F7F8FAFBFCFCFDFEFEFEFEFEFEFDFC6A
:100AD000FCFBFAF9F7F6F4F2F0EEECEAE7E4E2DF19
:100AE000DCDFE2E5E8EAEDEFF1F3F5F6F8F9FAFB21
:100AF000FCFDFDFEFEFEFEFEFDFDFCFBFAF9F8F737
:100B0000F5F3F1EFEDEBE9E6E3E0DDDEE1E3E6E965
:100B1000EBEDF0F2F3F5F7F8F9FAFBFCFDFDFEFE64
:100B2000FEFEFEFDFDFCFBFAF9F8F6F4F3F1EFEC46
:100B3000EAE8E5E2DFDCDFE2E4E7EAECEEF0F2F43B
:100B4000F6F7F9FAFBFCFDFDFEFEFEFEFEFDFDFCE8
:100B5000FCFBFAF8F7F5F4F2F0EEECE9E7E4E1DE9D
:1004C7006100001B00060C13191F252B32383E4410
:1004D7004A50565C61676D72787D83888D92979CD0
:1004E700A1A6ABAFB4B8BCC0C5C8CCD0D3D7DADBF4
:1004F700D8D4D1CDC9C5C1BDB9B5B0ACA7A29E9955
:10050700948E89847F79746E68635D57514B453F3C
:1005170039332D27211A140E0801050B11171E2434
:100527002A30363C42484E545A60666B71777C815C
:10053700878C91969BA0A5AAAEB3B7BBC0C4C7CB07
:10054700CFD3D6D9DCD8D5D2CECAC6C2BEBAB6B1F9
:10055700ADA8A49F9A95908B85807A756F6A645E23
:1005670058534D47413B352E28221C160F090303CC
:100577000A10161C22292F353B41474D53595F64FA
:100587006A70757B80868B90959A9FA4A9ADB2B649
:10059700BABFC3C7CACED2D5D8DCD9D6D2CFCBC77C
:1005A700C3BFBBB7B2AEA9A5A09B96918C86817C31
:1005B70076716B65605A544E48423C36302A241D8A
:1005C70017110B046100011BDCDFE2E5E7EAECEE43
:1005D700F1F2F4F6F7F9FAFBFCFDFDFEFEFEFEFE76
:1005E700FDFDFCFCFBF9F8F7F5F4F2F0EEEBE9E6BC
:1005F700E4E1DEDDE0E3E6E8EBEDEFF1F3F5F6F855
:10060700F9FAFBFCFDFDFEFEFEFEFEFDFDFCFBFA1E
:10061700F9F8F6F5F3F1EFEDEAE8E5E3E0DDDEE121
:10062700E4E7E9ECEEF0F2F4F6F7F8FAFBFCFCFD90
:10063700FEFEFEFEFEFEFDFCFCFBFAF9F7F6F4F209
:10064700F0EEECEAE7E4E2DFDCDFE2E5E8EAEDEF33
:10065700F1F3F5F6F8F9FAFBFCFDFDFEFEFEFEFEF2
:10066700FDFDFCFBFAF9F8F7F5F3F1EFEDEBE9E641
:10067700E3E0DDDEE1E3E6E9EBEDF0F2F3F5F7F8D1
:10068700F9FAFBFCFDFDFEFEFEFEFEFDFDFCFBFA9E
:10069700F9F8F6F4F3F1EFECEAE8E5E2DFDCDFE2A4
:1006A700E4E7EAECEEF0F2F4F6F7F9FAFBFCFDFD0D
:1006B700FEFEFEFEFEFDFDFCFCFBFAF8F7F5F4F28C
:0806C700F0EEECE9E7E4E1DEEE
:02150200AB0735
:10150400E4FAEAC394FF748094805039EA90096045
:1015140093FF7E00EBFD7C00120412EEFF741B2A85
:10152400F582E43400F583EFF0EA900A6093FF7EDD
:1015340000120412EEFF741B2AF582E43401F583D1
:05154400EFF00A80BD7C
:01154900227F
:100CCF00C0D075D008AD0F741B2DF582E43400F53C
:100CDF0083E0754800F549741B2DF582E43401F566
:100CEF0083E0754A00F54BC374FF954BFFE4954ABB
:100CFF00C313F54EEF13F54F854E52F5532549F5B6
:100D0F0051E54E3548F550E54F254BF54DE54E3540
:100D1F004AF54CC2AFEDFF7E00C3942B74809480D4
:100D2F00501B75C7AA75C755759101854FCC75C7EF
:100D3F00AA75C755E4F5918551DC020DF7C3EF9401
:100D4F0055EE64809480501A75C7AA75C755759172
:100D5F0001854FCC75C7AA75C755E4F5918551DA52
:100D6F008023C3EF9480EE64809480501D854FDA0A
:100D7F0075C7AA75C7557591018551CC75C7AA75E9
:100D8F00C755E4F591854DDC8061C3EF94ABEE64FC
:100D9F008094805008854FDA8551DC8011C3EF9421
:100DAF00D5EE64809480501D854FDC8551DA75C770
:100DBF00AA75C755759101854DCC75C7AA75C755CD
:100DCF00E4F5918026C3EF94FFEE64809480501B6E
:100DDF00854FDC75C7AA75C7557591018551CC75BF
:100DEF00C7AA75C755E4F591854DDAE4F5FB43DFE6
:090DFF001043D840D2AFD0D0223D
:0400370075FB3F22F4
:1014AC0053B1F443B20B53B3F843B40775DE3F7535
:1014BC00DF5175FB3FE4F5FCF5D6F5D775D9FFF593
:1014CC00D1F5DCF5D4F5DAF5D275C7AA75C7557523
:1014DC009101F5CCF5C475C7AA75C755F59175C7BB
:1014EC00AA75C75575F90775C7AA75C75575FA0654
:0614FC0075D8C0020037A4
:10006E00000102000105303132333435363738396C
:1006CF00C102C184C103012CBD01360A0137D70114
:1006DF002301012A01012B028214177082090000E5
:1006EF0081130082020000811A00022600000233EB
:1006FF000000012D0041021D0082110000012900A0
:10070F00022400000230000081060001280001329F
:06071F0000013500C100DD
:0300230002161EA4
:10161E00C0E0C0D075D008309904C299C20130988C
:10162E000FC298AF2F052F74382FF8A699532F0F8E
:05163E00D0D0D0E03225
:01000A0022D3
:10168A007E00CFCDCFCECCCE12042474742FF58237
:08169A0074003EF583E493FFA8
:0816A2002001FDD2018F992205
:101643008B608A618962AB60AA61A9621203F96047
:10165300130562E5627002056114F91203F9FF12C2
:0516630016A280E22246
:10003E008F5F8E5E8D5D8C5C785C74FF1204A9EC14
:06004E004D4E4F70F3223D
:10158900AB07AA067C037DE81204247F6412168A3D
:101599007C007D64AF03AE021204247F0A12168A0E
:1015A900AE02AF037C007D0A12042474742DF58207
:0B15B90074003CF583E493FF0216A2CF
:1013E700E4F58975C969439210F59375941075F101
:1013F7000875CBFF75CBFEF5C575C6F0439C025348
:10140700C4EF43C408758D70758B24439B0443C890
:101417000443F70453EFFB43EF8053F77F438901FE
:10142700758AAB758C2FC28DD28CD2A975E9FD4315
:10143700EA5843EB3843B84043B740439B0243F76E
:0D1447008043EF8043EF2643FF02D2AF2227
:02000E008F5C05
:10001000A20A920B120003AF5C121502A20A92040C
:0100200022BD
:03003B000215C4E7
:1015C400C0E0C0D075D000C000E5EC30E61953ECA3
:1015D400B0C37812E294FF18E29400500A08E2249F
:1015E40001F218E23400F275EC00D000D0D0D0E063
:0115F40032C4
:03000B0002145488
:10145400C0E0C083C082C0D075D000C000C007C245
:101464008CC28D758AAB758C2F7811E4F2087440A8
:10147400F290021DE0C39440E494005003E004F0B1
:1014840090021DE0FFC37812E29F18E2940050031B
:10149400E014F07811E4F208F2D28CD007D000D036
:0814A400D0D082D083D0E032E9
:05113700C0D075D008D6
:10113C00AEC9EE24B7605024F0602824F0706AAE7B
:10114C00E5EEC394017480948050047F02805AAE03
:10115C00E5EEC394047480948050047F01804AE4CB
:10116C00FF8046AEE5EEC394027480948050047FF9
:10117C00028036AEE5EEC394067480948050047FF2
:10118C00018026E4FF8022AEE5EEC39404748094C3
:10119C008050047F028012AEE5EEC3940C748094F0
:1011AC008050047F018002E4FF852A23EF14600D38
:1011BC00146012800075C969752A01800E75C959B1
:0B11CC00752A02800675C949752A04C7
:0311D700D0D02253
:04007E00439B082276
:0F16BA0053C4E7EFF4F5C5EEF4F5C643C40822B8
:030063000207335E
:07073300C0E0C0D075D01832
:10073A00C20C5392FE3004087533008537348006A4
:10074A00753300852C347816E2FF08E208CFF208E8
:10075A00EFF2AFE5EFFEADE47C00E42D7817F2ECA2
:10076A003E18F2780DE2FF08E208CFF208EFF278BD
:10077A000BE2FF08E208CFF208EFF27807E2FF087F
:10078A00E2780BCFF208EFF27816E2FE08E2FF7881
:10079A0007EEF208EFF2D3E529940F7480948040B3
:1007AA0003752900ADC9ED2497601024107021EF5C
:1007BA0025E07917F3EE3319F380157816E2FE086F
:1007CA00E27802C333CE33CED8F97917F3EE19F3B0
:1007DA00780DE2FE08E2FF08E2FC08E2FDD39FEC96
:1007EA009E4013ED9FFFEC9EFED3EF94C8EE94005B
:1007FA004020D20C801C780FE2FE08E2FFC3780E7C
:10080A00E29FFF18E29EFED3EF94C8EE94004002E6
:10081A00D20C780BE2FE08E2FF08E2FC08E2FDD304
:10082A009FEC9E4013ED9FFFEC9EFED3EF94C8EE23
:10083A0094004020D20C801C780DE2FE08E2FFC32F
:10084A00780CE29FFF18E29EFED3EF94C8EE940064
:10085A004002D20C7807E2FE08E2FF780BE2FC08BD
:10086A00E2FDD39FEC9E4013ED9FFFEC9EFED3EF7B
:10087A0094C8EE94004020D20C801C780BE2FE084B
:10088A00E2FFC37808E29FFF18E29EFED3EF94C806
:10089A00EE94004002D20C300C087807E2FE08E21F
:1008AA00802C780BE2FE08E2FF7808E22FFF18E2BC
:1008BA003EFE780EE22FFF18E23EFE7810E22FFF8E
:1008CA0018E23EFEEF7802CEC313CE13D8F9FF1218
:1008DA0016BA1211377814E2FE08E2FFD37817E24B
:1008EA009F18E29E50657818E2FC08E2FDAE1CA84B
:1008FA002B088005CEC313CE13D8F9FFC3ED9FFF93
:10090A00EC9EFEC37817E29F18E29E403E7818E2FA
:10091A00FC08E2FDAE1CA82B088005CEC313CE133B
:10092A00D8F92DFFEC3EFED37817E29F18E29E50CD
:10093A001A7813E2C3940474809480400730031138
:10094A00D202800D7813E204F280067813E4F2C230
:01095A00029A
:05095B00D0D0D0E03215
:030083000212F670
:1012F600C0E0C0F0C083C082C0D075D00853C4EF30
:10130600C374FF9523FFE49400FEC3E5349FE533E1
:101316009E500DE5232534F534E43533F53380133B
:10132600753300753400C3E52994FF7480948050AA
:1013360002052985332685342730021830040CC36C
:1013460074FF9527F527E49526F526AF27AE2612D6
:101356000CCF80131216FAEE4F24FF920D1213785B
:101366007806EFF2121059D0D0D082D083D0F0D0C8
:02137600E03263
:03006B000216F783
:0316F700C2DD321F
:0D16C90075E80175E10775E30575E2202263
:03005B00020F3D54
:100F3D00C0E0C0F0C083C082C0D075D018C2EFE54C
:100F4D00E8540724FE602E14604714606014607925
:100F5D0024046003020FF0AFC37E00E5C22404FD3C
:100F6D00EFA81D088005C333CE33CED8F9F5318EE9
:100F7D0030D200806EAFC37E00E5C22404FDEFA821
:100F8D001D088005C333CE33CED8F9F5258E2480C8
:100F9D0052AFC37E00E5C22404FDEFA81D088005F5
:100FAD00C333CE33CED8F9FF1200548036AFC37E93
:100FBD0000E5C22404FDEFA81D088005C333CE3320
:100FCD00CED8F9FF12005E801AAFC37E00E5C224B1
:100FDD0004FDEFA81D088005C333CE33CED8F9FF2D
:100FED00120066300048E52890006E9314601314CB
:100FFD00602424FD6025240570307806E2FF7D0114
:10100D00800F7806E2FF7D02120B607806E2FF7D0D
:10101D0003120B60801475E800800375E80275E11A
:10102D000175E30075E20043E840C200800312162B
:10103D00C9C3E52894057480948040037528000584
:0C104D0028D0D0D082D083D0F0D0E03288
:0A16E300AD07AC068CCFEDF5CE226A
:0D16D6007FFF7E0F1216E31216C9D2AE225E
:10154A001214AC1216681216ED1216D6D20A7FE6DB
:10155A0012000E1213E753B17F43B28053B3B05354
:10156A00B4B0D287E4FBFA7FFE7E007D007C0012D5
:0F157A00003E0BBB00010AEB64FE4A70EA80E5FD
:04072500C189C1883D
:07000300A20B92098F63229A
:0316FA00A2092220
:10002600C0D0A2959205A2939206A2949207D0D030
:0100360022A7
:1016680053B3C753B4C775C7AA75C7557591014316
:10167800B31875C7AA75C755E4F591D295D293D218
:021688009422AA
:10137800C0D075D008309533A293300801B3501906
:1013880030940B300D047F0580527F03804E300D62
:10139800047F0480477F0280433094047F00803CB0
:1013A800300D047F0380357F018031A2933008011E
:1013B800B3501230940B300D047F06801F7F0480D9
:1013C8001B7F00801730940B300D047F01800D7F48
:0F13D800058009300D047F0280027F06D0D022ED
:10105900C0D0C2AFEF24FE603C14605014606C1421
:1010690070030210F31470030211122405600302C5
:10107900113275FB308563DAE4F5DC43D84075C776
:10108900AA75C75575910175B71075C7AA75C75562
:10109900F59102113275FB0C8563DA75C7AA75C71C
:1010A90055759101E4F5CC75B710801575FB03856D
:1010B90063DC75C7AA75C755759101E4F5CC75B799
:1010C9001275C7AA75C755F591805B75FB308563A5
:1010D900DC75C7AA75C75575910175B71275C7AA89
:1010E90075C755E4F591F5DA803C75FB0C75C7AA0F
:1010F90075C7557591018563CC75B71475C7AA7500
:10110900C755E4F591F5DA801D75FB0375C7AA7516
:10111900C7557591018563CC75B71475C7AA75C78D
:0E11290055E4F591F5DC43D840D2AFD0D0228A
:0407290002100000BA
:050054008E128F132243
:05005E008E148F152235
:050066008E168F172229
:1015F500C0D0EF24FE600C14600E2402700D75E857
:1016050005800875E804800375E80375E101E4F5D4
:09161500E3F5E243E840D0D022E5
:050B6000C0D075D018A3
:100B6500C20EEF24FE6054147003020BF3147003DD
:100B7500020C26147003020C5C147003020C8F2403
:100B8500056003020CC3ED24FE600D14600D240204
:100B95006003020CC3020C39020C68851210851320
:100BA50011E510C313FEE51113FFC3E5179FE51605
:100BB5009E50028001C3920E020CC3ED24FE600C10
:100BC50014600B24026003020CC3806880628512E6
:100BD50010851311E510C313FEE51113FFC3E515C9
:100BE5009FE5149E50028001C3920E020CC3ED24B2
:100BF500FE600C14600B24026003020CC38031807C
:100C050062851410851511E510C313FEE51113FF58
:100C1500C3E5139FE5129E50028001C3920E020C9C
:100C2500C3ED24FE600E14600F24026003020CC3A2
:100C35007F0280687F018064851410851511E51099
:100C4500C313FEE51113FFC3E5179FE5169E50027A
:100C55008001C3920E8067ED24FE600B14600C24A6
:100C650002705B7F0380357F018031851610851703
:100C750011E510C313FEE51113FFC3E5159FE51438
:100C85009E50028001C3920E8034ED24FE600B1449
:100C9500600F240270287F0380027F011215F58002
:100CA5001D851610851711E510C313FEE51113FFF9
:100CB500C3E5139FE5129E50028001C3920EED64B9
:070CC500037004A20E9287E8
:030CCC00D0D02263
:0A16ED0043B17053B28F43F6382268
:1016AA00461C4000439513334576E0004388933344
:05072D0042021B000068
:1011DA00E412021E9016AA1204971201818F578EEA
:1011EA00568D558C54120E3C8F578E568D558C54F5
:1011FA009016B21204971201818F578E568D558C14
:10120A0054AB57AA56A955A854C000C001C002C081
:10121A00039016AE120497E4FFFE7D807C3F120114
:10122A0081D003D002D001D00012008D8F578E5684
:10123A008D558C54AB57AA56A955A854E4FFFE7D88
:10124A00807C3F1201818F578E568D558C54901693
:0F125A00B61204971200898F578E568D558C54FB
:011269002262
:10008600020291E86480F8E933E83360110460F015
:10009600ED33EC337009E8FCE9FDEAFEEBFF2204E0
:1000A60060DED3EB9FEA9EE99DE8C2E78CF0C2F7DB
:1000B60095F0400CE8CCF8E9CDF9EACEFAEBCFFBA7
:1000C60012025C85D0F05804700320D5B3E80470A2
:1000D600075002B2D502029B92D5EC0460F7E4CC3D
:1000E600C0E0C398F8603B94186008400DD0E0FB70
:1000F600020273E4FBFAC9FC8028E830E406E4C98E
:10010600FBE4CAFCE830E305E4C9CACBFCE85407C3
:100116006010F8C3E913F9EA13FAEB13FBEC13FCCE
:10012600D8F130F52FC3E49CFCEF9BFFEE9AFEED71
:1001360099FDD0E0FBEF4E4D4C701222DB0302021C
:1001460098EC2CFCEF33FFEE33FEED33FDED30E79C
:10015600EB020273EF2BFFEE3AFEED39FDD0E0FB2A
:1001660050130BBB000302029BED13FDEE13FEEFD3
:0801760013FFEC13FC020273FD
:10017E0002029BEC5D046005E859047003020291D3
:10018E0012025C580460F6EC4860F2EC7004FDFE5E
:10019E00FF22C860DB2481C85009C3986002500654
:1001AE000202989850CAF582E9294B4A7005AB8233
:1001BE0002028775F0007C1A7880C3EF9BEE9AEDF1
:1001CE0099400DC3EF9BFFEE9AFEED99FDE842F0CC
:1001DE00DC23ACF0D0E0FFD0E0FED0E0FDAB82201F
:1001EE00E7101BEB60BAEC2CFCEF33FFEE33FEEDA9
:1001FE0033FD020273E803F830E705C0F075F00036
:10020E00EF2FFFEE33FEED33FD40B830E7C280AA8C
:10021E0075F020800E75F010800575F0087D007E5B
:10022E00007F003392D530D503120479EC334010A1
:10023E00EF33FFEE33FEED33FDEC33FCD5F0ED2264
:0E024E00E5F0247EA2D513CC92E7CDCEFF22A0
:100E08003E9248DA3ECCCCCD3F2AAAAB4000000047
:100E18003F8000003F9837F03FB504F33FD744FCCC
:100E28003E3172173EB172173F0515913EDE5BD910
:100E3800D2138002C213EDD2E7F8CD33EC3304703D
:100E48000BBD800592D502029B02029140FBD31490
:100E580060F2F5F07C3FEE7A00C39496C8948B401C
:100E6800230AC89469C8941A401A0AC89468C8948E
:100E78001F40110AC8945AC89425400805F07A0002
:100E8800CDC2E7CDC0F08C588D598E5A8F5BEA23BE
:100E980023C0E02418F582E4340EF5831204971277
:100EA800008DECC0E0EDC0E0EEC0E0EFC0E0120461
:100EB80087A858A959AA5AAB5B120089D0E0FBD081
:100EC800E0FAD0E0F9D0E0B2E7F81201818C588D51
:100ED800598E5A8F5B900E0874031203ACA858A958
:100EE80059AA5AAB5B1202A6D0E0600F2424F582FF
:100EF800E4340EF58312049712008D8C588D598EA8
:100F08005A8F5BD0E0C3947FFDE49400FC12022367
:100F18007B187A727931783F1202A6A858A959AA83
:100F28005AAB5B12008D30130B7BD97A5B79DE7874
:050F38003E1202A6229A
:10025C00E9D2E7C933E833F892D5EDD2E7CD33ECE8
:07026C0033FC5002B2D52261
:10027300EC30E7100FBF000C0EBE00080DBD0004EC
:100283000BEB6014A2D5EB13FCED92E7FD2274FF98
:10029300FCFDFEFF22E480F8A2D574FF13FC7D80F1
:0302A300E480EF05
:1002A600EC4D6011E8497017ED33EC3304600DE452
:1002B600FCFFFEFD22E933E8330470F802029112D6
:1002C600025C58046009E4CC2481500628500902D7
:1002D600029B284003020298C0E0EB4A7044B980B2
:1002E60006D0E0FB020287EF4E701CBD8008EBFFD4
:1002F600EAFEE9FD80EBE98DF0A4FEE5F002038F4E
:10030600E9CDF9EAFEEBFFEF89F0A4FCE5F0CE8932
:10031600F0A42EFFE435F0CD89F0A42DFEE435F0EF
:100326008067EF4E7005BD80D780C3EF8BF0A4AC1D
:10033600F0EE8BF0A42CFCE435F0F8EF8AF0A42C58
:10034600E5F038FCE433CB8DF0A42CFCE5F03BF86B
:10035600EE8AF0A42CFCE5F038F8E433CF89F0A45B
:100366002CFCE5F038CF3400CE89F0A42FFFE5F061
:100376003EFEE433C98DF0A42EFEE5F039CD8AF0B9
:10038600A42FFFE5F03EFEE43DFD33D0E0FB500731
:100396000BBB000F02029BEC2CFCEF33FFEE33FE8F
:0603A600ED33FD020273BD
:1003AC00C0E0EFFBEEFAEDF9ECF81202A6D0E0F5A6
:1003BC00F0EFFBEEFAEDF9ECF8120487A3A3A3A37C
:1003CC00E8C0E0E9C0E0EAC0E0EBC0E0C0F0120237
:1003DC00A6120497A3A3A3A312008DD0F0D0E0FB28
:0D03EC00D0E0FAD0E0F9D0E0F8D5F0D4224E
:1012760002154AE493A3F8E493A34003F68001F22F
:1012860008DFF48029E493A3F85407240CC8C33379
:10129600C4540F4420C8834004F456800146F6DF48
:1012A600E4800B01020408102040809004C7E47E0D
:1012B600019360BCA3FF543F30E509541FFEE4933D
:1012C600A360010ECF54C025E060A840B8E493A304
:1012D600FAE493A3F8E493A3C8C582C8CAC583CA2F
:1012E600F0A3C8C582C8CAC583CADFE9DEE780BEE7
:0107320000C6
:1003F900BB010689828A83E0225002E722BBFE0202
:09040900E32289828A83E4932234
:10041200EF8DF0A4A8F0CF8CF0A428CE8DF0A42EFE
:02042200FE22B8
:10042400BC000BBE0029EF8DF084FFADF022E4CCBC
:10043400F875F008EF2FFFEE33FEEC33FCEE9DEC85
:10044400984005FCEE9DFE0FD5F0E9E4CEFD22EDCB
:10045400F8F5F0EE8420D21CFEADF075F008EF2F15
:10046400FFED33FD4007985006D5F0F222C398FD06
:050474000FD5F0EA22A3
:0E047900C3E49FFFE49EFEE49DFDE49CFC2294
:10048700E493FC740193FD740293FE740393FF22BB
:10049700E493F8740193F9740293FA740393FB22BB
:1004A7007401FF3395E0FEFDFC080808E6CF2FF640
:1004B70018E6CE3EF618E6CD3DF618E6CC3CF62219
:00000001FF
