:03000000020E8964
:0C0E8900787FE4F6D8FD758155020ED08C
:10006E00000000040009000D00120016001B001F06
:10007E0000230028002C003000350039003D0042DE
:10008E000046004A004E00530057005B005F0063BD
:10009E000067006B006F00730077007B007F0083AA
:1000AE000087008A008E009200950099009C00A0A7
:1000BE0000A300A700AA00AD00B000B400B700BABC
:1000CE0000BD00C000C300C500C800CB00CD00D0ED
:1000DE0000D300D500D700DA00DC00DA00D700D557
:1000EE0000D300D000CD00CB00C800C500C300C0B7
:1000FE0000BD00BA00B700B400B000AD00AA00A762
:10010E0000A300A0009C009900950092008E008A2A
:10011E0000870083007F007B00770073006F006B09
:10012E0000670063005F005B00570053004E004AFB
:10013E0000460042003D003900350030002C0028FA
:10014E000023001F001B00160012000D0009000402
:10015E00000000040009000D00120016001B001F15
:10016E0000230028002C003000350039003D0042ED
:10017E000046004A004E00530057005B005F0063CC
:10018E000067006B006F00730077007B007F0083B9
:10019E000087008A008E009200950099009C00A0B6
:1001AE0000A300A700AA00AD00B000B400B700BACB
:1001BE0000BD00C000C300C500C800CB00CD00D0FC
:1001CE0000D300D500D700DA00DC00DA00D700D566
:1001DE0000D300D000CD00CB00C800C500C300C0C6
:1001EE0000BD00BA00B700B400B000AD00AA00A771
:1001FE0000A300A0009C009900950092008E008A3A
:10020E0000870083007F007B00770073006F006B18
:10021E0000670063005F005B00570053004E004A0A
:10022E0000460042003D003900350030002C002809
:10023E000023001F001B00160012000D0009000411
:10024E00000000040009000D00120016001B001F24
:10025E0000230028002C003000350039003D0042FC
:10026E000046004A004E00530057005B005F0063DB
:10027E000067006B006F00730077007B007F0083C8
:10028E000087008A008E009200950099009C00A0C5
:10029E0000A300A700AA00AD00B000B400B700BADA
:1002AE0000BD00C000C300C500C800CB00CD00D00B
:1002BE0000D300D500D700DA00DC00DA00D700D575
:1002CE0000D300D000CD00CB00C800C500C300C0D5
:1002DE0000BD00BA00B700B400B000AD00AA00A780
:1002EE0000A300A0009C009900950092008E008A49
:1002FE0000870083007F007B00770073006F006B28
:10030E0000670063005F005B00570053004E004A19
:10031E0000460042003D003900350030002C002818
:10032E000023001F001B00160012000D0009000420
:10033E00000000DC00DE00E000E200E400E600E881
:10034E0000EA00EC00ED00EF00F000F200F300F424
:10035E0000F500F600F700F800F900FA00FB00FCCB
:10036E0000FC00FD00FD00FD00FE00FE00FE00FE94
:10037E0000FE00FE00FE00FD00FD00FD00FC00FC86
:10038E0000FB00FA00F900F800F700F600F500F4A3
:10039E0000F300F200F000EF00ED00EC00EA00E8E0
:1003AE0000E600E400E200E000DE00DC00DE00E03B
:1003BE0000E200E400E600E800EA00EC00ED00EFE9
:1003CE0000F000F200F300F400F500F600F700F87C
:1003DE0000F900FA00FB00FC00FC00FD00FD00FD32
:1003EE0000FE00FE00FE00FE00FE00FE00FE00FD10
:1003FE0000FD00FD00FC00FC00FB00FA00F900F817
:10040E0000F700F600F500F400F300F200F000EF44
:10041E0000ED00EC00EA00E800E600E400E200E097
:10042E0000DE00DC00DE00E000E200E400E600E8B2
:10043E0000EA00EC00ED00EF00F000F200F300F433
:10044E0000F500F600F700F800F900FA00FB00FCDA
:10045E0000FC00FD00FD00FD00FE00FE00FE00FEA3
:10046E0000FE00FE00FE00FD00FD00FD00FC00FC95
:10047E0000FB00FA00F900F800F700F600F500F4B2
:10048E0000F300F200F000EF00ED00EC00EA00E8EF
:10049E0000E600E400E200E000DE00DC00DE00E04A
:1004AE0000E200E400E600E800EA00EC00ED00EFF8
:1004BE0000F000F200F300F400F500F600F700F88B
:1004CE0000F900FA00FB00FC00FC00FD00FD00FD41
:1004DE0000FE00FE00FE00FE00FE00FE00FE00FD1F
:1004EE0000FD00FD00FC00FC00FB00FA00F900F826
:1004FE0000F700F600F500F400F300F200F000EF54
:10050E0000ED00EC00EA00E800E600E400E200E0A6
:10051E0000DE00DC00DE00E000E200E400E600E8C1
:10052E0000EA00EC00ED00EF00F000F200F300F442
:10053E0000F500F600F700F800F900FA00FB00FCE9
:10054E0000FC00FD00FD00FD00FE00FE00FE00FEB2
:10055E0000FE00FE00FE00FD00FD00FD00FC00FCA4
:10056E0000FB00FA00F900F800F700F600F500F4C1
:10057E0000F300F200F000EF00ED00EC00EA00E8FE
:10058E0000E600E400E200E000DE00DC00DE00E059
:10059E0000E200E400E600E800EA00EC00ED00EF07
:1005AE0000F000F200F300F400F500F600F700F89A
:1005BE0000F900FA00FB00FC00FC00FD00FD00FD50
:1005CE0000FE00FE00FE00FE00FE00FE00FE00FD2E
:1005DE0000FD00FD00FC00FC00FB00FA00F900F835
:1005EE0000F700F600F500F400F300F200F000EF63
:1005FE0000ED00EC00EA00E800E600E400E200E0B6
:04060E0000DE00DC2E
:10095900AB07AA06A905EB25E0FFEA33FE746E2F63
:10096900F58274003EF583E493FC740193FDE9FF7D
:100979007E00120BD0EEF511751000EB25E0FFEAB1
:1009890033FE74402FF58274033EF583E493FC74BF
:100999000193FDAF017E00120BD0EEF51375120025
:1009A900C374FF9513FFE49512C313F516EF13F5FE
:1009B9001785161AF51B2511F519E5163510F518C1
:1009C900E5172513F515E5163512F514C2AFC3EB76
:1009D900943CEA9400504675C7AA75C755759101AC
:1009E9008517CCE511941EE5109400400575B715DF
:1009F900801CC3E5139511FFE5129510FED3EF9402
:100A09001EEE9400400575B713800375B71175C7BD
:100A1900AA75C755E4F5918519DC020BA8C3EB94B7
:100A290078EA9400504575C7AA75C755759101852F
:100A390017CCE511941EE5109400400575B7158093
:100A49001CC3E5139511FFE5129510FED3EF941E13
:100A5900EE9400400575B711800375B71375C7AAE1
:100A690075C755E4F5918519DA804CC3EB94B4EA5E
:100A7900940050498517DA75C7AA75C7557591014C
:100A89008519CCE511941EE5109400400575B71140
:100A9900801CC3E5139511FFE5129510FED3EF9461
:100AA9001EEE9400400575B715800375B71375C719
:100AB900AA75C755E4F5918515DC020BABC3EB9418
:100AC900F0EA9400503F8517DA8519DC75C7AA75D5
:100AD900C7557591018515CCE511941EE510940053
:100AE900400575B7118064C3E5139511FFE51295AB
:100AF90010FED3EF941EEE9400400575B713804B9A
:100B090075B7158046C3EB942CEA940150488517B4
:100B1900DC8519DA75C7AA75C7557591018515CC94
:100B2900E511941EE5109400400575B713801CC3A8
:100B3900E5139511FFE5129510FED3EF941EEE947F
:100B490000400575B711800375B71575C7AA75C734
:100B590055E4F591804CC3EB9468EA9401504385C0
:100B690017DC75C7AA75C7557591018519CCE511AB
:100B7900941EE510940040028019C3E5139511FFF6
:100B8900E5129510FED3EF941EEE9400400575B75B
:100B990015800375B71175C7AA75C755E4F5918511
:0E0BA90015DAE4F5FB43DF1043D840D2AF224B
:0A0061003031323334353637383988
:10104A00C109C18A0230010B023500040237013E90
:10105A00012F0402390960022C0000012E0002242B
:0E106A000000014F00042800000000013200C9
:030023000210A622
:1010A600C0E0C0D075D008309904C299C208309803
:1010B6000FC298AF340534743F2FF8A69953340FF6
:0510C600D0D0D0E032A3
:0100190022C4
:1010F0007E00CFCDCFCECCCE120BE274612FF58225
:0811000074003EF583E493FF47
:081108002008FDD2088F992296
:1010CB008B1C8A1D891EAB1CAA1DA91E120BB76097
:1010DB0013051EE51E7002051D14F9120BB7FF1246
:0510EB00110880E22263
:100003008F538E528D518C50785074FF120D64ECC7
:060013004D4E4F70F32278
:03001B00020612C8
:10061200C0E0C0F0C083C082C0D075D000C000C0AE
:0D06220001C002C003C004C005C006C0072F
:10062F00755400755500C28EC28F758DB8758B24A9
:10063F00C2ABD28EAE24AF25E4FCFD7B607AEAF923
:10064F00F8D3120D3B40080525E52570020524AEB1
:10065F003BE53CA82F088005CEC313CE13D8F92550
:10066F003CFFE53B3EFEC3E5259FE5249E400A3057
:10067F000907D296C209752E00C20D120F15AB07CE
:10068F00E54F6B7003020828200A0302074DEB1495
:10069F00700302074A14700302073A14700302072B
:1006AF0037147003020734146078146003020828AB
:1006BF00853B3D853C3E85243B85253C7524007557
:1006CF002500D3E53C953AE53B9539504BAE3DE5DA
:1006DF003EA82F088005CEC313CE13D8F9FFC3E56C
:1006EF003E9FFDE53D9EFCC3E53C9DE53B9C4028C0
:1006FF00E53E2FFFE53D3EFED3E53C9FE53B9E509B
:10070F0017C296C3E52E9404748094804005D209D5
:10071F00020828052E020828D296752E00C209025B
:10072F0008280207E30207E90207F4AE3BE53C782D
:10073F0002C333CE33CED8F902080E020815EB24CC
:10074F00FE70030207E31470030207E9147003023B
:10075F0007F414700302080114700302081524052E
:10076F006003020828853B3D853C3E85243B85255B
:10077F003C752400752500D3E53C953AE53B95394A
:10078F005049AE3DE53EA82F088005CEC313CE13CA
:10079F00D8F9FFC3E53E9FFDE53D9EFCC3E53C9DBB
:1007AF00E53B9C4026E53E2FFFE53D3EFED3E53C75
:1007BF009FE53B9E5015C296C3E52E94047480941A
:1007CF00804004D2098052052E804ED296C2097500
:1007DF002E008045AE3BAF3C8026E53C25E0FFE593
:1007EF003B33FE801BAE3BAF3C7C007D03120BD036
:1007FF008010AE3BE53C7802C333CE33CED8F9FF41
:10080F007C007D06800CAE3BAF3C7C007D05120B5F
:10081F00D00D120BE28E548F55E5254524602FD352
:10082F00E5559525E55495244015E5559525FFE5A6
:10083F00549524FED3EF940FEE940040118009E4F9
:10084F00D3940FE4940040068554248555258B4F8F
:10085F00AE3DAF3EAB07AA06E53C2BFFE53B3AFEAC
:10086F00E433FDE433FCC004A905AA06AB07AE24AC
:10087F00AF257C027DCF120D82D000120CA98F2BD9
:10088F008E2A8D298C28200903020933E47F687E84
:10089F0001FDFCAB2BAA2AA929A828D3120D514080
:1008AF0003020936300A0EAE37EE3395E0FDFCE554
:1008BF002B2538800CAE30EE3395E0FDFCE52B2573
:1008CF0031F52BE52A3EF52AE5293DF529E5283CAA
:1008DF00F528E47F687E01FDFCAB2BAA2AA929A885
:1008EF0028C3120D514018E52B9468F52BE52A9477
:1008FF0001F52AE5299400F529E5289400F528301B
:10090F000A17C37468952BF52B7401952AF52AE401
:10091F009529F529E49528F528AE2AAF2BAD32128B
:0F092F000959800312114F852A22852B23D2AB41
:10093E00D007D006D005D004D003D002D001D0000D
:0B094E00D0D0D082D083D0F0D0E032B7
:10002600AB07AA067C037DE8120BE27F641210F090
:100036007C007D64AF03AE02120BE27F0A1210F061
:10004600AE02AF037C007D0A120BE274612DF582CD
:0B00560074003CF583E493FF021108E6
:10112F00438E18E4F589758D70758B24D28ED2ABF2
:03113F00D2AF220A
:04001E00439B0822D6
:03006B00020FDBA6
:100FDB00C0E0C0F0C083C082C0D075D000C000C0DC
:100FEB0001C002C003C004C005C006C007121142F5
:100FFB00D007D006D005D004D003D002D001D0004A
:0B100B00D0D0D082D083D0F0D0E032F3
:021110008F50FE
:101112007E007C007D11120BD07D16120C37A20BC3
:0C112200920C121159855032A20B920A57
:01112E00229E
:1010160053B3BF43B440120F8412107B12112FD268
:101026000B7F3C12111012001EE4FBFA7F6A7E0150
:101036007D007C001200030BBB00010ABA01EDBB68
:0410460069EA80E5EE
:02107800C1872E
:07115900A20C92078F1F2278
:0D114200A2849204A2939205A29492062228
:10107B0053B1E753B2E753B3EB53B4EB75C7AA7550
:10108B00C75575910143B31843B10875C7AA75C706
:0B109B0055E4F591D284D293D2942248
:100F150020040F20050C200609300D037F02227FD7
:100F2500062230040F20050C200609300D037F032F
:100F3500227F012230040F30050C200609300D03F5
:100F45007F04227F022230040F30050C3006093061
:100F55000D037F05227F032220040F30050C300688
:100F650009300D037F06227F042220040F20050C83
:0F0F7500300609300D037F01227F05227F002205
:100DAF00C2AFEF24FE603C14605014606C147003EB
:100DBF00020E47147003020E6624056003020E86AE
:100DCF0075FB30851FDAE4F5DC43D84075C7AA758B
:100DDF00C75575910175B71075C7AA75C755F591A8
:100DEF00020E8675FB0C851FDA75C7AA75C7557578
:100DFF009101E4F5CC75B710801575FB03851FDCE9
:100E0F0075C7AA75C755759101E4F5CC75B71275FD
:100E1F00C7AA75C755F591805B75FB30851FDC75CB
:100E2F00C7AA75C75575910175B71275C7AA75C74A
:100E3F0055E4F591F5DA803C75FB0C75C7AA75C7BB
:100E4F0055759101851FCC75B71475C7AA75C75510
:100E5F00E4F591F5DA801D75FB0375C7AA75C755C3
:100E6F00759101851FCC75B71475C7AA75C755E461
:0A0E7F00F591F5DC43D840D2AF2214
:0A114F00A207920D120F15020DAF5A
:0411600075FB3F22BA
:100F840053B1F443B20B53B3F843B40775DE3F7562
:100F9400DF5175FB3FE4F5FCF5D675D73F75D9FFF6
:100FA400F5D1F5DCF5D4F5DAF5D275C7AA75C755D0
:100FB400759101F5CCF5C475C7AA75C755F591753A
:100FC400C7AA75C75575F90775C7AA75C75575FAC0
:070FD4001275D8C002116084
:100E9500021016E493A3F8E493A34003F68001F24D
:100EA50008DFF48029E493A3F85407240CC8C3335E
:100EB500C4540F4420C8834004F456800146F6DF2D
:100EC500E4800B010204081020408090104AE47E63
:100ED500019360BCA3FF543F30E509541FFEE49322
:100EE500A360010ECF54C025E060A840B8E493A3E9
:100EF500FAE493A3F8E493A3C8C582C8CAC583CA14
:100F0500F0A3C8C582C8CAC583CADFE9DEE780BECB
:01107A000075
:100BB700BB010689828A83E0225002E722BBFE023C
:090BC700E32289828A83E493226F
:100BD000EF8DF0A4A8F0CF8CF0A428CE8DF0A42E39
:020BE000FE22F3
:100BE200BC000BBE0029EF8DF084FFADF022E4CCF7
:100BF200F875F008EF2FFFEE33FEEC33FCEE9DECC0
:100C0200984005FCEE9DFE0FD5F0E9E4CEFD22ED05
:100C1200F8F5F0EE8420D21CFEADF075F008EF2F4F
:100C2200FFED33FD4007985006D5F0F222C398FD40
:050C32000FD5F0EA22DD
:100C3700C2D5EC30E709B2D5E4C39DFDE49CFCEED8
:100C470030E715B2D5E4C39FFFE49EFE120BE2C363
:100C5700E49DFDE49CFC8003120BE230D507C3E45E
:060C67009FFFE49EFE2247
:100C6D0075F008758200EF2FFFEE33FECD33CDCC3E
:100C7D0033CCC58233C5829BED9AEC99E5829840C1
:100C8D000CF582EE9BFEED9AFDEC99FC0FD5F0D69E
:100C9D00E4CEFBE4CDFAE4CCF9A88222B800C1B9C8
:100CAD000059BA002DEC8BF084CFCECDFCE5F0CB06
:100CBD00F97818EF2FFFEE33FEED33FDEC33FCEB3F
:100CCD0033FB10D703994004EB99FB0FD8E5E4F9FA
:100CDD00FA227818EF2FFFEE33FEED33FDEC33FCE7
:100CED00C933C910D7059BE99A4007EC9BFCE99ADB
:100CFD00F90FD8E0E4C9FAE4CCFB2275F010EF2F20
:100D0D00FFEE33FEED33FDCC33CCC833C810D7071F
:100D1D009BEC9AE899400AED9BFDEC9AFCE899F85A
:0E0D2D000FD5F0DAE4CDFBE4CCFAE4C8F922ED
:100D3B00EB9FF5F0EA9E42F0E99D42F0EC6480C82F
:060D4B0064809845F022CF
:100D5100EB9FF5F0EA9E42F0E99D42F0E89C45F0F8
:010D6100226F
:100D62007401FF3395E0FEFDFC080808E6CF2FF67C
:100D720018E6CE3EF618E6CD3DF618E6CC3CF62255
:100D8200EC8EF0A4CCC5F0CCCDF8EFA4CEC5F02DFE
:100D9200FDE43CFCE8A42EC8C5F03DFDE43CFCEFBC
:0D0DA200A4FFE5F028FEE43DFDE43CFC224A
:00000001FF
